{
  "_format": "hh-sol-artifact-1",
  "contractName": "LazlosPizzaShop",
  "sourceName": "contracts/LazlosPizzaShop.sol",
  "abi": [
    {
      "anonymous": false,
      "inputs": [
        {
          "indexed": true,
          "internalType": "address",
          "name": "previousOwner",
          "type": "address"
        },
        {
          "indexed": true,
          "internalType": "address",
          "name": "newOwner",
          "type": "address"
        }
      ],
      "name": "OwnershipTransferred",
      "type": "event"
    },
    {
      "inputs": [
        {
          "internalType": "address",
          "name": "artist",
          "type": "address"
        }
      ],
      "name": "artistAllowedWithdrawalAmount",
      "outputs": [
        {
          "internalType": "uint256",
          "name": "",
          "type": "uint256"
        }
      ],
      "stateMutability": "view",
      "type": "function"
    },
    {
      "inputs": [
        {
          "internalType": "address",
          "name": "artist",
          "type": "address"
        }
      ],
      "name": "artistTotalCommission",
      "outputs": [
        {
          "internalType": "uint256",
          "name": "",
          "type": "uint256"
        }
      ],
      "stateMutability": "view",
      "type": "function"
    },
    {
      "inputs": [],
      "name": "artistWithdraw",
      "outputs": [],
      "stateMutability": "nonpayable",
      "type": "function"
    },
    {
      "inputs": [
        {
          "internalType": "uint256[]",
          "name": "tokenIds",
          "type": "uint256[]"
        }
      ],
      "name": "bakePizza",
      "outputs": [
        {
          "internalType": "uint256",
          "name": "",
          "type": "uint256"
        }
      ],
      "stateMutability": "payable",
      "type": "function"
    },
    {
      "inputs": [],
      "name": "bakePizzaPrice",
      "outputs": [
        {
          "internalType": "uint256",
          "name": "",
          "type": "uint256"
        }
      ],
      "stateMutability": "view",
      "type": "function"
    },
    {
      "inputs": [
        {
          "internalType": "uint256[]",
          "name": "tokenIds",
          "type": "uint256[]"
        },
        {
          "internalType": "uint256",
          "name": "timestamp",
          "type": "uint256"
        },
        {
          "internalType": "bytes32",
          "name": "r",
          "type": "bytes32"
        },
        {
          "internalType": "bytes32",
          "name": "s",
          "type": "bytes32"
        },
        {
          "internalType": "uint8",
          "name": "v",
          "type": "uint8"
        }
      ],
      "name": "bakeRandomPizza",
      "outputs": [
        {
          "internalType": "uint256",
          "name": "",
          "type": "uint256"
        }
      ],
      "stateMutability": "payable",
      "type": "function"
    },
    {
      "inputs": [],
      "name": "bakeRandomPizzaOn",
      "outputs": [
        {
          "internalType": "bool",
          "name": "",
          "type": "bool"
        }
      ],
      "stateMutability": "view",
      "type": "function"
    },
    {
      "inputs": [
        {
          "internalType": "uint256[]",
          "name": "tokenIds",
          "type": "uint256[]"
        }
      ],
      "name": "buyAndBakePizza",
      "outputs": [
        {
          "internalType": "uint256",
          "name": "",
          "type": "uint256"
        }
      ],
      "stateMutability": "payable",
      "type": "function"
    },
    {
      "inputs": [
        {
          "internalType": "uint256[]",
          "name": "tokenIds",
          "type": "uint256[]"
        },
        {
          "internalType": "uint256[]",
          "name": "amounts",
          "type": "uint256[]"
        }
      ],
      "name": "buyIngredients",
      "outputs": [],
      "stateMutability": "payable",
      "type": "function"
    },
    {
      "inputs": [],
      "name": "ingredientsContractAddress",
      "outputs": [
        {
          "internalType": "address",
          "name": "",
          "type": "address"
        }
      ],
      "stateMutability": "view",
      "type": "function"
    },
    {
      "inputs": [
        {
          "internalType": "address",
          "name": "addr",
          "type": "address"
        },
        {
          "internalType": "uint256",
          "name": "payoutBlock",
          "type": "uint256"
        }
      ],
      "name": "isPaidOutForBlock",
      "outputs": [
        {
          "internalType": "bool",
          "name": "",
          "type": "bool"
        }
      ],
      "stateMutability": "view",
      "type": "function"
    },
    {
      "inputs": [],
      "name": "mintingOn",
      "outputs": [
        {
          "internalType": "bool",
          "name": "",
          "type": "bool"
        }
      ],
      "stateMutability": "view",
      "type": "function"
    },
    {
      "inputs": [],
      "name": "owner",
      "outputs": [
        {
          "internalType": "address",
          "name": "",
          "type": "address"
        }
      ],
      "stateMutability": "view",
      "type": "function"
    },
    {
      "inputs": [],
      "name": "pizzaContractAddress",
      "outputs": [
        {
          "internalType": "address",
          "name": "",
          "type": "address"
        }
      ],
      "stateMutability": "view",
      "type": "function"
    },
    {
      "inputs": [],
      "name": "randomBakePrice",
      "outputs": [
        {
          "internalType": "uint256",
          "name": "",
          "type": "uint256"
        }
      ],
      "stateMutability": "view",
      "type": "function"
    },
    {
      "inputs": [
        {
          "internalType": "uint256",
          "name": "pizzaTokenId",
          "type": "uint256"
        },
        {
          "internalType": "uint256[]",
          "name": "ingredientTokenIdsToAdd",
          "type": "uint256[]"
        },
        {
          "internalType": "uint256[]",
          "name": "ingredientTokenIdsToRemove",
          "type": "uint256[]"
        }
      ],
      "name": "rebakePizza",
      "outputs": [],
      "stateMutability": "payable",
      "type": "function"
    },
    {
      "inputs": [],
      "name": "rebakePizzaPrice",
      "outputs": [
        {
          "internalType": "uint256",
          "name": "",
          "type": "uint256"
        }
      ],
      "stateMutability": "view",
      "type": "function"
    },
    {
      "inputs": [
        {
          "components": [
            {
              "internalType": "uint256",
              "name": "payoutBlock",
              "type": "uint256"
            },
            {
              "internalType": "uint256",
              "name": "amount",
              "type": "uint256"
            },
            {
              "internalType": "bytes32",
              "name": "r",
              "type": "bytes32"
            },
            {
              "internalType": "bytes32",
              "name": "s",
              "type": "bytes32"
            },
            {
              "internalType": "uint8",
              "name": "v",
              "type": "uint8"
            }
          ],
          "internalType": "struct LazlosPizzaShop.Payout[]",
          "name": "payouts",
          "type": "tuple[]"
        }
      ],
      "name": "redeemPayout",
      "outputs": [],
      "stateMutability": "nonpayable",
      "type": "function"
    },
    {
      "inputs": [],
      "name": "renounceOwnership",
      "outputs": [],
      "stateMutability": "nonpayable",
      "type": "function"
    },
    {
      "inputs": [
        {
          "internalType": "bool",
          "name": "on",
          "type": "bool"
        }
      ],
      "name": "setBakeRandomPizzaOn",
      "outputs": [],
      "stateMutability": "nonpayable",
      "type": "function"
    },
    {
      "inputs": [
        {
          "internalType": "address",
          "name": "addr",
          "type": "address"
        }
      ],
      "name": "setIngredientsContractAddress",
      "outputs": [],
      "stateMutability": "nonpayable",
      "type": "function"
    },
    {
      "inputs": [
        {
          "internalType": "bool",
          "name": "on",
          "type": "bool"
        }
      ],
      "name": "setMintingOn",
      "outputs": [],
      "stateMutability": "nonpayable",
      "type": "function"
    },
    {
      "inputs": [
        {
          "internalType": "address",
          "name": "addr",
          "type": "address"
        }
      ],
      "name": "setPizzaContractAddress",
      "outputs": [],
      "stateMutability": "nonpayable",
      "type": "function"
    },
    {
      "inputs": [
        {
          "internalType": "address",
          "name": "addr",
          "type": "address"
        }
      ],
      "name": "setSystemAddress",
      "outputs": [],
      "stateMutability": "nonpayable",
      "type": "function"
    },
    {
      "inputs": [
        {
          "internalType": "address",
          "name": "newOwner",
          "type": "address"
        }
      ],
      "name": "transferOwnership",
      "outputs": [],
      "stateMutability": "nonpayable",
      "type": "function"
    },
    {
      "inputs": [
        {
          "internalType": "uint256",
          "name": "pizzaTokenId",
          "type": "uint256"
        }
      ],
      "name": "unbakePizza",
      "outputs": [],
      "stateMutability": "payable",
      "type": "function"
    },
    {
      "inputs": [],
      "name": "unbakePizzaPrice",
      "outputs": [
        {
          "internalType": "uint256",
          "name": "",
          "type": "uint256"
        }
      ],
      "stateMutability": "view",
      "type": "function"
    },
    {
      "inputs": [
        {
          "internalType": "bytes32",
          "name": "messageHash",
          "type": "bytes32"
        },
        {
          "internalType": "bytes32",
          "name": "r",
          "type": "bytes32"
        },
        {
          "internalType": "bytes32",
          "name": "s",
          "type": "bytes32"
        },
        {
          "internalType": "uint8",
          "name": "v",
          "type": "uint8"
        }
      ],
      "name": "verifySignature",
      "outputs": [
        {
          "internalType": "address",
          "name": "",
          "type": "address"
        }
      ],
      "stateMutability": "pure",
      "type": "function"
    }
  ],
  "bytecode": "0x60806040526001600260006101000a81548160ff0219169083151502179055506001600260016101000a81548160ff021916908315150217905550662386f26fc1000060035566b1a2bc2ec50000600455662386f26fc1000060055566b1a2bc2ec500006006553480156200007357600080fd5b506200009462000088620000a160201b60201c565b620000a960201b60201c565b600180819055506200016d565b600033905090565b60008060009054906101000a900473ffffffffffffffffffffffffffffffffffffffff169050816000806101000a81548173ffffffffffffffffffffffffffffffffffffffff021916908373ffffffffffffffffffffffffffffffffffffffff1602179055508173ffffffffffffffffffffffffffffffffffffffff168173ffffffffffffffffffffffffffffffffffffffff167f8be0079c531659141344cd1fd0a4f28419497f9722a3daafe3b4186f6b6457e060405160405180910390a35050565b615ea6806200017d6000396000f3fe6080604052600436106101b75760003560e01c80638da5cb5b116100ec578063d8c766061161008a578063ecf4fdb111610064578063ecf4fdb1146105c9578063f0993b8f146105f4578063f2fde38b1461061f578063fb52c24e14610648576101b7565b8063d8c7660614610560578063da27a12c14610577578063dec18fd2146105a0576101b7565b8063bbb96999116100c6578063bbb96999146104b8578063c2136172146104e1578063c664822b1461050c578063d5e2e31c14610537576101b7565b80638da5cb5b146104415780639fd18cd71461046c578063af881a4d14610488576101b7565b806335e54cff1161015957806358df79c71161013357806358df79c714610397578063626f0008146103c2578063715018a6146103ff578063870bc0d914610416576101b7565b806335e54cff146102f2578063506cf1861461031d57806352d3b7b71461035a576101b7565b80631a933b9c116101955780631a933b9c1461023e5780631c4ed2dd146102675780631fdda526146102975780632dfa4c98146102c7576101b7565b806306210197146101bc57806306e375f4146101e55780630d413d6214610201575b600080fd5b3480156101c857600080fd5b506101e360048036038101906101de9190613ce9565b610664565b005b6101ff60048036038101906101fa9190613ea5565b610724565b005b34801561020d57600080fd5b5061022860048036038101906102239190613f9f565b610de4565b6040516102359190614015565b60405180910390f35b34801561024a57600080fd5b5061026560048036038101906102609190614189565b610ead565b005b610281600480360381019061027c91906141d2565b6111f0565b60405161028e9190614278565b60405180910390f35b6102b160048036038101906102ac9190614293565b611643565b6040516102be9190614278565b60405180910390f35b3480156102d357600080fd5b506102dc61173f565b6040516102e991906142f7565b60405180910390f35b3480156102fe57600080fd5b50610307611752565b6040516103149190614278565b60405180910390f35b34801561032957600080fd5b50610344600480360381019061033f9190613ce9565b611758565b6040516103519190614278565b60405180910390f35b34801561036657600080fd5b50610381600480360381019061037c9190613ce9565b61196b565b60405161038e9190614278565b60405180910390f35b3480156103a357600080fd5b506103ac611a1a565b6040516103b99190614278565b60405180910390f35b3480156103ce57600080fd5b506103e960048036038101906103e49190614312565b611a20565b6040516103f691906142f7565b60405180910390f35b34801561040b57600080fd5b50610414611a88565b005b34801561042257600080fd5b5061042b611b10565b6040516104389190614015565b60405180910390f35b34801561044d57600080fd5b50610456611b36565b6040516104639190614015565b60405180910390f35b61048660048036038101906104819190614352565b611b5f565b005b6104a2600480360381019061049d9190614293565b611f1f565b6040516104af9190614278565b60405180910390f35b3480156104c457600080fd5b506104df60048036038101906104da9190613ce9565b6121f7565b005b3480156104ed57600080fd5b506104f66122b7565b6040516105039190614278565b60405180910390f35b34801561051857600080fd5b506105216122bd565b60405161052e9190614278565b60405180910390f35b34801561054357600080fd5b5061055e600480360381019061055991906143f6565b6122c3565b005b34801561056c57600080fd5b5061057561235c565b005b34801561058357600080fd5b5061059e60048036038101906105999190613ce9565b6124c4565b005b3480156105ac57600080fd5b506105c760048036038101906105c291906143f6565b612584565b005b3480156105d557600080fd5b506105de61261d565b6040516105eb9190614015565b60405180910390f35b34801561060057600080fd5b50610609612643565b60405161061691906142f7565b60405180910390f35b34801561062b57600080fd5b5061064660048036038101906106419190613ce9565b612656565b005b610662600480360381019061065d9190614423565b61274e565b005b61066c612deb565b73ffffffffffffffffffffffffffffffffffffffff1661068a611b36565b73ffffffffffffffffffffffffffffffffffffffff16146106e0576040517f08c379a00000000000000000000000000000000000000000000000000000000081526004016106d7906144ad565b60405180910390fd5b80600960006101000a81548173ffffffffffffffffffffffffffffffffffffffff021916908373ffffffffffffffffffffffffffffffffffffffff16021790555050565b6002600154141561076a576040517f08c379a000000000000000000000000000000000000000000000000000000000815260040161076190614519565b60405180910390fd5b6002600181905550600260009054906101000a900460ff166107c1576040517f08c379a00000000000000000000000000000000000000000000000000000000081526004016107b890614585565b60405180910390fd5b6005543414610805576040517f08c379a00000000000000000000000000000000000000000000000000000000081526004016107fc906145f1565b60405180910390fd5b6000600760009054906101000a900473ffffffffffffffffffffffffffffffffffffffff1673ffffffffffffffffffffffffffffffffffffffff16630aa71aa0856040518263ffffffff1660e01b81526004016108629190614278565b6101a06040518083038186803b15801561087b57600080fd5b505afa15801561088f573d6000803e3d6000fd5b505050506040513d601f19601f820116820180604052508101906108b3919061483b565b905060005b8251811015610dc85760008382815181106108d6576108d5614869565b5b602002602001015190506000600860009054906101000a900473ffffffffffffffffffffffffffffffffffffffff1673ffffffffffffffffffffffffffffffffffffffff1663c5fd9c6f836040518263ffffffff1660e01b815260040161093d9190614278565b60006040518083038186803b15801561095557600080fd5b505afa158015610969573d6000803e3d6000fd5b505050506040513d6000823e3d601f19601f820116820180604052508101906109929190614a7c565b9050600060048111156109a8576109a7614ac5565b5b816020015160048111156109bf576109be614ac5565b5b14156109df576000846000019061ffff16908161ffff1681525050610db9565b600160048111156109f3576109f2614ac5565b5b81602001516004811115610a0a57610a09614ac5565b5b1415610a2a576000846020019061ffff16908161ffff1681525050610db8565b60026004811115610a3e57610a3d614ac5565b5b81602001516004811115610a5557610a54614ac5565b5b1415610b45576000610a65613bbd565b6000805b6003811015610af357600088604001518260038110610a8b57610a8a614869565b5b602002015161ffff1690506000811415610aa55750610af3565b868114610ae05780848460038110610ac057610abf614869565b5b602002019061ffff16908161ffff16815250508280600101935050610ae5565b600194505b818060010192505050610a69565b5082610b34576040517f08c379a0000000000000000000000000000000000000000000000000000000008152600401610b2b90614b66565b60405180910390fd5b818760400181905250505050610db7565b60036004811115610b5957610b58614ac5565b5b81602001516004811115610b7057610b6f614ac5565b5b1415610c60576000610b80613bdf565b6000805b6004811015610c0e57600088606001518260048110610ba657610ba5614869565b5b602002015161ffff1690506000811415610bc05750610c0e565b868114610bfb5780848460048110610bdb57610bda614869565b5b602002019061ffff16908161ffff16815250508280600101935050610c00565b600194505b818060010192505050610b84565b5082610c4f576040517f08c379a0000000000000000000000000000000000000000000000000000000008152600401610c4690614bf8565b60405180910390fd5b818760600181905250505050610db6565b600480811115610c7357610c72614ac5565b5b81602001516004811115610c8a57610c89614ac5565b5b1415610d7a576000610c9a613bdf565b6000805b6004811015610d2857600088608001518260048110610cc057610cbf614869565b5b602002015161ffff1690506000811415610cda5750610d28565b868114610d155780848460048110610cf557610cf4614869565b5b602002019061ffff16908161ffff16815250508280600101935050610d1a565b600194505b818060010192505050610c9e565b5082610d69576040517f08c379a0000000000000000000000000000000000000000000000000000000008152600401610d6090614c8a565b60405180910390fd5b818760800181905250505050610db5565b6040517f08c379a0000000000000000000000000000000000000000000000000000000008152600401610dac90614cf6565b60405180910390fd5b5b5b5b5b828060010193505050506108b8565b50610dd68482856001612df3565b505060018081905550505050565b6000806040518060400160405280601c81526020017f19457468657265756d205369676e6564204d6573736167653a0a333200000000815250905060008187604051602001610e34929190614d7e565b604051602081830303815290604052905060008180519060200120905060018186898960405160008152602001604052604051610e749493929190614dc4565b6020604051602081039080840390855afa158015610e96573d6000803e3d6000fd5b505050602060405103519350505050949350505050565b60026001541415610ef3576040517f08c379a0000000000000000000000000000000000000000000000000000000008152600401610eea90614519565b60405180910390fd5b600260018190555060005b81518110156111e5576000828281518110610f1c57610f1b614869565b5b6020026020010151905060008160000151338360200151604051602001610f4593929190614e72565b6040516020818303038152906040528051906020012090506000610f7782846040015185606001518660800151610de4565b90506000600960009054906101000a900473ffffffffffffffffffffffffffffffffffffffff1673ffffffffffffffffffffffffffffffffffffffff168273ffffffffffffffffffffffffffffffffffffffff161490508061100e576040517f08c379a000000000000000000000000000000000000000000000000000000000815260040161100590614efb565b60405180910390fd5b600b60008560000151815260200190815260200160002060003373ffffffffffffffffffffffffffffffffffffffff1673ffffffffffffffffffffffffffffffffffffffff16815260200190815260200160002060009054906101000a900460ff16156110b0576040517f08c379a00000000000000000000000000000000000000000000000000000000081526004016110a790614f8d565b60405180910390fd5b6001600b60008660000151815260200190815260200160002060003373ffffffffffffffffffffffffffffffffffffffff1673ffffffffffffffffffffffffffffffffffffffff16815260200190815260200160002060006101000a81548160ff02191690831515021790555060003373ffffffffffffffffffffffffffffffffffffffff16856020015160405161114790614fd3565b60006040518083038185875af1925050503d8060008114611184576040519150601f19603f3d011682016040523d82523d6000602084013e611189565b606091505b50509050806111cd576040517f08c379a00000000000000000000000000000000000000000000000000000000081526004016111c490615034565b60405180910390fd5b505050505080806111dd90615083565b915050610efe565b506001808190555050565b600060026001541415611238576040517f08c379a000000000000000000000000000000000000000000000000000000000815260040161122f90614519565b60405180910390fd5b6002600181905550600260009054906101000a900460ff1661128f576040517f08c379a000000000000000000000000000000000000000000000000000000000815260040161128690614585565b60405180910390fd5b600260019054906101000a900460ff166112de576040517f08c379a00000000000000000000000000000000000000000000000000000000081526004016112d590615118565b60405180910390fd5b3460065414611322576040517f08c379a0000000000000000000000000000000000000000000000000000000008152600401611319906145f1565b60405180910390fd5b61012c85426113319190615138565b10611371576040517f08c379a0000000000000000000000000000000000000000000000000000000008152600401611368906151b8565b60405180910390fd5b600033868860405160200161138893929190615290565b60405160208183030381529060405280519060200120905060006113ae82878787610de4565b90506000600960009054906101000a900473ffffffffffffffffffffffffffffffffffffffff1673ffffffffffffffffffffffffffffffffffffffff168273ffffffffffffffffffffffffffffffffffffffff1614905080611445576040517f08c379a000000000000000000000000000000000000000000000000000000000815260040161143c90614efb565b60405180910390fd5b6000600354905060005b8a518110156116215760008b828151811061146d5761146c614869565b5b602002602001015190506000600860009054906101000a900473ffffffffffffffffffffffffffffffffffffffff1673ffffffffffffffffffffffffffffffffffffffff1663c5fd9c6f836040518263ffffffff1660e01b81526004016114d49190614278565b60006040518083038186803b1580156114ec57600080fd5b505afa158015611500573d6000803e3d6000fd5b505050506040513d6000823e3d601f19601f820116820180604052508101906115299190614a7c565b9050600181608001511015611573576040517f08c379a000000000000000000000000000000000000000000000000000000000815260040161156a90615315565b60405180910390fd5b600860009054906101000a900473ffffffffffffffffffffffffffffffffffffffff1673ffffffffffffffffffffffffffffffffffffffff1663d872712b8360016040518363ffffffff1660e01b81526004016115d192919061537a565b600060405180830381600087803b1580156115eb57600080fd5b505af11580156115ff573d6000803e3d6000fd5b505050508060600151840193505050808061161990615083565b91505061144f565b5061162d8a600061387f565b9450505050506001808190555095945050505050565b60006002600154141561168b576040517f08c379a000000000000000000000000000000000000000000000000000000000815260040161168290614519565b60405180910390fd5b6002600181905550600260009054906101000a900460ff166116e2576040517f08c379a00000000000000000000000000000000000000000000000000000000081526004016116d990614585565b60405180910390fd5b6003543414611726576040517f08c379a000000000000000000000000000000000000000000000000000000000815260040161171d906145f1565b60405180910390fd5b61173182600161387f565b905060018081905550919050565b600260019054906101000a900460ff1681565b60065481565b600080600860009054906101000a900473ffffffffffffffffffffffffffffffffffffffff1673ffffffffffffffffffffffffffffffffffffffff1663ed81bb706040518163ffffffff1660e01b815260040160206040518083038186803b1580156117c357600080fd5b505afa1580156117d7573d6000803e3d6000fd5b505050506040513d601f19601f820116820180604052508101906117fb91906153a3565b9050600080600190505b828111611960576000600860009054906101000a900473ffffffffffffffffffffffffffffffffffffffff1673ffffffffffffffffffffffffffffffffffffffff1663c5fd9c6f836040518263ffffffff1660e01b81526004016118699190614278565b60006040518083038186803b15801561188157600080fd5b505afa158015611895573d6000803e3d6000fd5b505050506040513d6000823e3d601f19601f820116820180604052508101906118be9190614a7c565b90508573ffffffffffffffffffffffffffffffffffffffff16816040015173ffffffffffffffffffffffffffffffffffffffff16146118fd575061194d565b600081608001518260a001516119139190615138565b9050600082606001518261192791906153d0565b90506000600a826119389190615459565b90508086611946919061548a565b9550505050505b808061195890615083565b915050611805565b508092505050919050565b60008061197783611758565b90506000600a60008573ffffffffffffffffffffffffffffffffffffffff1673ffffffffffffffffffffffffffffffffffffffff1681526020019081526020016000205490508082116119ff576040517f08c379a00000000000000000000000000000000000000000000000000000000081526004016119f690615552565b60405180910390fd5b60008183611a0d9190615138565b9050809350505050919050565b60055481565b6000600b600083815260200190815260200160002060008473ffffffffffffffffffffffffffffffffffffffff1673ffffffffffffffffffffffffffffffffffffffff16815260200190815260200160002060009054906101000a900460ff16905092915050565b611a90612deb565b73ffffffffffffffffffffffffffffffffffffffff16611aae611b36565b73ffffffffffffffffffffffffffffffffffffffff1614611b04576040517f08c379a0000000000000000000000000000000000000000000000000000000008152600401611afb906144ad565b60405180910390fd5b611b0e600061389f565b565b600860009054906101000a900473ffffffffffffffffffffffffffffffffffffffff1681565b60008060009054906101000a900473ffffffffffffffffffffffffffffffffffffffff16905090565b60026001541415611ba5576040517f08c379a0000000000000000000000000000000000000000000000000000000008152600401611b9c90614519565b60405180910390fd5b6002600181905550600260009054906101000a900460ff16611bfc576040517f08c379a0000000000000000000000000000000000000000000000000000000008152600401611bf390614585565b60405180910390fd5b600080600090505b8351811015611e3f576000848281518110611c2257611c21614869565b5b602002602001015190506000848381518110611c4157611c40614869565b5b602002602001015190506000600860009054906101000a900473ffffffffffffffffffffffffffffffffffffffff1673ffffffffffffffffffffffffffffffffffffffff1663c5fd9c6f846040518263ffffffff1660e01b8152600401611ca89190614278565b60006040518083038186803b158015611cc057600080fd5b505afa158015611cd4573d6000803e3d6000fd5b505050506040513d6000823e3d601f19601f82011682018060405250810190611cfd9190614a7c565b905060008160000151511415611d48576040517f08c379a0000000000000000000000000000000000000000000000000000000008152600401611d3f906155be565b60405180910390fd5b8181608001511015611d8f576040517f08c379a0000000000000000000000000000000000000000000000000000000008152600401611d869061562a565b60405180910390fd5b600860009054906101000a900473ffffffffffffffffffffffffffffffffffffffff1673ffffffffffffffffffffffffffffffffffffffff1663d872712b84846040518363ffffffff1660e01b8152600401611dec92919061564a565b600060405180830381600087803b158015611e0657600080fd5b505af1158015611e1a573d6000803e3d6000fd5b5050505081816060015102850194505050508080611e3790615083565b915050611c04565b50348114611e82576040517f08c379a0000000000000000000000000000000000000000000000000000000008152600401611e79906145f1565b60405180910390fd5b600860009054906101000a900473ffffffffffffffffffffffffffffffffffffffff1673ffffffffffffffffffffffffffffffffffffffff1663b5571ed43385856040518463ffffffff1660e01b8152600401611ee193929190615709565b600060405180830381600087803b158015611efb57600080fd5b505af1158015611f0f573d6000803e3d6000fd5b5050505050600180819055505050565b600060026001541415611f67576040517f08c379a0000000000000000000000000000000000000000000000000000000008152600401611f5e90614519565b60405180910390fd5b6002600181905550600260009054906101000a900460ff16611fbe576040517f08c379a0000000000000000000000000000000000000000000000000000000008152600401611fb590614585565b60405180910390fd5b6000600354905060005b835181101561219a576000848281518110611fe657611fe5614869565b5b602002602001015190506000600860009054906101000a900473ffffffffffffffffffffffffffffffffffffffff1673ffffffffffffffffffffffffffffffffffffffff1663c5fd9c6f836040518263ffffffff1660e01b815260040161204d9190614278565b60006040518083038186803b15801561206557600080fd5b505afa158015612079573d6000803e3d6000fd5b505050506040513d6000823e3d601f19601f820116820180604052508101906120a29190614a7c565b90506001816080015110156120ec576040517f08c379a00000000000000000000000000000000000000000000000000000000081526004016120e390615315565b60405180910390fd5b600860009054906101000a900473ffffffffffffffffffffffffffffffffffffffff1673ffffffffffffffffffffffffffffffffffffffff1663d872712b8360016040518363ffffffff1660e01b815260040161214a92919061537a565b600060405180830381600087803b15801561216457600080fd5b505af1158015612178573d6000803e3d6000fd5b505050508060600151840193505050808061219290615083565b915050611fc8565b503481146121dd576040517f08c379a00000000000000000000000000000000000000000000000000000000081526004016121d4906145f1565b60405180910390fd5b6121e883600061387f565b91505060018081905550919050565b6121ff612deb565b73ffffffffffffffffffffffffffffffffffffffff1661221d611b36565b73ffffffffffffffffffffffffffffffffffffffff1614612273576040517f08c379a000000000000000000000000000000000000000000000000000000000815260040161226a906144ad565b60405180910390fd5b80600860006101000a81548173ffffffffffffffffffffffffffffffffffffffff021916908373ffffffffffffffffffffffffffffffffffffffff16021790555050565b60045481565b60035481565b6122cb612deb565b73ffffffffffffffffffffffffffffffffffffffff166122e9611b36565b73ffffffffffffffffffffffffffffffffffffffff161461233f576040517f08c379a0000000000000000000000000000000000000000000000000000000008152600401612336906144ad565b60405180910390fd5b80600260016101000a81548160ff02191690831515021790555050565b600260015414156123a2576040517f08c379a000000000000000000000000000000000000000000000000000000000815260040161239990614519565b60405180910390fd5b600260018190555060006123b53361196b565b905080600a60003373ffffffffffffffffffffffffffffffffffffffff1673ffffffffffffffffffffffffffffffffffffffff1681526020019081526020016000206000828254612406919061548a565b9250508190555060003373ffffffffffffffffffffffffffffffffffffffff168260405161243390614fd3565b60006040518083038185875af1925050503d8060008114612470576040519150601f19603f3d011682016040523d82523d6000602084013e612475565b606091505b50509050806124b9576040517f08c379a00000000000000000000000000000000000000000000000000000000081526004016124b090615034565b60405180910390fd5b505060018081905550565b6124cc612deb565b73ffffffffffffffffffffffffffffffffffffffff166124ea611b36565b73ffffffffffffffffffffffffffffffffffffffff1614612540576040517f08c379a0000000000000000000000000000000000000000000000000000000008152600401612537906144ad565b60405180910390fd5b80600760006101000a81548173ffffffffffffffffffffffffffffffffffffffff021916908373ffffffffffffffffffffffffffffffffffffffff16021790555050565b61258c612deb565b73ffffffffffffffffffffffffffffffffffffffff166125aa611b36565b73ffffffffffffffffffffffffffffffffffffffff1614612600576040517f08c379a00000000000000000000000000000000000000000000000000000000081526004016125f7906144ad565b60405180910390fd5b80600260006101000a81548160ff02191690831515021790555050565b600760009054906101000a900473ffffffffffffffffffffffffffffffffffffffff1681565b600260009054906101000a900460ff1681565b61265e612deb565b73ffffffffffffffffffffffffffffffffffffffff1661267c611b36565b73ffffffffffffffffffffffffffffffffffffffff16146126d2576040517f08c379a00000000000000000000000000000000000000000000000000000000081526004016126c9906144ad565b60405180910390fd5b600073ffffffffffffffffffffffffffffffffffffffff168173ffffffffffffffffffffffffffffffffffffffff161415612742576040517f08c379a0000000000000000000000000000000000000000000000000000000008152600401612739906157c0565b60405180910390fd5b61274b8161389f565b50565b60026001541415612794576040517f08c379a000000000000000000000000000000000000000000000000000000000815260040161278b90614519565b60405180910390fd5b6002600181905550600260009054906101000a900460ff166127eb576040517f08c379a00000000000000000000000000000000000000000000000000000000081526004016127e290614585565b60405180910390fd5b600454341461282f576040517f08c379a0000000000000000000000000000000000000000000000000000000008152600401612826906145f1565b60405180910390fd5b6000600760009054906101000a900473ffffffffffffffffffffffffffffffffffffffff1673ffffffffffffffffffffffffffffffffffffffff16630aa71aa0836040518263ffffffff1660e01b815260040161288c9190614278565b6101a06040518083038186803b1580156128a557600080fd5b505afa1580156128b9573d6000803e3d6000fd5b505050506040513d601f19601f820116820180604052508101906128dd919061483b565b90506000600390506000600190505b600381101561293d5760008360400151826003811061290e5761290d614869565b5b602002015161ffff1614156129225761293d565b818061292d90615083565b92505080806001019150506128ec565b5060005b60048110156129925760008360600151826004811061296357612962614869565b5b602002015161ffff16141561297757612992565b818061298290615083565b9250508080600101915050612941565b5060005b60048110156129e7576000836080015182600481106129b8576129b7614869565b5b602002015161ffff1614156129cc576129e7565b81806129d790615083565b9250508080600101915050612996565b5060008167ffffffffffffffff811115612a0457612a03613d62565b5b604051908082528060200260200182016040528015612a325781602001602082028036833780820191505090505b509050826000015161ffff1681600081518110612a5257612a51614869565b5b602002602001018181525050826020015161ffff1681600181518110612a7b57612a7a614869565b5b60200260200101818152505060006002905060005b6003811015612b1a57600085604001518260038110612ab257612ab1614869565b5b602002015161ffff161415612ac657612b1a565b84604001518160038110612add57612adc614869565b5b602002015161ffff16838381518110612af957612af8614869565b5b60200260200101818152505081806001019250508080600101915050612a90565b5060005b6004811015612ba857600085606001518260048110612b4057612b3f614869565b5b602002015161ffff161415612b5457612ba8565b84606001518160048110612b6b57612b6a614869565b5b602002015161ffff16838381518110612b8757612b86614869565b5b60200260200101818152505081806001019250508080600101915050612b1e565b5060005b6004811015612c3657600085608001518260048110612bce57612bcd614869565b5b602002015161ffff161415612be257612c36565b84608001518160048110612bf957612bf8614869565b5b602002015161ffff16838381518110612c1557612c14614869565b5b60200260200101818152505081806001019250508080600101915050612bac565b5060008367ffffffffffffffff811115612c5357612c52613d62565b5b604051908082528060200260200182016040528015612c815781602001602082028036833780820191505090505b50905060005b84811015612cbd576001828281518110612ca457612ca3614869565b5b6020026020010181815250508080600101915050612c87565b50600860009054906101000a900473ffffffffffffffffffffffffffffffffffffffff1673ffffffffffffffffffffffffffffffffffffffff1663b5571ed43385846040518463ffffffff1660e01b8152600401612d1d93929190615709565b600060405180830381600087803b158015612d3757600080fd5b505af1158015612d4b573d6000803e3d6000fd5b50505050600760009054906101000a900473ffffffffffffffffffffffffffffffffffffffff1673ffffffffffffffffffffffffffffffffffffffff166342966c68876040518263ffffffff1660e01b8152600401612daa9190614278565b600060405180830381600087803b158015612dc457600080fd5b505af1158015612dd8573d6000803e3d6000fd5b5050505050505050506001808190555050565b600033905090565b6000612dfd613c01565b60008614612f355760005b8560400151506003811015612e6957600086604001518260038110612e3057612e2f614869565b5b602002015161ffff161415612e4457612e69565b81600001805180919060010161ffff1661ffff16815250508080600101915050612e08565b5060005b8560600151506004811015612ece57600086606001518260048110612e9557612e94614869565b5b602002015161ffff161415612ea957612ece565b81602001805180919060010161ffff1661ffff16815250508080600101915050612e6d565b5060005b8560800151506004811015612f3357600086608001518260048110612efa57612ef9614869565b5b602002015161ffff161415612f0e57612f33565b81604001805180919060010161ffff1661ffff16815250508080600101915050612ed2565b505b6000845167ffffffffffffffff811115612f5257612f51613d62565b5b604051908082528060200260200182016040528015612f805781602001602082028036833780820191505090505b50905060005b8551811015613581576000868281518110612fa457612fa3614869565b5b6020026020010151905085156130aa576000600860009054906101000a900473ffffffffffffffffffffffffffffffffffffffff1673ffffffffffffffffffffffffffffffffffffffff166345adc21033846040518363ffffffff1660e01b81526004016130139291906157e0565b60206040518083038186803b15801561302b57600080fd5b505afa15801561303f573d6000803e3d6000fd5b505050506040513d601f19601f8201168201806040525081019061306391906153a3565b9050600081116130a8576040517f08c379a000000000000000000000000000000000000000000000000000000000815260040161309f90615855565b60405180910390fd5b505b6000600860009054906101000a900473ffffffffffffffffffffffffffffffffffffffff1673ffffffffffffffffffffffffffffffffffffffff1663c5fd9c6f836040518263ffffffff1660e01b81526004016131079190614278565b60006040518083038186803b15801561311f57600080fd5b505afa158015613133573d6000803e3d6000fd5b505050506040513d6000823e3d601f19601f8201168201806040525081019061315c9190614a7c565b90506000600481111561317257613171614ac5565b5b8160200151600481111561318957613188614ac5565b5b14156131f3576000896000015161ffff16146131da576040517f08c379a00000000000000000000000000000000000000000000000000000000081526004016131d1906158c1565b60405180910390fd5b81896000019061ffff16908161ffff1681525050613551565b6001600481111561320757613206614ac5565b5b8160200151600481111561321e5761321d614ac5565b5b1415613288576000896020015161ffff161461326f576040517f08c379a00000000000000000000000000000000000000000000000000000000081526004016132669061592d565b60405180910390fd5b81896020019061ffff16908161ffff1681525050613550565b6002600481111561329c5761329b614ac5565b5b816020015160048111156132b3576132b2614ac5565b5b14156133615784600001805180919060010161ffff1661ffff16815250506003856000015161ffff16111561331d576040517f08c379a000000000000000000000000000000000000000000000000000000000815260040161331490615999565b60405180910390fd5b8189604001516001876000015161333491906159b9565b61ffff166003811061334957613348614869565b5b602002019061ffff16908161ffff168152505061354f565b6003600481111561337557613374614ac5565b5b8160200151600481111561338c5761338b614ac5565b5b141561343a5784602001805180919060010161ffff1661ffff16815250506004856020015161ffff1611156133f6576040517f08c379a00000000000000000000000000000000000000000000000000000000081526004016133ed90615a39565b60405180910390fd5b8189606001516001876020015161340d91906159b9565b61ffff166004811061342257613421614869565b5b602002019061ffff16908161ffff168152505061354e565b60048081111561344d5761344c614ac5565b5b8160200151600481111561346457613463614ac5565b5b14156135125784604001805180919060010161ffff1661ffff16815250506004856040015161ffff1611156134ce576040517f08c379a00000000000000000000000000000000000000000000000000000000081526004016134c590615aa5565b60405180910390fd5b818960800151600187604001516134e591906159b9565b61ffff16600481106134fa576134f9614869565b5b602002019061ffff16908161ffff168152505061354d565b6040517f08c379a000000000000000000000000000000000000000000000000000000000815260040161354490614cf6565b60405180910390fd5b5b5b5b5b600184848151811061356657613565614869565b5b60200260200101818152505082806001019350505050612f86565b506000866000015161ffff1614156135ce576040517f08c379a00000000000000000000000000000000000000000000000000000000081526004016135c590615b11565b60405180910390fd5b6000866020015161ffff16141561361a576040517f08c379a000000000000000000000000000000000000000000000000000000000815260040161361190615b7d565b60405180910390fd5b6000866040015160006003811061363457613633614869565b5b602002015161ffff16141561367e576040517f08c379a000000000000000000000000000000000000000000000000000000000815260040161367590615be9565b60405180910390fd5b61368786613963565b831561371f57600860009054906101000a900473ffffffffffffffffffffffffffffffffffffffff1673ffffffffffffffffffffffffffffffffffffffff166313a5e9c53387846040518463ffffffff1660e01b81526004016136ec93929190615709565b600060405180830381600087803b15801561370657600080fd5b505af115801561371a573d6000803e3d6000fd5b505050505b60008714156137e057600760009054906101000a900473ffffffffffffffffffffffffffffffffffffffff1673ffffffffffffffffffffffffffffffffffffffff1663ea131c2833886040518363ffffffff1660e01b8152600401613785929190615da2565b602060405180830381600087803b15801561379f57600080fd5b505af11580156137b3573d6000803e3d6000fd5b505050506040513d601f19601f820116820180604052508101906137d791906153a3565b92505050613877565b600760009054906101000a900473ffffffffffffffffffffffffffffffffffffffff1673ffffffffffffffffffffffffffffffffffffffff1663fd9f80053389896040518463ffffffff1660e01b815260040161383f93929190615dcc565b600060405180830381600087803b15801561385957600080fd5b505af115801561386d573d6000803e3d6000fd5b5050505086925050505b949350505050565b6000613889613c2e565b6138966000828686612df3565b91505092915050565b60008060009054906101000a900473ffffffffffffffffffffffffffffffffffffffff169050816000806101000a81548173ffffffffffffffffffffffffffffffffffffffff021916908373ffffffffffffffffffffffffffffffffffffffff1602179055508173ffffffffffffffffffffffffffffffffffffffff168173ffffffffffffffffffffffffffffffffffffffff167f8be0079c531659141344cd1fd0a4f28419497f9722a3daafe3b4186f6b6457e060405160405180910390a35050565b613970816040015161398d565b61397d8160600151613aa5565b61398a8160800151613aa5565b50565b60005b6003811015613aa15760008282600381106139ae576139ad614869565b5b602002015161ffff1614156139c257613aa1565b60005b6003811015613a935760008382600381106139e3576139e2614869565b5b602002015161ffff1614156139f757613a93565b80821415613a0c578080600101915050613a8e565b828160038110613a1f57613a1e614869565b5b602002015161ffff16838360038110613a3b57613a3a614869565b5b602002015161ffff161415613a85576040517f08c379a0000000000000000000000000000000000000000000000000000000008152600401613a7c90615e50565b60405180910390fd5b80806001019150505b6139c5565b508080600101915050613990565b5050565b60005b6004811015613bb9576000828260048110613ac657613ac5614869565b5b602002015161ffff161415613ada57613bb9565b60005b6004811015613bab576000838260048110613afb57613afa614869565b5b602002015161ffff161415613b0f57613bab565b80821415613b24578080600101915050613ba6565b828160048110613b3757613b36614869565b5b602002015161ffff16838360048110613b5357613b52614869565b5b602002015161ffff161415613b9d576040517f08c379a0000000000000000000000000000000000000000000000000000000008152600401613b9490615e50565b60405180910390fd5b80806001019150505b613add565b508080600101915050613aa8565b5050565b6040518060600160405280600390602082028036833780820191505090505090565b6040518060800160405280600490602082028036833780820191505090505090565b6040518060600160405280600061ffff168152602001600061ffff168152602001600061ffff1681525090565b6040518060a00160405280600061ffff168152602001600061ffff168152602001613c57613bbd565b8152602001613c64613bdf565b8152602001613c71613bdf565b81525090565b6000604051905090565b600080fd5b600080fd5b600073ffffffffffffffffffffffffffffffffffffffff82169050919050565b6000613cb682613c8b565b9050919050565b613cc681613cab565b8114613cd157600080fd5b50565b600081359050613ce381613cbd565b92915050565b600060208284031215613cff57613cfe613c81565b5b6000613d0d84828501613cd4565b91505092915050565b6000819050919050565b613d2981613d16565b8114613d3457600080fd5b50565b600081359050613d4681613d20565b92915050565b600080fd5b6000601f19601f8301169050919050565b7f4e487b7100000000000000000000000000000000000000000000000000000000600052604160045260246000fd5b613d9a82613d51565b810181811067ffffffffffffffff82111715613db957613db8613d62565b5b80604052505050565b6000613dcc613c77565b9050613dd88282613d91565b919050565b600067ffffffffffffffff821115613df857613df7613d62565b5b602082029050602081019050919050565b600080fd5b6000613e21613e1c84613ddd565b613dc2565b90508083825260208201905060208402830185811115613e4457613e43613e09565b5b835b81811015613e6d5780613e598882613d37565b845260208401935050602081019050613e46565b5050509392505050565b600082601f830112613e8c57613e8b613d4c565b5b8135613e9c848260208601613e0e565b91505092915050565b600080600060608486031215613ebe57613ebd613c81565b5b6000613ecc86828701613d37565b935050602084013567ffffffffffffffff811115613eed57613eec613c86565b5b613ef986828701613e77565b925050604084013567ffffffffffffffff811115613f1a57613f19613c86565b5b613f2686828701613e77565b9150509250925092565b6000819050919050565b613f4381613f30565b8114613f4e57600080fd5b50565b600081359050613f6081613f3a565b92915050565b600060ff82169050919050565b613f7c81613f66565b8114613f8757600080fd5b50565b600081359050613f9981613f73565b92915050565b60008060008060808587031215613fb957613fb8613c81565b5b6000613fc787828801613f51565b9450506020613fd887828801613f51565b9350506040613fe987828801613f51565b9250506060613ffa87828801613f8a565b91505092959194509250565b61400f81613cab565b82525050565b600060208201905061402a6000830184614006565b92915050565b600067ffffffffffffffff82111561404b5761404a613d62565b5b602082029050602081019050919050565b600080fd5b600080fd5b600060a0828403121561407c5761407b61405c565b5b61408660a0613dc2565b9050600061409684828501613d37565b60008301525060206140aa84828501613d37565b60208301525060406140be84828501613f51565b60408301525060606140d284828501613f51565b60608301525060806140e684828501613f8a565b60808301525092915050565b600061410561410084614030565b613dc2565b90508083825260208201905060a0840283018581111561412857614127613e09565b5b835b81811015614151578061413d8882614066565b84526020840193505060a08101905061412a565b5050509392505050565b600082601f8301126141705761416f613d4c565b5b81356141808482602086016140f2565b91505092915050565b60006020828403121561419f5761419e613c81565b5b600082013567ffffffffffffffff8111156141bd576141bc613c86565b5b6141c98482850161415b565b91505092915050565b600080600080600060a086880312156141ee576141ed613c81565b5b600086013567ffffffffffffffff81111561420c5761420b613c86565b5b61421888828901613e77565b955050602061422988828901613d37565b945050604061423a88828901613f51565b935050606061424b88828901613f51565b925050608061425c88828901613f8a565b9150509295509295909350565b61427281613d16565b82525050565b600060208201905061428d6000830184614269565b92915050565b6000602082840312156142a9576142a8613c81565b5b600082013567ffffffffffffffff8111156142c7576142c6613c86565b5b6142d384828501613e77565b91505092915050565b60008115159050919050565b6142f1816142dc565b82525050565b600060208201905061430c60008301846142e8565b92915050565b6000806040838503121561432957614328613c81565b5b600061433785828601613cd4565b925050602061434885828601613d37565b9150509250929050565b6000806040838503121561436957614368613c81565b5b600083013567ffffffffffffffff81111561438757614386613c86565b5b61439385828601613e77565b925050602083013567ffffffffffffffff8111156143b4576143b3613c86565b5b6143c085828601613e77565b9150509250929050565b6143d3816142dc565b81146143de57600080fd5b50565b6000813590506143f0816143ca565b92915050565b60006020828403121561440c5761440b613c81565b5b600061441a848285016143e1565b91505092915050565b60006020828403121561443957614438613c81565b5b600061444784828501613d37565b91505092915050565b600082825260208201905092915050565b7f4f776e61626c653a2063616c6c6572206973206e6f7420746865206f776e6572600082015250565b6000614497602083614450565b91506144a282614461565b602082019050919050565b600060208201905081810360008301526144c68161448a565b9050919050565b7f5265656e7472616e637947756172643a207265656e7472616e742063616c6c00600082015250565b6000614503601f83614450565b915061450e826144cd565b602082019050919050565b60006020820190508181036000830152614532816144f6565b9050919050565b7f6d696e74696e67206d757374206265206f6e0000000000000000000000000000600082015250565b600061456f601283614450565b915061457a82614539565b602082019050919050565b6000602082019050818103600083015261459e81614562565b9050919050565b7f496e76616c69642070726963652e000000000000000000000000000000000000600082015250565b60006145db600e83614450565b91506145e6826145a5565b602082019050919050565b6000602082019050818103600083015261460a816145ce565b9050919050565b600061ffff82169050919050565b61462881614611565b811461463357600080fd5b50565b6000815190506146458161461f565b92915050565b600067ffffffffffffffff82111561466657614665613d62565b5b602082029050919050565b600061468461467f8461464b565b613dc2565b9050806020840283018581111561469e5761469d613e09565b5b835b818110156146c757806146b38882614636565b8452602084019350506020810190506146a0565b5050509392505050565b600082601f8301126146e6576146e5613d4c565b5b60036146f3848285614671565b91505092915050565b600067ffffffffffffffff82111561471757614716613d62565b5b602082029050919050565b6000614735614730846146fc565b613dc2565b9050806020840283018581111561474f5761474e613e09565b5b835b8181101561477857806147648882614636565b845260208401935050602081019050614751565b5050509392505050565b600082601f83011261479757614796613d4c565b5b60046147a4848285614722565b91505092915050565b60006101a082840312156147c4576147c361405c565b5b6147ce60a0613dc2565b905060006147de84828501614636565b60008301525060206147f284828501614636565b6020830152506040614806848285016146d1565b60408301525060a061481a84828501614782565b60608301525061012061482f84828501614782565b60808301525092915050565b60006101a0828403121561485257614851613c81565b5b6000614860848285016147ad565b91505092915050565b7f4e487b7100000000000000000000000000000000000000000000000000000000600052603260045260246000fd5b600080fd5b600067ffffffffffffffff8211156148b8576148b7613d62565b5b6148c182613d51565b9050602081019050919050565b60005b838110156148ec5780820151818401526020810190506148d1565b838111156148fb576000848401525b50505050565b600061491461490f8461489d565b613dc2565b9050828152602081018484840111156149305761492f614898565b5b61493b8482856148ce565b509392505050565b600082601f83011261495857614957613d4c565b5b8151614968848260208601614901565b91505092915050565b6005811061497e57600080fd5b50565b60008151905061499081614971565b92915050565b6000815190506149a581613cbd565b92915050565b6000815190506149ba81613d20565b92915050565b600060c082840312156149d6576149d561405c565b5b6149e060c0613dc2565b9050600082015167ffffffffffffffff811115614a00576149ff614061565b5b614a0c84828501614943565b6000830152506020614a2084828501614981565b6020830152506040614a3484828501614996565b6040830152506060614a48848285016149ab565b6060830152506080614a5c848285016149ab565b60808301525060a0614a70848285016149ab565b60a08301525092915050565b600060208284031215614a9257614a91613c81565b5b600082015167ffffffffffffffff811115614ab057614aaf613c86565b5b614abc848285016149c0565b91505092915050565b7f4e487b7100000000000000000000000000000000000000000000000000000000600052602160045260246000fd5b7f436f756c64206e6f742066696e642063686565736520746f2062652072656d6f60008201527f7665642e00000000000000000000000000000000000000000000000000000000602082015250565b6000614b50602483614450565b9150614b5b82614af4565b604082019050919050565b60006020820190508181036000830152614b7f81614b43565b9050919050565b7f436f756c64206e6f742066696e64206d65617420746f2062652072656d6f766560008201527f642e000000000000000000000000000000000000000000000000000000000000602082015250565b6000614be2602283614450565b9150614bed82614b86565b604082019050919050565b60006020820190508181036000830152614c1181614bd5565b9050919050565b7f436f756c64206e6f742066696e6420746f7070696e6720746f2062652072656d60008201527f6f7665642e000000000000000000000000000000000000000000000000000000602082015250565b6000614c74602583614450565b9150614c7f82614c18565b604082019050919050565b60006020820190508181036000830152614ca381614c67565b9050919050565b7f496e76616c696420696e6772656469656e7420747970652e0000000000000000600082015250565b6000614ce0601883614450565b9150614ceb82614caa565b602082019050919050565b60006020820190508181036000830152614d0f81614cd3565b9050919050565b600081519050919050565b600081905092915050565b6000614d3782614d16565b614d418185614d21565b9350614d518185602086016148ce565b80840191505092915050565b6000819050919050565b614d78614d7382613f30565b614d5d565b82525050565b6000614d8a8285614d2c565b9150614d968284614d67565b6020820191508190509392505050565b614daf81613f30565b82525050565b614dbe81613f66565b82525050565b6000608082019050614dd96000830187614da6565b614de66020830186614db5565b614df36040830185614da6565b614e006060830184614da6565b95945050505050565b6000819050919050565b614e24614e1f82613d16565b614e09565b82525050565b60008160601b9050919050565b6000614e4282614e2a565b9050919050565b6000614e5482614e37565b9050919050565b614e6c614e6782613cab565b614e49565b82525050565b6000614e7e8286614e13565b602082019150614e8e8285614e5b565b601482019150614e9e8284614e13565b602082019150819050949350505050565b7f496e76616c6964207369676e61747572652e0000000000000000000000000000600082015250565b6000614ee5601283614450565b9150614ef082614eaf565b602082019050919050565b60006020820190508181036000830152614f1481614ed8565b9050919050565b7f4164647265737320616c7265616479206265656e207061696420666f7220746860008201527f697320626c6f636b2e0000000000000000000000000000000000000000000000602082015250565b6000614f77602983614450565b9150614f8282614f1b565b604082019050919050565b60006020820190508181036000830152614fa681614f6a565b9050919050565b50565b6000614fbd600083614d21565b9150614fc882614fad565b600082019050919050565b6000614fde82614fb0565b9150819050919050565b7f5769746864726177616c206661696c65642e0000000000000000000000000000600082015250565b600061501e601283614450565b915061502982614fe8565b602082019050919050565b6000602082019050818103600083015261504d81615011565b9050919050565b7f4e487b7100000000000000000000000000000000000000000000000000000000600052601160045260246000fd5b600061508e82613d16565b91507fffffffffffffffffffffffffffffffffffffffffffffffffffffffffffffffff8214156150c1576150c0615054565b5b600182019050919050565b7f62616b6552616e646f6d50697a7a61206d757374206265206f6e000000000000600082015250565b6000615102601a83614450565b915061510d826150cc565b602082019050919050565b60006020820190508181036000830152615131816150f5565b9050919050565b600061514382613d16565b915061514e83613d16565b92508282101561516157615160615054565b5b828203905092915050565b7f74696d657374616d702065787069726564000000000000000000000000000000600082015250565b60006151a2601183614450565b91506151ad8261516c565b602082019050919050565b600060208201905081810360008301526151d181615195565b9050919050565b600081519050919050565b600081905092915050565b6000819050602082019050919050565b61520781613d16565b82525050565b600061521983836151fe565b60208301905092915050565b6000602082019050919050565b600061523d826151d8565b61524781856151e3565b9350615252836151ee565b8060005b8381101561528357815161526a888261520d565b975061527583615225565b925050600181019050615256565b5085935050505092915050565b600061529c8286614e5b565b6014820191506152ac8285614e13565b6020820191506152bc8284615232565b9150819050949350505050565b7f496e6772656469656e7420736f6c64206f75742e000000000000000000000000600082015250565b60006152ff601483614450565b915061530a826152c9565b602082019050919050565b6000602082019050818103600083015261532e816152f2565b9050919050565b6000819050919050565b6000819050919050565b600061536461535f61535a84615335565b61533f565b613d16565b9050919050565b61537481615349565b82525050565b600060408201905061538f6000830185614269565b61539c602083018461536b565b9392505050565b6000602082840312156153b9576153b8613c81565b5b60006153c7848285016149ab565b91505092915050565b60006153db82613d16565b91506153e683613d16565b9250817fffffffffffffffffffffffffffffffffffffffffffffffffffffffffffffffff048311821515161561541f5761541e615054565b5b828202905092915050565b7f4e487b7100000000000000000000000000000000000000000000000000000000600052601260045260246000fd5b600061546482613d16565b915061546f83613d16565b92508261547f5761547e61542a565b5b828204905092915050565b600061549582613d16565b91506154a083613d16565b9250827fffffffffffffffffffffffffffffffffffffffffffffffffffffffffffffffff038211156154d5576154d4615054565b5b828201905092915050565b7f4861736e2774206561726e656420616e79206d6f726520636f6d6d697373696f60008201527f6e2e000000000000000000000000000000000000000000000000000000000000602082015250565b600061553c602283614450565b9150615547826154e0565b604082019050919050565b6000602082019050818103600083015261556b8161552f565b9050919050565b7f496e6772656469656e7420646f6573206e6f7420657869737400000000000000600082015250565b60006155a8601983614450565b91506155b382615572565b602082019050919050565b600060208201905081810360008301526155d78161559b565b9050919050565b7f4e6f7420656e6f75676820696e6772656469656e74206c6566746f7665722e00600082015250565b6000615614601f83614450565b915061561f826155de565b602082019050919050565b6000602082019050818103600083015261564381615607565b9050919050565b600060408201905061565f6000830185614269565b61566c6020830184614269565b9392505050565b600082825260208201905092915050565b61568d81613d16565b82525050565b600061569f8383615684565b60208301905092915050565b60006156b6826151d8565b6156c08185615673565b93506156cb836151ee565b8060005b838110156156fc5781516156e38882615693565b97506156ee83615225565b9250506001810190506156cf565b5085935050505092915050565b600060608201905061571e6000830186614006565b818103602083015261573081856156ab565b9050818103604083015261574481846156ab565b9050949350505050565b7f4f776e61626c653a206e6577206f776e657220697320746865207a65726f206160008201527f6464726573730000000000000000000000000000000000000000000000000000602082015250565b60006157aa602683614450565b91506157b58261574e565b604082019050919050565b600060208201905081810360008301526157d98161579d565b9050919050565b60006040820190506157f56000830185614006565b6158026020830184614269565b9392505050565b7f4d697373696e6720696e6772656469656e742e00000000000000000000000000600082015250565b600061583f601383614450565b915061584a82615809565b602082019050919050565b6000602082019050818103600083015261586e81615832565b9050919050565b7f43616e6e6f7420757365206d6f7265207468616e203120626173652e00000000600082015250565b60006158ab601c83614450565b91506158b682615875565b602082019050919050565b600060208201905081810360008301526158da8161589e565b9050919050565b7f43616e6e6f7420757365206d6f7265207468616e20312073617563652e000000600082015250565b6000615917601d83614450565b9150615922826158e1565b602082019050919050565b600060208201905081810360008301526159468161590a565b9050919050565b7f43616e6e6f7420757365206d6f7265207468616e203320636865657365732e00600082015250565b6000615983601f83614450565b915061598e8261594d565b602082019050919050565b600060208201905081810360008301526159b281615976565b9050919050565b60006159c482614611565b91506159cf83614611565b9250828210156159e2576159e1615054565b5b828203905092915050565b7f43616e6e6f7420757365206d6f7265207468616e2034206d656174732e000000600082015250565b6000615a23601d83614450565b9150615a2e826159ed565b602082019050919050565b60006020820190508181036000830152615a5281615a16565b9050919050565b7f43616e6e6f7420757365206d6f7265207468616e203420746f7070696e67732e600082015250565b6000615a8f602083614450565b9150615a9a82615a59565b602082019050919050565b60006020820190508181036000830152615abe81615a82565b9050919050565b7f4120626173652069732072657175697265642e00000000000000000000000000600082015250565b6000615afb601383614450565b9150615b0682615ac5565b602082019050919050565b60006020820190508181036000830152615b2a81615aee565b9050919050565b7f412073617563652069732072657175697265642e000000000000000000000000600082015250565b6000615b67601483614450565b9150615b7282615b31565b602082019050919050565b60006020820190508181036000830152615b9681615b5a565b9050919050565b7f4174206c65617374206f6e65206368656573652069732072657175697265642e600082015250565b6000615bd3602083614450565b9150615bde82615b9d565b602082019050919050565b60006020820190508181036000830152615c0281615bc6565b9050919050565b615c1281614611565b82525050565b600060039050919050565b600081905092915050565b6000819050919050565b6000615c448383615c09565b60208301905092915050565b6000602082019050919050565b615c6681615c18565b615c708184615c23565b9250615c7b82615c2e565b8060005b83811015615cac578151615c938782615c38565b9650615c9e83615c50565b925050600181019050615c7f565b505050505050565b600060049050919050565b600081905092915050565b6000819050919050565b6000602082019050919050565b615cea81615cb4565b615cf48184615cbf565b9250615cff82615cca565b8060005b83811015615d30578151615d178782615c38565b9650615d2283615cd4565b925050600181019050615d03565b505050505050565b6101a082016000820151615d4f6000850182615c09565b506020820151615d626020850182615c09565b506040820151615d756040850182615c5d565b506060820151615d8860a0850182615ce1565b506080820151615d9c610120850182615ce1565b50505050565b60006101c082019050615db86000830185614006565b615dc56020830184615d38565b9392505050565b60006101e082019050615de26000830186614006565b615def6020830185614269565b615dfc6040830184615d38565b949350505050565b7f4e6f206475706c696361746520696e6772656469656e74732e00000000000000600082015250565b6000615e3a601983614450565b9150615e4582615e04565b602082019050919050565b60006020820190508181036000830152615e6981615e2d565b905091905056fea26469706673582212202920aae5cf786f5f2871674a7d3ebfa8e74646bf1e6094354edf57945bc4c2ca64736f6c63430008090033",
  "linkReferences": {},
  "deployedLinkReferences": {}
}