{
    "_format": "hh-sol-artifact-1",
    "contractName": "LazlosIngredients",
    "sourceName": "contracts/LazlosIngredients.sol",
    "abi": [
        {
            "anonymous": false,
            "inputs": [
                {
                    "indexed": true,
                    "internalType": "address",
                    "name": "owner",
                    "type": "address"
                },
                {
                    "indexed": true,
                    "internalType": "address",
                    "name": "operator",
                    "type": "address"
                },
                {
                    "indexed": false,
                    "internalType": "bool",
                    "name": "approved",
                    "type": "bool"
                }
            ],
            "name": "ApprovalForAll",
            "type": "event"
        },
        {
            "anonymous": false,
            "inputs": [
                {
                    "indexed": true,
                    "internalType": "address",
                    "name": "previousOwner",
                    "type": "address"
                },
                {
                    "indexed": true,
                    "internalType": "address",
                    "name": "newOwner",
                    "type": "address"
                }
            ],
            "name": "OwnershipTransferred",
            "type": "event"
        },
        {
            "anonymous": false,
            "inputs": [
                {
                    "indexed": true,
                    "internalType": "address",
                    "name": "operator",
                    "type": "address"
                },
                {
                    "indexed": true,
                    "internalType": "address",
                    "name": "from",
                    "type": "address"
                },
                {
                    "indexed": true,
                    "internalType": "address",
                    "name": "to",
                    "type": "address"
                },
                {
                    "indexed": false,
                    "internalType": "uint256[]",
                    "name": "ids",
                    "type": "uint256[]"
                },
                {
                    "indexed": false,
                    "internalType": "uint256[]",
                    "name": "amounts",
                    "type": "uint256[]"
                }
            ],
            "name": "TransferBatch",
            "type": "event"
        },
        {
            "anonymous": false,
            "inputs": [
                {
                    "indexed": true,
                    "internalType": "address",
                    "name": "operator",
                    "type": "address"
                },
                {
                    "indexed": true,
                    "internalType": "address",
                    "name": "from",
                    "type": "address"
                },
                {
                    "indexed": true,
                    "internalType": "address",
                    "name": "to",
                    "type": "address"
                },
                {
                    "indexed": false,
                    "internalType": "uint256",
                    "name": "id",
                    "type": "uint256"
                },
                {
                    "indexed": false,
                    "internalType": "uint256",
                    "name": "amount",
                    "type": "uint256"
                }
            ],
            "name": "TransferSingle",
            "type": "event"
        },
        {
            "anonymous": false,
            "inputs": [
                {
                    "indexed": false,
                    "internalType": "string",
                    "name": "value",
                    "type": "string"
                },
                {
                    "indexed": true,
                    "internalType": "uint256",
                    "name": "id",
                    "type": "uint256"
                }
            ],
            "name": "URI",
            "type": "event"
        },
        {
            "inputs": [
                {
                    "components": [
                        {
                            "internalType": "string",
                            "name": "name",
                            "type": "string"
                        },
                        {
                            "internalType": "enum IngredientType",
                            "name": "ingredientType",
                            "type": "uint8"
                        },
                        {
                            "internalType": "address",
                            "name": "artist",
                            "type": "address"
                        },
                        {
                            "internalType": "uint256",
                            "name": "price",
                            "type": "uint256"
                        },
                        {
                            "internalType": "uint256",
                            "name": "supply",
                            "type": "uint256"
                        },
                        {
                            "internalType": "uint256",
                            "name": "initialSupply",
                            "type": "uint256"
                        }
                    ],
                    "internalType": "struct Ingredient",
                    "name": "ingredient",
                    "type": "tuple"
                }
            ],
            "name": "addIngredient",
            "outputs": [],
            "stateMutability": "nonpayable",
            "type": "function"
        },
        {
            "inputs": [
                {
                    "internalType": "address",
                    "name": "",
                    "type": "address"
                },
                {
                    "internalType": "uint256",
                    "name": "",
                    "type": "uint256"
                }
            ],
            "name": "balanceOf",
            "outputs": [
                {
                    "internalType": "uint256",
                    "name": "",
                    "type": "uint256"
                }
            ],
            "stateMutability": "view",
            "type": "function"
        },
        {
            "inputs": [
                {
                    "internalType": "address",
                    "name": "addr",
                    "type": "address"
                },
                {
                    "internalType": "uint256",
                    "name": "tokenId",
                    "type": "uint256"
                }
            ],
            "name": "balanceOfAddress",
            "outputs": [
                {
                    "internalType": "uint256",
                    "name": "",
                    "type": "uint256"
                }
            ],
            "stateMutability": "view",
            "type": "function"
        },
        {
            "inputs": [
                {
                    "internalType": "address[]",
                    "name": "owners",
                    "type": "address[]"
                },
                {
                    "internalType": "uint256[]",
                    "name": "ids",
                    "type": "uint256[]"
                }
            ],
            "name": "balanceOfBatch",
            "outputs": [
                {
                    "internalType": "uint256[]",
                    "name": "balances",
                    "type": "uint256[]"
                }
            ],
            "stateMutability": "view",
            "type": "function"
        },
        {
            "inputs": [
                {
                    "internalType": "address",
                    "name": "addr",
                    "type": "address"
                },
                {
                    "internalType": "uint256[]",
                    "name": "tokenIds",
                    "type": "uint256[]"
                },
                {
                    "internalType": "uint256[]",
                    "name": "amounts",
                    "type": "uint256[]"
                }
            ],
            "name": "burnIngredients",
            "outputs": [],
            "stateMutability": "nonpayable",
            "type": "function"
        },
        {
            "inputs": [
                {
                    "internalType": "uint256",
                    "name": "tokenId",
                    "type": "uint256"
                },
                {
                    "internalType": "uint256",
                    "name": "amount",
                    "type": "uint256"
                }
            ],
            "name": "decreaseIngredientSupply",
            "outputs": [],
            "stateMutability": "nonpayable",
            "type": "function"
        },
        {
            "inputs": [
                {
                    "internalType": "uint256",
                    "name": "tokenId",
                    "type": "uint256"
                }
            ],
            "name": "getIngredient",
            "outputs": [
                {
                    "components": [
                        {
                            "internalType": "string",
                            "name": "name",
                            "type": "string"
                        },
                        {
                            "internalType": "enum IngredientType",
                            "name": "ingredientType",
                            "type": "uint8"
                        },
                        {
                            "internalType": "address",
                            "name": "artist",
                            "type": "address"
                        },
                        {
                            "internalType": "uint256",
                            "name": "price",
                            "type": "uint256"
                        },
                        {
                            "internalType": "uint256",
                            "name": "supply",
                            "type": "uint256"
                        },
                        {
                            "internalType": "uint256",
                            "name": "initialSupply",
                            "type": "uint256"
                        }
                    ],
                    "internalType": "struct Ingredient",
                    "name": "",
                    "type": "tuple"
                }
            ],
            "stateMutability": "view",
            "type": "function"
        },
        {
            "inputs": [],
            "name": "getNumIngredients",
            "outputs": [
                {
                    "internalType": "uint256",
                    "name": "",
                    "type": "uint256"
                }
            ],
            "stateMutability": "view",
            "type": "function"
        },
        {
            "inputs": [
                {
                    "internalType": "uint256",
                    "name": "tokenId",
                    "type": "uint256"
                },
                {
                    "internalType": "uint256",
                    "name": "amount",
                    "type": "uint256"
                }
            ],
            "name": "increaseIngredientSupply",
            "outputs": [],
            "stateMutability": "nonpayable",
            "type": "function"
        },
        {
            "inputs": [
                {
                    "internalType": "uint256",
                    "name": "",
                    "type": "uint256"
                }
            ],
            "name": "ingredients",
            "outputs": [
                {
                    "internalType": "string",
                    "name": "name",
                    "type": "string"
                },
                {
                    "internalType": "enum IngredientType",
                    "name": "ingredientType",
                    "type": "uint8"
                },
                {
                    "internalType": "address",
                    "name": "artist",
                    "type": "address"
                },
                {
                    "internalType": "uint256",
                    "name": "price",
                    "type": "uint256"
                },
                {
                    "internalType": "uint256",
                    "name": "supply",
                    "type": "uint256"
                },
                {
                    "internalType": "uint256",
                    "name": "initialSupply",
                    "type": "uint256"
                }
            ],
            "stateMutability": "view",
            "type": "function"
        },
        {
            "inputs": [
                {
                    "internalType": "address",
                    "name": "",
                    "type": "address"
                },
                {
                    "internalType": "address",
                    "name": "",
                    "type": "address"
                }
            ],
            "name": "isApprovedForAll",
            "outputs": [
                {
                    "internalType": "bool",
                    "name": "",
                    "type": "bool"
                }
            ],
            "stateMutability": "view",
            "type": "function"
        },
        {
            "inputs": [
                {
                    "internalType": "address",
                    "name": "addr",
                    "type": "address"
                },
                {
                    "internalType": "uint256[]",
                    "name": "tokenIds",
                    "type": "uint256[]"
                },
                {
                    "internalType": "uint256[]",
                    "name": "amounts",
                    "type": "uint256[]"
                }
            ],
            "name": "mintIngredients",
            "outputs": [],
            "stateMutability": "nonpayable",
            "type": "function"
        },
        {
            "inputs": [],
            "name": "numIngredients",
            "outputs": [
                {
                    "internalType": "uint256",
                    "name": "_value",
                    "type": "uint256"
                }
            ],
            "stateMutability": "view",
            "type": "function"
        },
        {
            "inputs": [],
            "name": "owner",
            "outputs": [
                {
                    "internalType": "address",
                    "name": "",
                    "type": "address"
                }
            ],
            "stateMutability": "view",
            "type": "function"
        },
        {
            "inputs": [],
            "name": "pizzaShopContractAddress",
            "outputs": [
                {
                    "internalType": "address",
                    "name": "",
                    "type": "address"
                }
            ],
            "stateMutability": "view",
            "type": "function"
        },
        {
            "inputs": [],
            "name": "renderingContractAddress",
            "outputs": [
                {
                    "internalType": "address",
                    "name": "",
                    "type": "address"
                }
            ],
            "stateMutability": "view",
            "type": "function"
        },
        {
            "inputs": [],
            "name": "renounceOwnership",
            "outputs": [],
            "stateMutability": "nonpayable",
            "type": "function"
        },
        {
            "inputs": [
                {
                    "internalType": "address",
                    "name": "from",
                    "type": "address"
                },
                {
                    "internalType": "address",
                    "name": "to",
                    "type": "address"
                },
                {
                    "internalType": "uint256[]",
                    "name": "ids",
                    "type": "uint256[]"
                },
                {
                    "internalType": "uint256[]",
                    "name": "amounts",
                    "type": "uint256[]"
                },
                {
                    "internalType": "bytes",
                    "name": "data",
                    "type": "bytes"
                }
            ],
            "name": "safeBatchTransferFrom",
            "outputs": [],
            "stateMutability": "nonpayable",
            "type": "function"
        },
        {
            "inputs": [
                {
                    "internalType": "address",
                    "name": "from",
                    "type": "address"
                },
                {
                    "internalType": "address",
                    "name": "to",
                    "type": "address"
                },
                {
                    "internalType": "uint256",
                    "name": "id",
                    "type": "uint256"
                },
                {
                    "internalType": "uint256",
                    "name": "amount",
                    "type": "uint256"
                },
                {
                    "internalType": "bytes",
                    "name": "data",
                    "type": "bytes"
                }
            ],
            "name": "safeTransferFrom",
            "outputs": [],
            "stateMutability": "nonpayable",
            "type": "function"
        },
        {
            "inputs": [
                {
                    "internalType": "address",
                    "name": "operator",
                    "type": "address"
                },
                {
                    "internalType": "bool",
                    "name": "approved",
                    "type": "bool"
                }
            ],
            "name": "setApprovalForAll",
            "outputs": [],
            "stateMutability": "nonpayable",
            "type": "function"
        },
        {
            "inputs": [
                {
                    "internalType": "address",
                    "name": "addr",
                    "type": "address"
                }
            ],
            "name": "setPizzaShopContractAddress",
            "outputs": [],
            "stateMutability": "nonpayable",
            "type": "function"
        },
        {
            "inputs": [
                {
                    "internalType": "address",
                    "name": "addr",
                    "type": "address"
                }
            ],
            "name": "setRenderingContractAddress",
            "outputs": [],
            "stateMutability": "nonpayable",
            "type": "function"
        },
        {
            "inputs": [
                {
                    "internalType": "bytes4",
                    "name": "interfaceId",
                    "type": "bytes4"
                }
            ],
            "name": "supportsInterface",
            "outputs": [
                {
                    "internalType": "bool",
                    "name": "",
                    "type": "bool"
                }
            ],
            "stateMutability": "view",
            "type": "function"
        },
        {
            "inputs": [
                {
                    "internalType": "address",
                    "name": "newOwner",
                    "type": "address"
                }
            ],
            "name": "transferOwnership",
            "outputs": [],
            "stateMutability": "nonpayable",
            "type": "function"
        },
        {
            "inputs": [
                {
                    "internalType": "uint256",
                    "name": "id",
                    "type": "uint256"
                }
            ],
            "name": "uri",
            "outputs": [
                {
                    "internalType": "string",
                    "name": "",
                    "type": "string"
                }
            ],
            "stateMutability": "view",
            "type": "function"
        }
    ],
    "bytecode": "0x60806040523480156200001157600080fd5b5062000032620000266200003860201b60201c565b6200004060201b60201c565b62000106565b600033905090565b6000600260009054906101000a900473ffffffffffffffffffffffffffffffffffffffff16905081600260006101000a81548173ffffffffffffffffffffffffffffffffffffffff021916908373ffffffffffffffffffffffffffffffffffffffff1602179055508173ffffffffffffffffffffffffffffffffffffffff168173ffffffffffffffffffffffffffffffffffffffff167f8be0079c531659141344cd1fd0a4f28419497f9722a3daafe3b4186f6b6457e060405160405180910390a35050565b61374980620001166000396000f3fe608060405234801561001057600080fd5b50600436106101725760003560e01c8063715018a6116100de578063c5fd9c6f11610097578063e985e9c511610071578063e985e9c51461044a578063ed81bb701461047a578063f242432a14610498578063f2fde38b146104b457610172565b8063c5fd9c6f146103e2578063cdbaa12714610412578063d872712b1461042e57610172565b8063715018a614610346578063795c0a4b146103505780638da5cb5b1461036e578063a22cb4651461038c578063b5571ed4146103a8578063c074f412146103c457610172565b80632d165382116101305780632d1653821461025b5780632eb2c2d61461029057806342237b95146102ac57806345adc210146102c85780634e1273f4146102f8578063520d27e71461032857610172565b8062fdd58e1461017757806301ffc9a7146101a75780630452d8ed146101d75780630e89341c146101f357806312b40a9f1461022357806313a5e9c51461023f575b600080fd5b610191600480360381019061018c91906122d2565b6104d0565b60405161019e9190612321565b60405180910390f35b6101c160048036038101906101bc9190612394565b6104f5565b6040516101ce91906123dc565b60405180910390f35b6101f160048036038101906101ec91906123f7565b610587565b005b61020d60048036038101906102089190612424565b610647565b60405161021a91906124ea565b60405180910390f35b61023d600480360381019061023891906123f7565b610700565b005b61025960048036038101906102549190612654565b6107c0565b005b61027560048036038101906102709190612424565b610860565b60405161028796959493929190612765565b60405180910390f35b6102aa60048036038101906102a59190612882565b610951565b005b6102c660048036038101906102c19190612951565b610db0565b005b6102e260048036038101906102dd91906122d2565b610ea5565b6040516102ef9190612321565b60405180910390f35b610312600480360381019061030d9190612a54565b610eff565b60405161031f9190612b8a565b60405180910390f35b610330611056565b60405161033d9190612321565b60405180910390f35b61034e611062565b005b6103586110ea565b6040516103659190612bac565b60405180910390f35b610376611110565b6040516103839190612bac565b60405180910390f35b6103a660048036038101906103a19190612bf3565b61113a565b005b6103c260048036038101906103bd9190612654565b611237565b005b6103cc6112e7565b6040516103d99190612bac565b60405180910390f35b6103fc60048036038101906103f79190612424565b61130d565b6040516104099190612d24565b60405180910390f35b61042c60048036038101906104279190612ed2565b61147b565b005b61044860048036038101906104439190612951565b6115dc565b005b610464600480360381019061045f9190612f1b565b6116d1565b60405161047191906123dc565b60405180910390f35b610482611700565b60405161048f9190612321565b60405180910390f35b6104b260048036038101906104ad9190612f5b565b611711565b005b6104ce60048036038101906104c991906123f7565b611ad0565b005b6000602052816000526040600020602052806000526040600020600091509150505481565b60006301ffc9a760e01b827bffffffffffffffffffffffffffffffffffffffffffffffffffffffff19161480610550575063d9b67a2660e01b827bffffffffffffffffffffffffffffffffffffffffffffffffffffffff1916145b806105805750630e89341c60e01b827bffffffffffffffffffffffffffffffffffffffffffffffffffffffff1916145b9050919050565b61058f611bc8565b73ffffffffffffffffffffffffffffffffffffffff166105ad611110565b73ffffffffffffffffffffffffffffffffffffffff1614610603576040517f08c379a00000000000000000000000000000000000000000000000000000000081526004016105fa9061303e565b60405180910390fd5b80600560006101000a81548173ffffffffffffffffffffffffffffffffffffffff021916908373ffffffffffffffffffffffffffffffffffffffff16021790555050565b6060600660009054906101000a900473ffffffffffffffffffffffffffffffffffffffff1673ffffffffffffffffffffffffffffffffffffffff16638c946016836040518263ffffffff1660e01b81526004016106a49190612321565b60006040518083038186803b1580156106bc57600080fd5b505afa1580156106d0573d6000803e3d6000fd5b505050506040513d6000823e3d601f19601f820116820180604052508101906106f991906130ce565b9050919050565b610708611bc8565b73ffffffffffffffffffffffffffffffffffffffff16610726611110565b73ffffffffffffffffffffffffffffffffffffffff161461077c576040517f08c379a00000000000000000000000000000000000000000000000000000000081526004016107739061303e565b60405180910390fd5b80600660006101000a81548173ffffffffffffffffffffffffffffffffffffffff021916908373ffffffffffffffffffffffffffffffffffffffff16021790555050565b600560009054906101000a900473ffffffffffffffffffffffffffffffffffffffff1673ffffffffffffffffffffffffffffffffffffffff163373ffffffffffffffffffffffffffffffffffffffff1614610850576040517f08c379a000000000000000000000000000000000000000000000000000000000815260040161084790613189565b60405180910390fd5b61085b838383611bd0565b505050565b6004602052806000526040600020600091509050806000018054610883906131d8565b80601f01602080910402602001604051908101604052809291908181526020018280546108af906131d8565b80156108fc5780601f106108d1576101008083540402835291602001916108fc565b820191906000526020600020905b8154815290600101906020018083116108df57829003601f168201915b5050505050908060010160009054906101000a900460ff16908060010160019054906101000a900473ffffffffffffffffffffffffffffffffffffffff16908060020154908060030154908060040154905086565b6000835190508251811461099a576040517f08c379a000000000000000000000000000000000000000000000000000000000815260040161099190613256565b60405180910390fd5b8573ffffffffffffffffffffffffffffffffffffffff163373ffffffffffffffffffffffffffffffffffffffff161480610a5a5750600160008773ffffffffffffffffffffffffffffffffffffffff1673ffffffffffffffffffffffffffffffffffffffff16815260200190815260200160002060003373ffffffffffffffffffffffffffffffffffffffff1673ffffffffffffffffffffffffffffffffffffffff16815260200190815260200160002060009054906101000a900460ff165b610a99576040517f08c379a0000000000000000000000000000000000000000000000000000000008152600401610a90906132c2565b60405180910390fd5b60008060005b83811015610bb857868181518110610aba57610ab96132e2565b5b60200260200101519250858181518110610ad757610ad66132e2565b5b60200260200101519150816000808b73ffffffffffffffffffffffffffffffffffffffff1673ffffffffffffffffffffffffffffffffffffffff16815260200190815260200160002060008581526020019081526020016000206000828254610b409190613340565b92505081905550816000808a73ffffffffffffffffffffffffffffffffffffffff1673ffffffffffffffffffffffffffffffffffffffff16815260200190815260200160002060008581526020019081526020016000206000828254610ba69190613374565b92505081905550806001019050610a9f565b508673ffffffffffffffffffffffffffffffffffffffff168873ffffffffffffffffffffffffffffffffffffffff163373ffffffffffffffffffffffffffffffffffffffff167f4a39dc06d4c0dbc64b70af90fd698a233a518aa5d07e595d983b8c0526c8f7fb8989604051610c2f9291906133ca565b60405180910390a460008773ffffffffffffffffffffffffffffffffffffffff163b14610d355763bc197c8160e01b7bffffffffffffffffffffffffffffffffffffffffffffffffffffffff19168773ffffffffffffffffffffffffffffffffffffffff1663bc197c81338b8a8a8a6040518663ffffffff1660e01b8152600401610cbe959493929190613456565b602060405180830381600087803b158015610cd857600080fd5b505af1158015610cec573d6000803e3d6000fd5b505050506040513d601f19601f82011682018060405250810190610d1091906134d3565b7bffffffffffffffffffffffffffffffffffffffffffffffffffffffff191614610d67565b600073ffffffffffffffffffffffffffffffffffffffff168773ffffffffffffffffffffffffffffffffffffffff1614155b610da6576040517f08c379a0000000000000000000000000000000000000000000000000000000008152600401610d9d9061354c565b60405180910390fd5b5050505050505050565b600560009054906101000a900473ffffffffffffffffffffffffffffffffffffffff1673ffffffffffffffffffffffffffffffffffffffff163373ffffffffffffffffffffffffffffffffffffffff161480610e3e5750610e0f611110565b73ffffffffffffffffffffffffffffffffffffffff163373ffffffffffffffffffffffffffffffffffffffff16145b610e7d576040517f08c379a0000000000000000000000000000000000000000000000000000000008152600401610e74906135de565b60405180910390fd5b8060046000848152602001908152602001600020600301600082825401925050819055505050565b60008060008473ffffffffffffffffffffffffffffffffffffffff1673ffffffffffffffffffffffffffffffffffffffff168152602001908152602001600020600083815260200190815260200160002054905092915050565b606060008351905082518114610f4a576040517f08c379a0000000000000000000000000000000000000000000000000000000008152600401610f4190613256565b60405180910390fd5b8067ffffffffffffffff811115610f6457610f63612511565b5b604051908082528060200260200182016040528015610f925781602001602082028036833780820191505090505b50915060005b8181101561104e57600080868381518110610fb657610fb56132e2565b5b602002602001015173ffffffffffffffffffffffffffffffffffffffff1673ffffffffffffffffffffffffffffffffffffffff168152602001908152602001600020600085838151811061100d5761100c6132e2565b5b6020026020010151815260200190815260200160002054838281518110611037576110366132e2565b5b602002602001018181525050806001019050610f98565b505092915050565b60038060000154905081565b61106a611bc8565b73ffffffffffffffffffffffffffffffffffffffff16611088611110565b73ffffffffffffffffffffffffffffffffffffffff16146110de576040517f08c379a00000000000000000000000000000000000000000000000000000000081526004016110d59061303e565b60405180910390fd5b6110e86000611d4f565b565b600560009054906101000a900473ffffffffffffffffffffffffffffffffffffffff1681565b6000600260009054906101000a900473ffffffffffffffffffffffffffffffffffffffff16905090565b80600160003373ffffffffffffffffffffffffffffffffffffffff1673ffffffffffffffffffffffffffffffffffffffff16815260200190815260200160002060008473ffffffffffffffffffffffffffffffffffffffff1673ffffffffffffffffffffffffffffffffffffffff16815260200190815260200160002060006101000a81548160ff0219169083151502179055508173ffffffffffffffffffffffffffffffffffffffff163373ffffffffffffffffffffffffffffffffffffffff167f17307eab39ab6107e8899845ad3d59bd9653f200f220920489ca2b5937696c318360405161122b91906123dc565b60405180910390a35050565b600560009054906101000a900473ffffffffffffffffffffffffffffffffffffffff1673ffffffffffffffffffffffffffffffffffffffff163373ffffffffffffffffffffffffffffffffffffffff16146112c7576040517f08c379a00000000000000000000000000000000000000000000000000000000081526004016112be90613189565b60405180910390fd5b6112e283838360405180602001604052806000815250611e15565b505050565b600660009054906101000a900473ffffffffffffffffffffffffffffffffffffffff1681565b611315612129565b600460008381526020019081526020016000206040518060c0016040529081600082018054611343906131d8565b80601f016020809104026020016040519081016040528092919081815260200182805461136f906131d8565b80156113bc5780601f10611391576101008083540402835291602001916113bc565b820191906000526020600020905b81548152906001019060200180831161139f57829003601f168201915b505050505081526020016001820160009054906101000a900460ff1660048111156113ea576113e96126df565b5b60048111156113fc576113fb6126df565b5b81526020016001820160019054906101000a900473ffffffffffffffffffffffffffffffffffffffff1673ffffffffffffffffffffffffffffffffffffffff1673ffffffffffffffffffffffffffffffffffffffff16815260200160028201548152602001600382015481526020016004820154815250509050919050565b611483611bc8565b73ffffffffffffffffffffffffffffffffffffffff166114a1611110565b73ffffffffffffffffffffffffffffffffffffffff16146114f7576040517f08c379a00000000000000000000000000000000000000000000000000000000081526004016114ee9061303e565b60405180910390fd5b6115016003612105565b600061150d600361211b565b90508160046000838152602001908152602001600020600082015181600001908051906020019061153f929190612187565b5060208201518160010160006101000a81548160ff0219169083600481111561156b5761156a6126df565b5b021790555060408201518160010160016101000a81548173ffffffffffffffffffffffffffffffffffffffff021916908373ffffffffffffffffffffffffffffffffffffffff160217905550606082015181600201556080820151816003015560a082015181600401559050505050565b600560009054906101000a900473ffffffffffffffffffffffffffffffffffffffff1673ffffffffffffffffffffffffffffffffffffffff163373ffffffffffffffffffffffffffffffffffffffff16148061166a575061163b611110565b73ffffffffffffffffffffffffffffffffffffffff163373ffffffffffffffffffffffffffffffffffffffff16145b6116a9576040517f08c379a00000000000000000000000000000000000000000000000000000000081526004016116a0906135de565b60405180910390fd5b8060046000848152602001908152602001600020600301600082825403925050819055505050565b60016020528160005260406000206020528060005260406000206000915091509054906101000a900460ff1681565b600061170c600361211b565b905090565b8473ffffffffffffffffffffffffffffffffffffffff163373ffffffffffffffffffffffffffffffffffffffff1614806117d15750600160008673ffffffffffffffffffffffffffffffffffffffff1673ffffffffffffffffffffffffffffffffffffffff16815260200190815260200160002060003373ffffffffffffffffffffffffffffffffffffffff1673ffffffffffffffffffffffffffffffffffffffff16815260200190815260200160002060009054906101000a900460ff165b611810576040517f08c379a0000000000000000000000000000000000000000000000000000000008152600401611807906132c2565b60405180910390fd5b816000808773ffffffffffffffffffffffffffffffffffffffff1673ffffffffffffffffffffffffffffffffffffffff1681526020019081526020016000206000858152602001908152602001600020600082825461186f9190613340565b92505081905550816000808673ffffffffffffffffffffffffffffffffffffffff1673ffffffffffffffffffffffffffffffffffffffff168152602001908152602001600020600085815260200190815260200160002060008282546118d59190613374565b925050819055508373ffffffffffffffffffffffffffffffffffffffff168573ffffffffffffffffffffffffffffffffffffffff163373ffffffffffffffffffffffffffffffffffffffff167fc3d58168c5ae7397731d063d5bbf3d657854427343f4c083240f7aacaa2d0f6286866040516119529291906135fe565b60405180910390a460008473ffffffffffffffffffffffffffffffffffffffff163b14611a585763f23a6e6160e01b7bffffffffffffffffffffffffffffffffffffffffffffffffffffffff19168473ffffffffffffffffffffffffffffffffffffffff1663f23a6e6133888787876040518663ffffffff1660e01b81526004016119e1959493929190613627565b602060405180830381600087803b1580156119fb57600080fd5b505af1158015611a0f573d6000803e3d6000fd5b505050506040513d601f19601f82011682018060405250810190611a3391906134d3565b7bffffffffffffffffffffffffffffffffffffffffffffffffffffffff191614611a8a565b600073ffffffffffffffffffffffffffffffffffffffff168473ffffffffffffffffffffffffffffffffffffffff1614155b611ac9576040517f08c379a0000000000000000000000000000000000000000000000000000000008152600401611ac09061354c565b60405180910390fd5b5050505050565b611ad8611bc8565b73ffffffffffffffffffffffffffffffffffffffff16611af6611110565b73ffffffffffffffffffffffffffffffffffffffff1614611b4c576040517f08c379a0000000000000000000000000000000000000000000000000000000008152600401611b439061303e565b60405180910390fd5b600073ffffffffffffffffffffffffffffffffffffffff168173ffffffffffffffffffffffffffffffffffffffff161415611bbc576040517f08c379a0000000000000000000000000000000000000000000000000000000008152600401611bb3906136f3565b60405180910390fd5b611bc581611d4f565b50565b600033905090565b60008251905081518114611c19576040517f08c379a0000000000000000000000000000000000000000000000000000000008152600401611c1090613256565b60405180910390fd5b60005b81811015611cc957828181518110611c3757611c366132e2565b5b60200260200101516000808773ffffffffffffffffffffffffffffffffffffffff1673ffffffffffffffffffffffffffffffffffffffff1681526020019081526020016000206000868481518110611c9257611c916132e2565b5b602002602001015181526020019081526020016000206000828254611cb79190613340565b92505081905550806001019050611c1c565b50600073ffffffffffffffffffffffffffffffffffffffff168473ffffffffffffffffffffffffffffffffffffffff163373ffffffffffffffffffffffffffffffffffffffff167f4a39dc06d4c0dbc64b70af90fd698a233a518aa5d07e595d983b8c0526c8f7fb8686604051611d419291906133ca565b60405180910390a450505050565b6000600260009054906101000a900473ffffffffffffffffffffffffffffffffffffffff16905081600260006101000a81548173ffffffffffffffffffffffffffffffffffffffff021916908373ffffffffffffffffffffffffffffffffffffffff1602179055508173ffffffffffffffffffffffffffffffffffffffff168173ffffffffffffffffffffffffffffffffffffffff167f8be0079c531659141344cd1fd0a4f28419497f9722a3daafe3b4186f6b6457e060405160405180910390a35050565b60008351905082518114611e5e576040517f08c379a0000000000000000000000000000000000000000000000000000000008152600401611e5590613256565b60405180910390fd5b60005b81811015611f0e57838181518110611e7c57611e7b6132e2565b5b60200260200101516000808873ffffffffffffffffffffffffffffffffffffffff1673ffffffffffffffffffffffffffffffffffffffff1681526020019081526020016000206000878481518110611ed757611ed66132e2565b5b602002602001015181526020019081526020016000206000828254611efc9190613374565b92505081905550806001019050611e61565b508473ffffffffffffffffffffffffffffffffffffffff16600073ffffffffffffffffffffffffffffffffffffffff163373ffffffffffffffffffffffffffffffffffffffff167f4a39dc06d4c0dbc64b70af90fd698a233a518aa5d07e595d983b8c0526c8f7fb8787604051611f869291906133ca565b60405180910390a460008573ffffffffffffffffffffffffffffffffffffffff163b1461208d5763bc197c8160e01b7bffffffffffffffffffffffffffffffffffffffffffffffffffffffff19168573ffffffffffffffffffffffffffffffffffffffff1663bc197c813360008888886040518663ffffffff1660e01b8152600401612016959493929190613456565b602060405180830381600087803b15801561203057600080fd5b505af1158015612044573d6000803e3d6000fd5b505050506040513d601f19601f8201168201806040525081019061206891906134d3565b7bffffffffffffffffffffffffffffffffffffffffffffffffffffffff1916146120bf565b600073ffffffffffffffffffffffffffffffffffffffff168573ffffffffffffffffffffffffffffffffffffffff1614155b6120fe576040517f08c379a00000000000000000000000000000000000000000000000000000000081526004016120f59061354c565b60405180910390fd5b5050505050565b6001816000016000828254019250508190555050565b600081600001549050919050565b6040518060c00160405280606081526020016000600481111561214f5761214e6126df565b5b8152602001600073ffffffffffffffffffffffffffffffffffffffff1681526020016000815260200160008152602001600081525090565b828054612193906131d8565b90600052602060002090601f0160209004810192826121b557600085556121fc565b82601f106121ce57805160ff19168380011785556121fc565b828001600101855582156121fc579182015b828111156121fb5782518255916020019190600101906121e0565b5b509050612209919061220d565b5090565b5b8082111561222657600081600090555060010161220e565b5090565b6000604051905090565b600080fd5b600080fd5b600073ffffffffffffffffffffffffffffffffffffffff82169050919050565b60006122698261223e565b9050919050565b6122798161225e565b811461228457600080fd5b50565b60008135905061229681612270565b92915050565b6000819050919050565b6122af8161229c565b81146122ba57600080fd5b50565b6000813590506122cc816122a6565b92915050565b600080604083850312156122e9576122e8612234565b5b60006122f785828601612287565b9250506020612308858286016122bd565b9150509250929050565b61231b8161229c565b82525050565b60006020820190506123366000830184612312565b92915050565b60007fffffffff0000000000000000000000000000000000000000000000000000000082169050919050565b6123718161233c565b811461237c57600080fd5b50565b60008135905061238e81612368565b92915050565b6000602082840312156123aa576123a9612234565b5b60006123b88482850161237f565b91505092915050565b60008115159050919050565b6123d6816123c1565b82525050565b60006020820190506123f160008301846123cd565b92915050565b60006020828403121561240d5761240c612234565b5b600061241b84828501612287565b91505092915050565b60006020828403121561243a57612439612234565b5b6000612448848285016122bd565b91505092915050565b600081519050919050565b600082825260208201905092915050565b60005b8381101561248b578082015181840152602081019050612470565b8381111561249a576000848401525b50505050565b6000601f19601f8301169050919050565b60006124bc82612451565b6124c6818561245c565b93506124d681856020860161246d565b6124df816124a0565b840191505092915050565b6000602082019050818103600083015261250481846124b1565b905092915050565b600080fd5b7f4e487b7100000000000000000000000000000000000000000000000000000000600052604160045260246000fd5b612549826124a0565b810181811067ffffffffffffffff8211171561256857612567612511565b5b80604052505050565b600061257b61222a565b90506125878282612540565b919050565b600067ffffffffffffffff8211156125a7576125a6612511565b5b602082029050602081019050919050565b600080fd5b60006125d06125cb8461258c565b612571565b905080838252602082019050602084028301858111156125f3576125f26125b8565b5b835b8181101561261c578061260888826122bd565b8452602084019350506020810190506125f5565b5050509392505050565b600082601f83011261263b5761263a61250c565b5b813561264b8482602086016125bd565b91505092915050565b60008060006060848603121561266d5761266c612234565b5b600061267b86828701612287565b935050602084013567ffffffffffffffff81111561269c5761269b612239565b5b6126a886828701612626565b925050604084013567ffffffffffffffff8111156126c9576126c8612239565b5b6126d586828701612626565b9150509250925092565b7f4e487b7100000000000000000000000000000000000000000000000000000000600052602160045260246000fd5b6005811061271f5761271e6126df565b5b50565b60008190506127308261270e565b919050565b600061274082612722565b9050919050565b61275081612735565b82525050565b61275f8161225e565b82525050565b600060c082019050818103600083015261277f81896124b1565b905061278e6020830188612747565b61279b6040830187612756565b6127a86060830186612312565b6127b56080830185612312565b6127c260a0830184612312565b979650505050505050565b600080fd5b600067ffffffffffffffff8211156127ed576127ec612511565b5b6127f6826124a0565b9050602081019050919050565b82818337600083830152505050565b6000612825612820846127d2565b612571565b905082815260208101848484011115612841576128406127cd565b5b61284c848285612803565b509392505050565b600082601f8301126128695761286861250c565b5b8135612879848260208601612812565b91505092915050565b600080600080600060a0868803121561289e5761289d612234565b5b60006128ac88828901612287565b95505060206128bd88828901612287565b945050604086013567ffffffffffffffff8111156128de576128dd612239565b5b6128ea88828901612626565b935050606086013567ffffffffffffffff81111561290b5761290a612239565b5b61291788828901612626565b925050608086013567ffffffffffffffff81111561293857612937612239565b5b61294488828901612854565b9150509295509295909350565b6000806040838503121561296857612967612234565b5b6000612976858286016122bd565b9250506020612987858286016122bd565b9150509250929050565b600067ffffffffffffffff8211156129ac576129ab612511565b5b602082029050602081019050919050565b60006129d06129cb84612991565b612571565b905080838252602082019050602084028301858111156129f3576129f26125b8565b5b835b81811015612a1c5780612a088882612287565b8452602084019350506020810190506129f5565b5050509392505050565b600082601f830112612a3b57612a3a61250c565b5b8135612a4b8482602086016129bd565b91505092915050565b60008060408385031215612a6b57612a6a612234565b5b600083013567ffffffffffffffff811115612a8957612a88612239565b5b612a9585828601612a26565b925050602083013567ffffffffffffffff811115612ab657612ab5612239565b5b612ac285828601612626565b9150509250929050565b600081519050919050565b600082825260208201905092915050565b6000819050602082019050919050565b612b018161229c565b82525050565b6000612b138383612af8565b60208301905092915050565b6000602082019050919050565b6000612b3782612acc565b612b418185612ad7565b9350612b4c83612ae8565b8060005b83811015612b7d578151612b648882612b07565b9750612b6f83612b1f565b925050600181019050612b50565b5085935050505092915050565b60006020820190508181036000830152612ba48184612b2c565b905092915050565b6000602082019050612bc16000830184612756565b92915050565b612bd0816123c1565b8114612bdb57600080fd5b50565b600081359050612bed81612bc7565b92915050565b60008060408385031215612c0a57612c09612234565b5b6000612c1885828601612287565b9250506020612c2985828601612bde565b9150509250929050565b600082825260208201905092915050565b6000612c4f82612451565b612c598185612c33565b9350612c6981856020860161246d565b612c72816124a0565b840191505092915050565b612c8681612735565b82525050565b612c958161225e565b82525050565b600060c0830160008301518482036000860152612cb88282612c44565b9150506020830151612ccd6020860182612c7d565b506040830151612ce06040860182612c8c565b506060830151612cf36060860182612af8565b506080830151612d066080860182612af8565b5060a0830151612d1960a0860182612af8565b508091505092915050565b60006020820190508181036000830152612d3e8184612c9b565b905092915050565b600080fd5b600080fd5b600067ffffffffffffffff821115612d6b57612d6a612511565b5b612d74826124a0565b9050602081019050919050565b6000612d94612d8f84612d50565b612571565b905082815260208101848484011115612db057612daf6127cd565b5b612dbb848285612803565b509392505050565b600082601f830112612dd857612dd761250c565b5b8135612de8848260208601612d81565b91505092915050565b60058110612dfe57600080fd5b50565b600081359050612e1081612df1565b92915050565b600060c08284031215612e2c57612e2b612d46565b5b612e3660c0612571565b9050600082013567ffffffffffffffff811115612e5657612e55612d4b565b5b612e6284828501612dc3565b6000830152506020612e7684828501612e01565b6020830152506040612e8a84828501612287565b6040830152506060612e9e848285016122bd565b6060830152506080612eb2848285016122bd565b60808301525060a0612ec6848285016122bd565b60a08301525092915050565b600060208284031215612ee857612ee7612234565b5b600082013567ffffffffffffffff811115612f0657612f05612239565b5b612f1284828501612e16565b91505092915050565b60008060408385031215612f3257612f31612234565b5b6000612f4085828601612287565b9250506020612f5185828601612287565b9150509250929050565b600080600080600060a08688031215612f7757612f76612234565b5b6000612f8588828901612287565b9550506020612f9688828901612287565b9450506040612fa7888289016122bd565b9350506060612fb8888289016122bd565b925050608086013567ffffffffffffffff811115612fd957612fd8612239565b5b612fe588828901612854565b9150509295509295909350565b7f4f776e61626c653a2063616c6c6572206973206e6f7420746865206f776e6572600082015250565b600061302860208361245c565b915061303382612ff2565b602082019050919050565b600060208201905081810360008301526130578161301b565b9050919050565b600061307161306c84612d50565b612571565b90508281526020810184848401111561308d5761308c6127cd565b5b61309884828561246d565b509392505050565b600082601f8301126130b5576130b461250c565b5b81516130c584826020860161305e565b91505092915050565b6000602082840312156130e4576130e3612234565b5b600082015167ffffffffffffffff81111561310257613101612239565b5b61310e848285016130a0565b91505092915050565b7f4f6e6c79207468652070697a7a612073686f702063616e2063616c6c2074686960008201527f73206d6574686f642e0000000000000000000000000000000000000000000000602082015250565b600061317360298361245c565b915061317e82613117565b604082019050919050565b600060208201905081810360008301526131a281613166565b9050919050565b7f4e487b7100000000000000000000000000000000000000000000000000000000600052602260045260246000fd5b600060028204905060018216806131f057607f821691505b60208210811415613204576132036131a9565b5b50919050565b7f4c454e4754485f4d49534d415443480000000000000000000000000000000000600082015250565b6000613240600f8361245c565b915061324b8261320a565b602082019050919050565b6000602082019050818103600083015261326f81613233565b9050919050565b7f4e4f545f415554484f52495a4544000000000000000000000000000000000000600082015250565b60006132ac600e8361245c565b91506132b782613276565b602082019050919050565b600060208201905081810360008301526132db8161329f565b9050919050565b7f4e487b7100000000000000000000000000000000000000000000000000000000600052603260045260246000fd5b7f4e487b7100000000000000000000000000000000000000000000000000000000600052601160045260246000fd5b600061334b8261229c565b91506133568361229c565b92508282101561336957613368613311565b5b828203905092915050565b600061337f8261229c565b915061338a8361229c565b9250827fffffffffffffffffffffffffffffffffffffffffffffffffffffffffffffffff038211156133bf576133be613311565b5b828201905092915050565b600060408201905081810360008301526133e48185612b2c565b905081810360208301526133f88184612b2c565b90509392505050565b600081519050919050565b600082825260208201905092915050565b600061342882613401565b613432818561340c565b935061344281856020860161246d565b61344b816124a0565b840191505092915050565b600060a08201905061346b6000830188612756565b6134786020830187612756565b818103604083015261348a8186612b2c565b9050818103606083015261349e8185612b2c565b905081810360808301526134b2818461341d565b90509695505050505050565b6000815190506134cd81612368565b92915050565b6000602082840312156134e9576134e8612234565b5b60006134f7848285016134be565b91505092915050565b7f554e534146455f524543495049454e5400000000000000000000000000000000600082015250565b600061353660108361245c565b915061354182613500565b602082019050919050565b6000602082019050818103600083015261356581613529565b9050919050565b7f4f6e6c79207468652070697a7a612073686f7020616e64206f776e657220636160008201527f6e2063616c6c2074686973206d6574686f642e00000000000000000000000000602082015250565b60006135c860338361245c565b91506135d38261356c565b604082019050919050565b600060208201905081810360008301526135f7816135bb565b9050919050565b60006040820190506136136000830185612312565b6136206020830184612312565b9392505050565b600060a08201905061363c6000830188612756565b6136496020830187612756565b6136566040830186612312565b6136636060830185612312565b8181036080830152613675818461341d565b90509695505050505050565b7f4f776e61626c653a206e6577206f776e657220697320746865207a65726f206160008201527f6464726573730000000000000000000000000000000000000000000000000000602082015250565b60006136dd60268361245c565b91506136e882613681565b604082019050919050565b6000602082019050818103600083015261370c816136d0565b905091905056fea264697066735822122080821d383275e242c7e1890d280ba07fa3d0fa2c5bb2f58f8720f0cd13e24cb964736f6c63430008090033",
    "linkReferences": {},
    "deployedLinkReferences": {}
}