{
    "_format": "hh-sol-artifact-1",
    "contractName": "LazlosPizzaShop",
    "sourceName": "contracts/LazlosPizzaShop.sol",
    "abi": [
        {
            "anonymous": false,
            "inputs": [
                {
                    "indexed": true,
                    "internalType": "address",
                    "name": "previousOwner",
                    "type": "address"
                },
                {
                    "indexed": true,
                    "internalType": "address",
                    "name": "newOwner",
                    "type": "address"
                }
            ],
            "name": "OwnershipTransferred",
            "type": "event"
        },
        {
            "inputs": [
                {
                    "internalType": "address",
                    "name": "artist",
                    "type": "address"
                }
            ],
            "name": "artistAllowedWithdrawalAmount",
            "outputs": [
                {
                    "internalType": "uint256",
                    "name": "",
                    "type": "uint256"
                }
            ],
            "stateMutability": "view",
            "type": "function"
        },
        {
            "inputs": [
                {
                    "internalType": "address",
                    "name": "artist",
                    "type": "address"
                }
            ],
            "name": "artistTotalCommission",
            "outputs": [
                {
                    "internalType": "uint256",
                    "name": "",
                    "type": "uint256"
                }
            ],
            "stateMutability": "view",
            "type": "function"
        },
        {
            "inputs": [],
            "name": "artistWithdraw",
            "outputs": [],
            "stateMutability": "nonpayable",
            "type": "function"
        },
        {
            "inputs": [
                {
                    "internalType": "uint256[]",
                    "name": "tokenIds",
                    "type": "uint256[]"
                }
            ],
            "name": "bakePizza",
            "outputs": [
                {
                    "internalType": "uint256",
                    "name": "",
                    "type": "uint256"
                }
            ],
            "stateMutability": "payable",
            "type": "function"
        },
        {
            "inputs": [],
            "name": "bakePizzaPrice",
            "outputs": [
                {
                    "internalType": "uint256",
                    "name": "",
                    "type": "uint256"
                }
            ],
            "stateMutability": "view",
            "type": "function"
        },
        {
            "inputs": [
                {
                    "internalType": "uint256[]",
                    "name": "tokenIds",
                    "type": "uint256[]"
                },
                {
                    "internalType": "uint256",
                    "name": "timestamp",
                    "type": "uint256"
                },
                {
                    "internalType": "bytes32",
                    "name": "r",
                    "type": "bytes32"
                },
                {
                    "internalType": "bytes32",
                    "name": "s",
                    "type": "bytes32"
                },
                {
                    "internalType": "uint8",
                    "name": "v",
                    "type": "uint8"
                }
            ],
            "name": "bakeRandomPizza",
            "outputs": [
                {
                    "internalType": "uint256",
                    "name": "",
                    "type": "uint256"
                }
            ],
            "stateMutability": "payable",
            "type": "function"
        },
        {
            "inputs": [
                {
                    "internalType": "uint256[]",
                    "name": "tokenIds",
                    "type": "uint256[]"
                }
            ],
            "name": "buyAndBakePizza",
            "outputs": [
                {
                    "internalType": "uint256",
                    "name": "",
                    "type": "uint256"
                }
            ],
            "stateMutability": "payable",
            "type": "function"
        },
        {
            "inputs": [
                {
                    "internalType": "uint256[]",
                    "name": "tokenIds",
                    "type": "uint256[]"
                },
                {
                    "internalType": "uint256[]",
                    "name": "amounts",
                    "type": "uint256[]"
                }
            ],
            "name": "buyIngredients",
            "outputs": [],
            "stateMutability": "payable",
            "type": "function"
        },
        {
            "inputs": [],
            "name": "ingredientsContractAddress",
            "outputs": [
                {
                    "internalType": "address",
                    "name": "",
                    "type": "address"
                }
            ],
            "stateMutability": "view",
            "type": "function"
        },
        {
            "inputs": [
                {
                    "internalType": "address",
                    "name": "addr",
                    "type": "address"
                },
                {
                    "internalType": "uint256",
                    "name": "payoutBlock",
                    "type": "uint256"
                }
            ],
            "name": "isPaidOutForBlock",
            "outputs": [
                {
                    "internalType": "bool",
                    "name": "",
                    "type": "bool"
                }
            ],
            "stateMutability": "view",
            "type": "function"
        },
        {
            "inputs": [],
            "name": "owner",
            "outputs": [
                {
                    "internalType": "address",
                    "name": "",
                    "type": "address"
                }
            ],
            "stateMutability": "view",
            "type": "function"
        },
        {
            "inputs": [],
            "name": "pizzaContractAddress",
            "outputs": [
                {
                    "internalType": "address",
                    "name": "",
                    "type": "address"
                }
            ],
            "stateMutability": "view",
            "type": "function"
        },
        {
            "inputs": [],
            "name": "randomBakePrice",
            "outputs": [
                {
                    "internalType": "uint256",
                    "name": "",
                    "type": "uint256"
                }
            ],
            "stateMutability": "view",
            "type": "function"
        },
        {
            "inputs": [
                {
                    "internalType": "uint256",
                    "name": "pizzaTokenId",
                    "type": "uint256"
                },
                {
                    "internalType": "uint256[]",
                    "name": "ingredientTokenIdsToAdd",
                    "type": "uint256[]"
                },
                {
                    "internalType": "uint256[]",
                    "name": "ingredientTokenIdsToRemove",
                    "type": "uint256[]"
                }
            ],
            "name": "rebakePizza",
            "outputs": [],
            "stateMutability": "payable",
            "type": "function"
        },
        {
            "inputs": [],
            "name": "rebakePizzaPrice",
            "outputs": [
                {
                    "internalType": "uint256",
                    "name": "",
                    "type": "uint256"
                }
            ],
            "stateMutability": "view",
            "type": "function"
        },
        {
            "inputs": [
                {
                    "internalType": "uint256",
                    "name": "payoutBlock",
                    "type": "uint256"
                },
                {
                    "internalType": "uint256",
                    "name": "amount",
                    "type": "uint256"
                },
                {
                    "internalType": "bytes32",
                    "name": "r",
                    "type": "bytes32"
                },
                {
                    "internalType": "bytes32",
                    "name": "s",
                    "type": "bytes32"
                },
                {
                    "internalType": "uint8",
                    "name": "v",
                    "type": "uint8"
                }
            ],
            "name": "redeemPayout",
            "outputs": [],
            "stateMutability": "nonpayable",
            "type": "function"
        },
        {
            "inputs": [],
            "name": "renounceOwnership",
            "outputs": [],
            "stateMutability": "nonpayable",
            "type": "function"
        },
        {
            "inputs": [
                {
                    "internalType": "address",
                    "name": "addr",
                    "type": "address"
                }
            ],
            "name": "setIngredientsContractAddress",
            "outputs": [],
            "stateMutability": "nonpayable",
            "type": "function"
        },
        {
            "inputs": [
                {
                    "internalType": "address",
                    "name": "addr",
                    "type": "address"
                }
            ],
            "name": "setPizzaContractAddress",
            "outputs": [],
            "stateMutability": "nonpayable",
            "type": "function"
        },
        {
            "inputs": [
                {
                    "internalType": "address",
                    "name": "addr",
                    "type": "address"
                }
            ],
            "name": "setSystemAddress",
            "outputs": [],
            "stateMutability": "nonpayable",
            "type": "function"
        },
        {
            "inputs": [
                {
                    "internalType": "address",
                    "name": "newOwner",
                    "type": "address"
                }
            ],
            "name": "transferOwnership",
            "outputs": [],
            "stateMutability": "nonpayable",
            "type": "function"
        },
        {
            "inputs": [
                {
                    "internalType": "uint256",
                    "name": "pizzaTokenId",
                    "type": "uint256"
                }
            ],
            "name": "unbakePizza",
            "outputs": [],
            "stateMutability": "payable",
            "type": "function"
        },
        {
            "inputs": [],
            "name": "unbakePizzaPrice",
            "outputs": [
                {
                    "internalType": "uint256",
                    "name": "",
                    "type": "uint256"
                }
            ],
            "stateMutability": "view",
            "type": "function"
        },
        {
            "inputs": [
                {
                    "internalType": "bytes32",
                    "name": "messageHash",
                    "type": "bytes32"
                },
                {
                    "internalType": "bytes32",
                    "name": "r",
                    "type": "bytes32"
                },
                {
                    "internalType": "bytes32",
                    "name": "s",
                    "type": "bytes32"
                },
                {
                    "internalType": "uint8",
                    "name": "v",
                    "type": "uint8"
                }
            ],
            "name": "verifyString",
            "outputs": [
                {
                    "internalType": "address",
                    "name": "",
                    "type": "address"
                }
            ],
            "stateMutability": "pure",
            "type": "function"
        }
    ],
    "bytecode": "0x6080604052662386f26fc1000060025566b1a2bc2ec50000600355662386f26fc1000060045566b1a2bc2ec500006005553480156200003d57600080fd5b506200005e620000526200006b60201b60201c565b6200007360201b60201c565b6001808190555062000137565b600033905090565b60008060009054906101000a900473ffffffffffffffffffffffffffffffffffffffff169050816000806101000a81548173ffffffffffffffffffffffffffffffffffffffff021916908373ffffffffffffffffffffffffffffffffffffffff1602179055508173ffffffffffffffffffffffffffffffffffffffff168173ffffffffffffffffffffffffffffffffffffffff167f8be0079c531659141344cd1fd0a4f28419497f9722a3daafe3b4186f6b6457e060405160405180910390a35050565b6156c680620001476000396000f3fe60806040526004361061014b5760003560e01c80638d457e39116100b6578063c664822b1161006f578063c664822b14610475578063d8c76606146104a0578063da27a12c146104b7578063ecf4fdb1146104e0578063f2fde38b1461050b578063fb52c24e146105345761014b565b80638d457e391461036d5780638da5cb5b146103aa5780639fd18cd7146103d5578063af881a4d146103f1578063bbb9699914610421578063c21361721461044a5761014b565b806352d3b7b71161010857806352d3b7b71461025d57806358df79c71461029a578063626f0008146102c55780636629af7114610302578063715018a61461032b578063870bc0d9146103425761014b565b8063062101971461015057806306e375f4146101795780631c4ed2dd146101955780631fdda526146101c557806335e54cff146101f5578063506cf18614610220575b600080fd5b34801561015c57600080fd5b50610177600480360381019061017291906137e2565b610550565b005b610193600480360381019061018e919061399e565b610610565b005b6101af60048036038101906101aa9190613a98565b610c81565b6040516101bc9190613b3e565b60405180910390f35b6101df60048036038101906101da9190613b59565b611036565b6040516101ec9190613b3e565b60405180910390f35b34801561020157600080fd5b5061020a6110e3565b6040516102179190613b3e565b60405180910390f35b34801561022c57600080fd5b50610247600480360381019061024291906137e2565b6110e9565b6040516102549190613b3e565b60405180910390f35b34801561026957600080fd5b50610284600480360381019061027f91906137e2565b6112e6565b6040516102919190613b3e565b60405180910390f35b3480156102a657600080fd5b506102af611395565b6040516102bc9190613b3e565b60405180910390f35b3480156102d157600080fd5b506102ec60048036038101906102e79190613ba2565b61139b565b6040516102f99190613bfd565b60405180910390f35b34801561030e57600080fd5b5061032960048036038101906103249190613c18565b611403565b005b34801561033757600080fd5b506103406116ea565b005b34801561034e57600080fd5b50610357611772565b6040516103649190613ca2565b60405180910390f35b34801561037957600080fd5b50610394600480360381019061038f9190613cbd565b611798565b6040516103a19190613ca2565b60405180910390f35b3480156103b657600080fd5b506103bf611861565b6040516103cc9190613ca2565b60405180910390f35b6103ef60048036038101906103ea9190613d24565b61188a565b005b61040b60048036038101906104069190613b59565b611bfb565b6040516104189190613b3e565b60405180910390f35b34801561042d57600080fd5b50610448600480360381019061044391906137e2565b611e84565b005b34801561045657600080fd5b5061045f611f44565b60405161046c9190613b3e565b60405180910390f35b34801561048157600080fd5b5061048a611f4a565b6040516104979190613b3e565b60405180910390f35b3480156104ac57600080fd5b506104b5611f50565b005b3480156104c357600080fd5b506104de60048036038101906104d991906137e2565b6120b8565b005b3480156104ec57600080fd5b506104f5612178565b6040516105029190613ca2565b60405180910390f35b34801561051757600080fd5b50610532600480360381019061052d91906137e2565b61219e565b005b61054e60048036038101906105499190613d9c565b612296565b005b6105586128e4565b73ffffffffffffffffffffffffffffffffffffffff16610576611861565b73ffffffffffffffffffffffffffffffffffffffff16146105cc576040517f08c379a00000000000000000000000000000000000000000000000000000000081526004016105c390613e26565b60405180910390fd5b80600860006101000a81548173ffffffffffffffffffffffffffffffffffffffff021916908373ffffffffffffffffffffffffffffffffffffffff16021790555050565b60026001541415610656576040517f08c379a000000000000000000000000000000000000000000000000000000000815260040161064d90613e92565b60405180910390fd5b600260018190555060045434146106a2576040517f08c379a000000000000000000000000000000000000000000000000000000000815260040161069990613efe565b60405180910390fd5b6000600660009054906101000a900473ffffffffffffffffffffffffffffffffffffffff1673ffffffffffffffffffffffffffffffffffffffff16630aa71aa0856040518263ffffffff1660e01b81526004016106ff9190613b3e565b6101a06040518083038186803b15801561071857600080fd5b505afa15801561072c573d6000803e3d6000fd5b505050506040513d601f19601f820116820180604052508101906107509190614152565b905060005b8251811015610c6557600083828151811061077357610772614180565b5b602002602001015190506000600760009054906101000a900473ffffffffffffffffffffffffffffffffffffffff1673ffffffffffffffffffffffffffffffffffffffff1663c5fd9c6f836040518263ffffffff1660e01b81526004016107da9190613b3e565b60006040518083038186803b1580156107f257600080fd5b505afa158015610806573d6000803e3d6000fd5b505050506040513d6000823e3d601f19601f8201168201806040525081019061082f9190614393565b905060006004811115610845576108446143dc565b5b8160200151600481111561085c5761085b6143dc565b5b141561087c576000846000019061ffff16908161ffff1681525050610c56565b600160048111156108905761088f6143dc565b5b816020015160048111156108a7576108a66143dc565b5b14156108c7576000846020019061ffff16908161ffff1681525050610c55565b600260048111156108db576108da6143dc565b5b816020015160048111156108f2576108f16143dc565b5b14156109e25760006109026136b6565b6000805b60038110156109905760008860400151826003811061092857610927614180565b5b602002015161ffff16905060008114156109425750610990565b86811461097d578084846003811061095d5761095c614180565b5b602002019061ffff16908161ffff16815250508280600101935050610982565b600194505b818060010192505050610906565b50826109d1576040517f08c379a00000000000000000000000000000000000000000000000000000000081526004016109c89061447d565b60405180910390fd5b818760400181905250505050610c54565b600360048111156109f6576109f56143dc565b5b81602001516004811115610a0d57610a0c6143dc565b5b1415610afd576000610a1d6136d8565b6000805b6004811015610aab57600088606001518260048110610a4357610a42614180565b5b602002015161ffff1690506000811415610a5d5750610aab565b868114610a985780848460048110610a7857610a77614180565b5b602002019061ffff16908161ffff16815250508280600101935050610a9d565b600194505b818060010192505050610a21565b5082610aec576040517f08c379a0000000000000000000000000000000000000000000000000000000008152600401610ae39061450f565b60405180910390fd5b818760600181905250505050610c53565b600480811115610b1057610b0f6143dc565b5b81602001516004811115610b2757610b266143dc565b5b1415610c17576000610b376136d8565b6000805b6004811015610bc557600088608001518260048110610b5d57610b5c614180565b5b602002015161ffff1690506000811415610b775750610bc5565b868114610bb25780848460048110610b9257610b91614180565b5b602002019061ffff16908161ffff16815250508280600101935050610bb7565b600194505b818060010192505050610b3b565b5082610c06576040517f08c379a0000000000000000000000000000000000000000000000000000000008152600401610bfd906145a1565b60405180910390fd5b818760800181905250505050610c52565b6040517f08c379a0000000000000000000000000000000000000000000000000000000008152600401610c499061460d565b60405180910390fd5b5b5b5b5b82806001019350505050610755565b50610c7384828560016128ec565b505060018081905550505050565b600060026001541415610cc9576040517f08c379a0000000000000000000000000000000000000000000000000000000008152600401610cc090613e92565b60405180910390fd5b60026001819055503460055414610d15576040517f08c379a0000000000000000000000000000000000000000000000000000000008152600401610d0c90613efe565b60405180910390fd5b61012c8542610d24919061465c565b10610d64576040517f08c379a0000000000000000000000000000000000000000000000000000000008152600401610d5b906146dc565b60405180910390fd5b6000338688604051602001610d7b9392919061481d565b6040516020818303038152906040528051906020012090506000610da182878787611798565b90506000600860009054906101000a900473ffffffffffffffffffffffffffffffffffffffff1673ffffffffffffffffffffffffffffffffffffffff168273ffffffffffffffffffffffffffffffffffffffff1614905080610e38576040517f08c379a0000000000000000000000000000000000000000000000000000000008152600401610e2f906148a2565b60405180910390fd5b6000600254905060005b8a518110156110145760008b8281518110610e6057610e5f614180565b5b602002602001015190506000600760009054906101000a900473ffffffffffffffffffffffffffffffffffffffff1673ffffffffffffffffffffffffffffffffffffffff1663c5fd9c6f836040518263ffffffff1660e01b8152600401610ec79190613b3e565b60006040518083038186803b158015610edf57600080fd5b505afa158015610ef3573d6000803e3d6000fd5b505050506040513d6000823e3d601f19601f82011682018060405250810190610f1c9190614393565b9050600181608001511015610f66576040517f08c379a0000000000000000000000000000000000000000000000000000000008152600401610f5d9061490e565b60405180910390fd5b600760009054906101000a900473ffffffffffffffffffffffffffffffffffffffff1673ffffffffffffffffffffffffffffffffffffffff1663d872712b8360016040518363ffffffff1660e01b8152600401610fc4929190614973565b600060405180830381600087803b158015610fde57600080fd5b505af1158015610ff2573d6000803e3d6000fd5b505050508060600151840193505050808061100c9061499c565b915050610e42565b506110208a6000613378565b9450505050506001808190555095945050505050565b60006002600154141561107e576040517f08c379a000000000000000000000000000000000000000000000000000000000815260040161107590613e92565b60405180910390fd5b600260018190555060025434146110ca576040517f08c379a00000000000000000000000000000000000000000000000000000000081526004016110c190613efe565b60405180910390fd5b6110d5826001613378565b905060018081905550919050565b60055481565b600080600760009054906101000a900473ffffffffffffffffffffffffffffffffffffffff1673ffffffffffffffffffffffffffffffffffffffff1663ed81bb706040518163ffffffff1660e01b815260040160206040518083038186803b15801561115457600080fd5b505afa158015611168573d6000803e3d6000fd5b505050506040513d601f19601f8201168201806040525081019061118c91906149e5565b9050600080600190505b8281116112db576000600760009054906101000a900473ffffffffffffffffffffffffffffffffffffffff1673ffffffffffffffffffffffffffffffffffffffff1663c5fd9c6f836040518263ffffffff1660e01b81526004016111fa9190613b3e565b60006040518083038186803b15801561121257600080fd5b505afa158015611226573d6000803e3d6000fd5b505050506040513d6000823e3d601f19601f8201168201806040525081019061124f9190614393565b90508573ffffffffffffffffffffffffffffffffffffffff16816040015173ffffffffffffffffffffffffffffffffffffffff161461128e57506112c8565b600081608001518260a0015103905060008260600151820290506000600a82816112bb576112ba614a12565b5b0490508086019550505050505b80806112d39061499c565b915050611196565b508092505050919050565b6000806112f2836110e9565b90506000600960008573ffffffffffffffffffffffffffffffffffffffff1673ffffffffffffffffffffffffffffffffffffffff16815260200190815260200160002054905080821161137a576040517f08c379a000000000000000000000000000000000000000000000000000000000815260040161137190614ab3565b60405180910390fd5b60008183611388919061465c565b9050809350505050919050565b60045481565b6000600a600083815260200190815260200160002060008473ffffffffffffffffffffffffffffffffffffffff1673ffffffffffffffffffffffffffffffffffffffff16815260200190815260200160002060009054906101000a900460ff16905092915050565b60026001541415611449576040517f08c379a000000000000000000000000000000000000000000000000000000000815260040161144090613e92565b60405180910390fd5b6002600181905550600085338660405160200161146893929190614ad3565b604051602081830303815290604052805190602001209050600061148e82868686611798565b90506000600860009054906101000a900473ffffffffffffffffffffffffffffffffffffffff1673ffffffffffffffffffffffffffffffffffffffff168273ffffffffffffffffffffffffffffffffffffffff1614905080611525576040517f08c379a000000000000000000000000000000000000000000000000000000000815260040161151c906148a2565b60405180910390fd5b600a600089815260200190815260200160002060003373ffffffffffffffffffffffffffffffffffffffff1673ffffffffffffffffffffffffffffffffffffffff16815260200190815260200160002060009054906101000a900460ff16156115c3576040517f08c379a00000000000000000000000000000000000000000000000000000000081526004016115ba90614b82565b60405180910390fd5b6001600a60008a815260200190815260200160002060003373ffffffffffffffffffffffffffffffffffffffff1673ffffffffffffffffffffffffffffffffffffffff16815260200190815260200160002060006101000a81548160ff02191690831515021790555060003373ffffffffffffffffffffffffffffffffffffffff168860405161165290614bd3565b60006040518083038185875af1925050503d806000811461168f576040519150601f19603f3d011682016040523d82523d6000602084013e611694565b606091505b50509050806116d8576040517f08c379a00000000000000000000000000000000000000000000000000000000081526004016116cf90614c34565b60405180910390fd5b50505050600180819055505050505050565b6116f26128e4565b73ffffffffffffffffffffffffffffffffffffffff16611710611861565b73ffffffffffffffffffffffffffffffffffffffff1614611766576040517f08c379a000000000000000000000000000000000000000000000000000000000815260040161175d90613e26565b60405180910390fd5b6117706000613398565b565b600760009054906101000a900473ffffffffffffffffffffffffffffffffffffffff1681565b6000806040518060400160405280601c81526020017f19457468657265756d205369676e6564204d6573736167653a0a3332000000008152509050600081876040516020016117e8929190614cb1565b6040516020818303038152906040529050600081805190602001209050600181868989604051600081526020016040526040516118289493929190614cf7565b6020604051602081039080840390855afa15801561184a573d6000803e3d6000fd5b505050602060405103519350505050949350505050565b60008060009054906101000a900473ffffffffffffffffffffffffffffffffffffffff16905090565b600260015414156118d0576040517f08c379a00000000000000000000000000000000000000000000000000000000081526004016118c790613e92565b60405180910390fd5b6002600181905550600080600090505b8351811015611b1b5760008482815181106118fe576118fd614180565b5b60200260200101519050600084838151811061191d5761191c614180565b5b602002602001015190506000600760009054906101000a900473ffffffffffffffffffffffffffffffffffffffff1673ffffffffffffffffffffffffffffffffffffffff1663c5fd9c6f846040518263ffffffff1660e01b81526004016119849190613b3e565b60006040518083038186803b15801561199c57600080fd5b505afa1580156119b0573d6000803e3d6000fd5b505050506040513d6000823e3d601f19601f820116820180604052508101906119d99190614393565b905060008160000151511415611a24576040517f08c379a0000000000000000000000000000000000000000000000000000000008152600401611a1b90614d88565b60405180910390fd5b8181608001511015611a6b576040517f08c379a0000000000000000000000000000000000000000000000000000000008152600401611a6290614df4565b60405180910390fd5b600760009054906101000a900473ffffffffffffffffffffffffffffffffffffffff1673ffffffffffffffffffffffffffffffffffffffff1663d872712b84846040518363ffffffff1660e01b8152600401611ac8929190614e14565b600060405180830381600087803b158015611ae257600080fd5b505af1158015611af6573d6000803e3d6000fd5b5050505081816060015102850194505050508080611b139061499c565b9150506118e0565b50348114611b5e576040517f08c379a0000000000000000000000000000000000000000000000000000000008152600401611b5590613efe565b60405180910390fd5b600760009054906101000a900473ffffffffffffffffffffffffffffffffffffffff1673ffffffffffffffffffffffffffffffffffffffff1663b5571ed43385856040518463ffffffff1660e01b8152600401611bbd93929190614ed3565b600060405180830381600087803b158015611bd757600080fd5b505af1158015611beb573d6000803e3d6000fd5b5050505050600180819055505050565b600060026001541415611c43576040517f08c379a0000000000000000000000000000000000000000000000000000000008152600401611c3a90613e92565b60405180910390fd5b60026001819055506000600254905060005b8351811015611e27576000848281518110611c7357611c72614180565b5b602002602001015190506000600760009054906101000a900473ffffffffffffffffffffffffffffffffffffffff1673ffffffffffffffffffffffffffffffffffffffff1663c5fd9c6f836040518263ffffffff1660e01b8152600401611cda9190613b3e565b60006040518083038186803b158015611cf257600080fd5b505afa158015611d06573d6000803e3d6000fd5b505050506040513d6000823e3d601f19601f82011682018060405250810190611d2f9190614393565b9050600181608001511015611d79576040517f08c379a0000000000000000000000000000000000000000000000000000000008152600401611d709061490e565b60405180910390fd5b600760009054906101000a900473ffffffffffffffffffffffffffffffffffffffff1673ffffffffffffffffffffffffffffffffffffffff1663d872712b8360016040518363ffffffff1660e01b8152600401611dd7929190614973565b600060405180830381600087803b158015611df157600080fd5b505af1158015611e05573d6000803e3d6000fd5b5050505080606001518401935050508080611e1f9061499c565b915050611c55565b50348114611e6a576040517f08c379a0000000000000000000000000000000000000000000000000000000008152600401611e6190613efe565b60405180910390fd5b611e75836000613378565b91505060018081905550919050565b611e8c6128e4565b73ffffffffffffffffffffffffffffffffffffffff16611eaa611861565b73ffffffffffffffffffffffffffffffffffffffff1614611f00576040517f08c379a0000000000000000000000000000000000000000000000000000000008152600401611ef790613e26565b60405180910390fd5b80600760006101000a81548173ffffffffffffffffffffffffffffffffffffffff021916908373ffffffffffffffffffffffffffffffffffffffff16021790555050565b60035481565b60025481565b60026001541415611f96576040517f08c379a0000000000000000000000000000000000000000000000000000000008152600401611f8d90613e92565b60405180910390fd5b60026001819055506000611fa9336112e6565b905080600960003373ffffffffffffffffffffffffffffffffffffffff1673ffffffffffffffffffffffffffffffffffffffff1681526020019081526020016000206000828254611ffa9190614f18565b9250508190555060003373ffffffffffffffffffffffffffffffffffffffff168260405161202790614bd3565b60006040518083038185875af1925050503d8060008114612064576040519150601f19603f3d011682016040523d82523d6000602084013e612069565b606091505b50509050806120ad576040517f08c379a00000000000000000000000000000000000000000000000000000000081526004016120a490614c34565b60405180910390fd5b505060018081905550565b6120c06128e4565b73ffffffffffffffffffffffffffffffffffffffff166120de611861565b73ffffffffffffffffffffffffffffffffffffffff1614612134576040517f08c379a000000000000000000000000000000000000000000000000000000000815260040161212b90613e26565b60405180910390fd5b80600660006101000a81548173ffffffffffffffffffffffffffffffffffffffff021916908373ffffffffffffffffffffffffffffffffffffffff16021790555050565b600660009054906101000a900473ffffffffffffffffffffffffffffffffffffffff1681565b6121a66128e4565b73ffffffffffffffffffffffffffffffffffffffff166121c4611861565b73ffffffffffffffffffffffffffffffffffffffff161461221a576040517f08c379a000000000000000000000000000000000000000000000000000000000815260040161221190613e26565b60405180910390fd5b600073ffffffffffffffffffffffffffffffffffffffff168173ffffffffffffffffffffffffffffffffffffffff16141561228a576040517f08c379a000000000000000000000000000000000000000000000000000000000815260040161228190614fe0565b60405180910390fd5b61229381613398565b50565b600260015414156122dc576040517f08c379a00000000000000000000000000000000000000000000000000000000081526004016122d390613e92565b60405180910390fd5b60026001819055506003543414612328576040517f08c379a000000000000000000000000000000000000000000000000000000000815260040161231f90613efe565b60405180910390fd5b6000600660009054906101000a900473ffffffffffffffffffffffffffffffffffffffff1673ffffffffffffffffffffffffffffffffffffffff16630aa71aa0836040518263ffffffff1660e01b81526004016123859190613b3e565b6101a06040518083038186803b15801561239e57600080fd5b505afa1580156123b2573d6000803e3d6000fd5b505050506040513d601f19601f820116820180604052508101906123d69190614152565b90506000600390506000600190505b60038110156124365760008360400151826003811061240757612406614180565b5b602002015161ffff16141561241b57612436565b81806124269061499c565b92505080806001019150506123e5565b5060005b600481101561248b5760008360600151826004811061245c5761245b614180565b5b602002015161ffff1614156124705761248b565b818061247b9061499c565b925050808060010191505061243a565b5060005b60048110156124e0576000836080015182600481106124b1576124b0614180565b5b602002015161ffff1614156124c5576124e0565b81806124d09061499c565b925050808060010191505061248f565b5060008167ffffffffffffffff8111156124fd576124fc61385b565b5b60405190808252806020026020018201604052801561252b5781602001602082028036833780820191505090505b509050826000015161ffff168160008151811061254b5761254a614180565b5b602002602001018181525050826020015161ffff168160018151811061257457612573614180565b5b60200260200101818152505060006002905060005b6003811015612613576000856040015182600381106125ab576125aa614180565b5b602002015161ffff1614156125bf57612613565b846040015181600381106125d6576125d5614180565b5b602002015161ffff168383815181106125f2576125f1614180565b5b60200260200101818152505081806001019250508080600101915050612589565b5060005b60048110156126a15760008560600151826004811061263957612638614180565b5b602002015161ffff16141561264d576126a1565b8460600151816004811061266457612663614180565b5b602002015161ffff168383815181106126805761267f614180565b5b60200260200101818152505081806001019250508080600101915050612617565b5060005b600481101561272f576000856080015182600481106126c7576126c6614180565b5b602002015161ffff1614156126db5761272f565b846080015181600481106126f2576126f1614180565b5b602002015161ffff1683838151811061270e5761270d614180565b5b602002602001018181525050818060010192505080806001019150506126a5565b5060008367ffffffffffffffff81111561274c5761274b61385b565b5b60405190808252806020026020018201604052801561277a5781602001602082028036833780820191505090505b50905060005b848110156127b657600182828151811061279d5761279c614180565b5b6020026020010181815250508080600101915050612780565b50600760009054906101000a900473ffffffffffffffffffffffffffffffffffffffff1673ffffffffffffffffffffffffffffffffffffffff1663b5571ed43385846040518463ffffffff1660e01b815260040161281693929190614ed3565b600060405180830381600087803b15801561283057600080fd5b505af1158015612844573d6000803e3d6000fd5b50505050600660009054906101000a900473ffffffffffffffffffffffffffffffffffffffff1673ffffffffffffffffffffffffffffffffffffffff166342966c68876040518263ffffffff1660e01b81526004016128a39190613b3e565b600060405180830381600087803b1580156128bd57600080fd5b505af11580156128d1573d6000803e3d6000fd5b5050505050505050506001808190555050565b600033905090565b60006128f66136fa565b60008614612a2e5760005b85604001515060038110156129625760008660400151826003811061292957612928614180565b5b602002015161ffff16141561293d57612962565b81600001805180919060010161ffff1661ffff16815250508080600101915050612901565b5060005b85606001515060048110156129c75760008660600151826004811061298e5761298d614180565b5b602002015161ffff1614156129a2576129c7565b81602001805180919060010161ffff1661ffff16815250508080600101915050612966565b5060005b8560800151506004811015612a2c576000866080015182600481106129f3576129f2614180565b5b602002015161ffff161415612a0757612a2c565b81604001805180919060010161ffff1661ffff168152505080806001019150506129cb565b505b6000845167ffffffffffffffff811115612a4b57612a4a61385b565b5b604051908082528060200260200182016040528015612a795781602001602082028036833780820191505090505b50905060005b855181101561307a576000868281518110612a9d57612a9c614180565b5b602002602001015190508515612ba3576000600760009054906101000a900473ffffffffffffffffffffffffffffffffffffffff1673ffffffffffffffffffffffffffffffffffffffff166345adc21033846040518363ffffffff1660e01b8152600401612b0c929190615000565b60206040518083038186803b158015612b2457600080fd5b505afa158015612b38573d6000803e3d6000fd5b505050506040513d601f19601f82011682018060405250810190612b5c91906149e5565b905060008111612ba1576040517f08c379a0000000000000000000000000000000000000000000000000000000008152600401612b9890615075565b60405180910390fd5b505b6000600760009054906101000a900473ffffffffffffffffffffffffffffffffffffffff1673ffffffffffffffffffffffffffffffffffffffff1663c5fd9c6f836040518263ffffffff1660e01b8152600401612c009190613b3e565b60006040518083038186803b158015612c1857600080fd5b505afa158015612c2c573d6000803e3d6000fd5b505050506040513d6000823e3d601f19601f82011682018060405250810190612c559190614393565b905060006004811115612c6b57612c6a6143dc565b5b81602001516004811115612c8257612c816143dc565b5b1415612cec576000896000015161ffff1614612cd3576040517f08c379a0000000000000000000000000000000000000000000000000000000008152600401612cca906150e1565b60405180910390fd5b81896000019061ffff16908161ffff168152505061304a565b60016004811115612d0057612cff6143dc565b5b81602001516004811115612d1757612d166143dc565b5b1415612d81576000896020015161ffff1614612d68576040517f08c379a0000000000000000000000000000000000000000000000000000000008152600401612d5f9061514d565b60405180910390fd5b81896020019061ffff16908161ffff1681525050613049565b60026004811115612d9557612d946143dc565b5b81602001516004811115612dac57612dab6143dc565b5b1415612e5a5784600001805180919060010161ffff1661ffff16815250506003856000015161ffff161115612e16576040517f08c379a0000000000000000000000000000000000000000000000000000000008152600401612e0d906151b9565b60405180910390fd5b81896040015160018760000151612e2d91906151d9565b61ffff1660038110612e4257612e41614180565b5b602002019061ffff16908161ffff1681525050613048565b60036004811115612e6e57612e6d6143dc565b5b81602001516004811115612e8557612e846143dc565b5b1415612f335784602001805180919060010161ffff1661ffff16815250506004856020015161ffff161115612eef576040517f08c379a0000000000000000000000000000000000000000000000000000000008152600401612ee690615259565b60405180910390fd5b81896060015160018760200151612f0691906151d9565b61ffff1660048110612f1b57612f1a614180565b5b602002019061ffff16908161ffff1681525050613047565b600480811115612f4657612f456143dc565b5b81602001516004811115612f5d57612f5c6143dc565b5b141561300b5784604001805180919060010161ffff1661ffff16815250506004856040015161ffff161115612fc7576040517f08c379a0000000000000000000000000000000000000000000000000000000008152600401612fbe906152c5565b60405180910390fd5b81896080015160018760400151612fde91906151d9565b61ffff1660048110612ff357612ff2614180565b5b602002019061ffff16908161ffff1681525050613046565b6040517f08c379a000000000000000000000000000000000000000000000000000000000815260040161303d9061460d565b60405180910390fd5b5b5b5b5b600184848151811061305f5761305e614180565b5b60200260200101818152505082806001019350505050612a7f565b506000866000015161ffff1614156130c7576040517f08c379a00000000000000000000000000000000000000000000000000000000081526004016130be90615331565b60405180910390fd5b6000866020015161ffff161415613113576040517f08c379a000000000000000000000000000000000000000000000000000000000815260040161310a9061539d565b60405180910390fd5b6000866040015160006003811061312d5761312c614180565b5b602002015161ffff161415613177576040517f08c379a000000000000000000000000000000000000000000000000000000000815260040161316e90615409565b60405180910390fd5b6131808661345c565b831561321857600760009054906101000a900473ffffffffffffffffffffffffffffffffffffffff1673ffffffffffffffffffffffffffffffffffffffff166313a5e9c53387846040518463ffffffff1660e01b81526004016131e593929190614ed3565b600060405180830381600087803b1580156131ff57600080fd5b505af1158015613213573d6000803e3d6000fd5b505050505b60008714156132d957600660009054906101000a900473ffffffffffffffffffffffffffffffffffffffff1673ffffffffffffffffffffffffffffffffffffffff1663ea131c2833886040518363ffffffff1660e01b815260040161327e9291906155c2565b602060405180830381600087803b15801561329857600080fd5b505af11580156132ac573d6000803e3d6000fd5b505050506040513d601f19601f820116820180604052508101906132d091906149e5565b92505050613370565b600660009054906101000a900473ffffffffffffffffffffffffffffffffffffffff1673ffffffffffffffffffffffffffffffffffffffff1663fd9f80053389896040518463ffffffff1660e01b8152600401613338939291906155ec565b600060405180830381600087803b15801561335257600080fd5b505af1158015613366573d6000803e3d6000fd5b5050505086925050505b949350505050565b6000613382613727565b61338f60008286866128ec565b91505092915050565b60008060009054906101000a900473ffffffffffffffffffffffffffffffffffffffff169050816000806101000a81548173ffffffffffffffffffffffffffffffffffffffff021916908373ffffffffffffffffffffffffffffffffffffffff1602179055508173ffffffffffffffffffffffffffffffffffffffff168173ffffffffffffffffffffffffffffffffffffffff167f8be0079c531659141344cd1fd0a4f28419497f9722a3daafe3b4186f6b6457e060405160405180910390a35050565b6134698160400151613486565b613476816060015161359e565b613483816080015161359e565b50565b60005b600381101561359a5760008282600381106134a7576134a6614180565b5b602002015161ffff1614156134bb5761359a565b60005b600381101561358c5760008382600381106134dc576134db614180565b5b602002015161ffff1614156134f05761358c565b80821415613505578080600101915050613587565b82816003811061351857613517614180565b5b602002015161ffff1683836003811061353457613533614180565b5b602002015161ffff16141561357e576040517f08c379a000000000000000000000000000000000000000000000000000000000815260040161357590615670565b60405180910390fd5b80806001019150505b6134be565b508080600101915050613489565b5050565b60005b60048110156136b25760008282600481106135bf576135be614180565b5b602002015161ffff1614156135d3576136b2565b60005b60048110156136a45760008382600481106135f4576135f3614180565b5b602002015161ffff161415613608576136a4565b8082141561361d57808060010191505061369f565b8281600481106136305761362f614180565b5b602002015161ffff1683836004811061364c5761364b614180565b5b602002015161ffff161415613696576040517f08c379a000000000000000000000000000000000000000000000000000000000815260040161368d90615670565b60405180910390fd5b80806001019150505b6135d6565b5080806001019150506135a1565b5050565b6040518060600160405280600390602082028036833780820191505090505090565b6040518060800160405280600490602082028036833780820191505090505090565b6040518060600160405280600061ffff168152602001600061ffff168152602001600061ffff1681525090565b6040518060a00160405280600061ffff168152602001600061ffff1681526020016137506136b6565b815260200161375d6136d8565b815260200161376a6136d8565b81525090565b6000604051905090565b600080fd5b600080fd5b600073ffffffffffffffffffffffffffffffffffffffff82169050919050565b60006137af82613784565b9050919050565b6137bf816137a4565b81146137ca57600080fd5b50565b6000813590506137dc816137b6565b92915050565b6000602082840312156137f8576137f761377a565b5b6000613806848285016137cd565b91505092915050565b6000819050919050565b6138228161380f565b811461382d57600080fd5b50565b60008135905061383f81613819565b92915050565b600080fd5b6000601f19601f8301169050919050565b7f4e487b7100000000000000000000000000000000000000000000000000000000600052604160045260246000fd5b6138938261384a565b810181811067ffffffffffffffff821117156138b2576138b161385b565b5b80604052505050565b60006138c5613770565b90506138d1828261388a565b919050565b600067ffffffffffffffff8211156138f1576138f061385b565b5b602082029050602081019050919050565b600080fd5b600061391a613915846138d6565b6138bb565b9050808382526020820190506020840283018581111561393d5761393c613902565b5b835b8181101561396657806139528882613830565b84526020840193505060208101905061393f565b5050509392505050565b600082601f83011261398557613984613845565b5b8135613995848260208601613907565b91505092915050565b6000806000606084860312156139b7576139b661377a565b5b60006139c586828701613830565b935050602084013567ffffffffffffffff8111156139e6576139e561377f565b5b6139f286828701613970565b925050604084013567ffffffffffffffff811115613a1357613a1261377f565b5b613a1f86828701613970565b9150509250925092565b6000819050919050565b613a3c81613a29565b8114613a4757600080fd5b50565b600081359050613a5981613a33565b92915050565b600060ff82169050919050565b613a7581613a5f565b8114613a8057600080fd5b50565b600081359050613a9281613a6c565b92915050565b600080600080600060a08688031215613ab457613ab361377a565b5b600086013567ffffffffffffffff811115613ad257613ad161377f565b5b613ade88828901613970565b9550506020613aef88828901613830565b9450506040613b0088828901613a4a565b9350506060613b1188828901613a4a565b9250506080613b2288828901613a83565b9150509295509295909350565b613b388161380f565b82525050565b6000602082019050613b536000830184613b2f565b92915050565b600060208284031215613b6f57613b6e61377a565b5b600082013567ffffffffffffffff811115613b8d57613b8c61377f565b5b613b9984828501613970565b91505092915050565b60008060408385031215613bb957613bb861377a565b5b6000613bc7858286016137cd565b9250506020613bd885828601613830565b9150509250929050565b60008115159050919050565b613bf781613be2565b82525050565b6000602082019050613c126000830184613bee565b92915050565b600080600080600060a08688031215613c3457613c3361377a565b5b6000613c4288828901613830565b9550506020613c5388828901613830565b9450506040613c6488828901613a4a565b9350506060613c7588828901613a4a565b9250506080613c8688828901613a83565b9150509295509295909350565b613c9c816137a4565b82525050565b6000602082019050613cb76000830184613c93565b92915050565b60008060008060808587031215613cd757613cd661377a565b5b6000613ce587828801613a4a565b9450506020613cf687828801613a4a565b9350506040613d0787828801613a4a565b9250506060613d1887828801613a83565b91505092959194509250565b60008060408385031215613d3b57613d3a61377a565b5b600083013567ffffffffffffffff811115613d5957613d5861377f565b5b613d6585828601613970565b925050602083013567ffffffffffffffff811115613d8657613d8561377f565b5b613d9285828601613970565b9150509250929050565b600060208284031215613db257613db161377a565b5b6000613dc084828501613830565b91505092915050565b600082825260208201905092915050565b7f4f776e61626c653a2063616c6c6572206973206e6f7420746865206f776e6572600082015250565b6000613e10602083613dc9565b9150613e1b82613dda565b602082019050919050565b60006020820190508181036000830152613e3f81613e03565b9050919050565b7f5265656e7472616e637947756172643a207265656e7472616e742063616c6c00600082015250565b6000613e7c601f83613dc9565b9150613e8782613e46565b602082019050919050565b60006020820190508181036000830152613eab81613e6f565b9050919050565b7f496e76616c69642070726963652e000000000000000000000000000000000000600082015250565b6000613ee8600e83613dc9565b9150613ef382613eb2565b602082019050919050565b60006020820190508181036000830152613f1781613edb565b9050919050565b600080fd5b600080fd5b600061ffff82169050919050565b613f3f81613f28565b8114613f4a57600080fd5b50565b600081519050613f5c81613f36565b92915050565b600067ffffffffffffffff821115613f7d57613f7c61385b565b5b602082029050919050565b6000613f9b613f9684613f62565b6138bb565b90508060208402830185811115613fb557613fb4613902565b5b835b81811015613fde5780613fca8882613f4d565b845260208401935050602081019050613fb7565b5050509392505050565b600082601f830112613ffd57613ffc613845565b5b600361400a848285613f88565b91505092915050565b600067ffffffffffffffff82111561402e5761402d61385b565b5b602082029050919050565b600061404c61404784614013565b6138bb565b9050806020840283018581111561406657614065613902565b5b835b8181101561408f578061407b8882613f4d565b845260208401935050602081019050614068565b5050509392505050565b600082601f8301126140ae576140ad613845565b5b60046140bb848285614039565b91505092915050565b60006101a082840312156140db576140da613f1e565b5b6140e560a06138bb565b905060006140f584828501613f4d565b600083015250602061410984828501613f4d565b602083015250604061411d84828501613fe8565b60408301525060a061413184828501614099565b60608301525061012061414684828501614099565b60808301525092915050565b60006101a082840312156141695761416861377a565b5b6000614177848285016140c4565b91505092915050565b7f4e487b7100000000000000000000000000000000000000000000000000000000600052603260045260246000fd5b600080fd5b600067ffffffffffffffff8211156141cf576141ce61385b565b5b6141d88261384a565b9050602081019050919050565b60005b838110156142035780820151818401526020810190506141e8565b83811115614212576000848401525b50505050565b600061422b614226846141b4565b6138bb565b905082815260208101848484011115614247576142466141af565b5b6142528482856141e5565b509392505050565b600082601f83011261426f5761426e613845565b5b815161427f848260208601614218565b91505092915050565b6005811061429557600080fd5b50565b6000815190506142a781614288565b92915050565b6000815190506142bc816137b6565b92915050565b6000815190506142d181613819565b92915050565b600060c082840312156142ed576142ec613f1e565b5b6142f760c06138bb565b9050600082015167ffffffffffffffff81111561431757614316613f23565b5b6143238482850161425a565b600083015250602061433784828501614298565b602083015250604061434b848285016142ad565b604083015250606061435f848285016142c2565b6060830152506080614373848285016142c2565b60808301525060a0614387848285016142c2565b60a08301525092915050565b6000602082840312156143a9576143a861377a565b5b600082015167ffffffffffffffff8111156143c7576143c661377f565b5b6143d3848285016142d7565b91505092915050565b7f4e487b7100000000000000000000000000000000000000000000000000000000600052602160045260246000fd5b7f436f756c64206e6f742066696e642063686565736520746f2062652072656d6f60008201527f7665642e00000000000000000000000000000000000000000000000000000000602082015250565b6000614467602483613dc9565b91506144728261440b565b604082019050919050565b600060208201905081810360008301526144968161445a565b9050919050565b7f436f756c64206e6f742066696e64206d65617420746f2062652072656d6f766560008201527f642e000000000000000000000000000000000000000000000000000000000000602082015250565b60006144f9602283613dc9565b91506145048261449d565b604082019050919050565b60006020820190508181036000830152614528816144ec565b9050919050565b7f436f756c64206e6f742066696e6420746f7070696e6720746f2062652072656d60008201527f6f7665642e000000000000000000000000000000000000000000000000000000602082015250565b600061458b602583613dc9565b91506145968261452f565b604082019050919050565b600060208201905081810360008301526145ba8161457e565b9050919050565b7f496e76616c696420696e6772656469656e7420747970652e0000000000000000600082015250565b60006145f7601883613dc9565b9150614602826145c1565b602082019050919050565b60006020820190508181036000830152614626816145ea565b9050919050565b7f4e487b7100000000000000000000000000000000000000000000000000000000600052601160045260246000fd5b60006146678261380f565b91506146728361380f565b9250828210156146855761468461462d565b5b828203905092915050565b7f74696d657374616d702065787069726564000000000000000000000000000000600082015250565b60006146c6601183613dc9565b91506146d182614690565b602082019050919050565b600060208201905081810360008301526146f5816146b9565b9050919050565b60008160601b9050919050565b6000614714826146fc565b9050919050565b600061472682614709565b9050919050565b61473e614739826137a4565b61471b565b82525050565b6000819050919050565b61475f61475a8261380f565b614744565b82525050565b600081519050919050565b600081905092915050565b6000819050602082019050919050565b6147948161380f565b82525050565b60006147a6838361478b565b60208301905092915050565b6000602082019050919050565b60006147ca82614765565b6147d48185614770565b93506147df8361477b565b8060005b838110156148105781516147f7888261479a565b9750614802836147b2565b9250506001810190506147e3565b5085935050505092915050565b6000614829828661472d565b601482019150614839828561474e565b60208201915061484982846147bf565b9150819050949350505050565b7f496e76616c6964207369676e61747572652e0000000000000000000000000000600082015250565b600061488c601283613dc9565b915061489782614856565b602082019050919050565b600060208201905081810360008301526148bb8161487f565b9050919050565b7f496e6772656469656e7420736f6c64206f75742e000000000000000000000000600082015250565b60006148f8601483613dc9565b9150614903826148c2565b602082019050919050565b60006020820190508181036000830152614927816148eb565b9050919050565b6000819050919050565b6000819050919050565b600061495d6149586149538461492e565b614938565b61380f565b9050919050565b61496d81614942565b82525050565b60006040820190506149886000830185613b2f565b6149956020830184614964565b9392505050565b60006149a78261380f565b91507fffffffffffffffffffffffffffffffffffffffffffffffffffffffffffffffff8214156149da576149d961462d565b5b600182019050919050565b6000602082840312156149fb576149fa61377a565b5b6000614a09848285016142c2565b91505092915050565b7f4e487b7100000000000000000000000000000000000000000000000000000000600052601260045260246000fd5b7f4861736e2774206561726e656420616e79206d6f726520636f6d6d697373696f60008201527f6e2e000000000000000000000000000000000000000000000000000000000000602082015250565b6000614a9d602283613dc9565b9150614aa882614a41565b604082019050919050565b60006020820190508181036000830152614acc81614a90565b9050919050565b6000614adf828661474e565b602082019150614aef828561472d565b601482019150614aff828461474e565b602082019150819050949350505050565b7f4164647265737320616c7265616479206265656e207061696420666f7220746860008201527f697320626c6f636b2e0000000000000000000000000000000000000000000000602082015250565b6000614b6c602983613dc9565b9150614b7782614b10565b604082019050919050565b60006020820190508181036000830152614b9b81614b5f565b9050919050565b600081905092915050565b50565b6000614bbd600083614ba2565b9150614bc882614bad565b600082019050919050565b6000614bde82614bb0565b9150819050919050565b7f5769746864726177616c206661696c65642e0000000000000000000000000000600082015250565b6000614c1e601283613dc9565b9150614c2982614be8565b602082019050919050565b60006020820190508181036000830152614c4d81614c11565b9050919050565b600081519050919050565b6000614c6a82614c54565b614c748185614ba2565b9350614c848185602086016141e5565b80840191505092915050565b6000819050919050565b614cab614ca682613a29565b614c90565b82525050565b6000614cbd8285614c5f565b9150614cc98284614c9a565b6020820191508190509392505050565b614ce281613a29565b82525050565b614cf181613a5f565b82525050565b6000608082019050614d0c6000830187614cd9565b614d196020830186614ce8565b614d266040830185614cd9565b614d336060830184614cd9565b95945050505050565b7f496e6772656469656e7420646f6573206e6f7420657869737400000000000000600082015250565b6000614d72601983613dc9565b9150614d7d82614d3c565b602082019050919050565b60006020820190508181036000830152614da181614d65565b9050919050565b7f4e6f7420656e6f75676820696e6772656469656e74206c6566746f7665722e00600082015250565b6000614dde601f83613dc9565b9150614de982614da8565b602082019050919050565b60006020820190508181036000830152614e0d81614dd1565b9050919050565b6000604082019050614e296000830185613b2f565b614e366020830184613b2f565b9392505050565b600082825260208201905092915050565b614e578161380f565b82525050565b6000614e698383614e4e565b60208301905092915050565b6000614e8082614765565b614e8a8185614e3d565b9350614e958361477b565b8060005b83811015614ec6578151614ead8882614e5d565b9750614eb8836147b2565b925050600181019050614e99565b5085935050505092915050565b6000606082019050614ee86000830186613c93565b8181036020830152614efa8185614e75565b90508181036040830152614f0e8184614e75565b9050949350505050565b6000614f238261380f565b9150614f2e8361380f565b9250827fffffffffffffffffffffffffffffffffffffffffffffffffffffffffffffffff03821115614f6357614f6261462d565b5b828201905092915050565b7f4f776e61626c653a206e6577206f776e657220697320746865207a65726f206160008201527f6464726573730000000000000000000000000000000000000000000000000000602082015250565b6000614fca602683613dc9565b9150614fd582614f6e565b604082019050919050565b60006020820190508181036000830152614ff981614fbd565b9050919050565b60006040820190506150156000830185613c93565b6150226020830184613b2f565b9392505050565b7f4d697373696e6720696e6772656469656e742e00000000000000000000000000600082015250565b600061505f601383613dc9565b915061506a82615029565b602082019050919050565b6000602082019050818103600083015261508e81615052565b9050919050565b7f43616e6e6f7420757365206d6f7265207468616e203120626173652e00000000600082015250565b60006150cb601c83613dc9565b91506150d682615095565b602082019050919050565b600060208201905081810360008301526150fa816150be565b9050919050565b7f43616e6e6f7420757365206d6f7265207468616e20312073617563652e000000600082015250565b6000615137601d83613dc9565b915061514282615101565b602082019050919050565b600060208201905081810360008301526151668161512a565b9050919050565b7f43616e6e6f7420757365206d6f7265207468616e203320636865657365732e00600082015250565b60006151a3601f83613dc9565b91506151ae8261516d565b602082019050919050565b600060208201905081810360008301526151d281615196565b9050919050565b60006151e482613f28565b91506151ef83613f28565b9250828210156152025761520161462d565b5b828203905092915050565b7f43616e6e6f7420757365206d6f7265207468616e2034206d656174732e000000600082015250565b6000615243601d83613dc9565b915061524e8261520d565b602082019050919050565b6000602082019050818103600083015261527281615236565b9050919050565b7f43616e6e6f7420757365206d6f7265207468616e203420746f7070696e67732e600082015250565b60006152af602083613dc9565b91506152ba82615279565b602082019050919050565b600060208201905081810360008301526152de816152a2565b9050919050565b7f4120626173652069732072657175697265642e00000000000000000000000000600082015250565b600061531b601383613dc9565b9150615326826152e5565b602082019050919050565b6000602082019050818103600083015261534a8161530e565b9050919050565b7f412073617563652069732072657175697265642e000000000000000000000000600082015250565b6000615387601483613dc9565b915061539282615351565b602082019050919050565b600060208201905081810360008301526153b68161537a565b9050919050565b7f4174206c65617374206f6e65206368656573652069732072657175697265642e600082015250565b60006153f3602083613dc9565b91506153fe826153bd565b602082019050919050565b60006020820190508181036000830152615422816153e6565b9050919050565b61543281613f28565b82525050565b600060039050919050565b600081905092915050565b6000819050919050565b60006154648383615429565b60208301905092915050565b6000602082019050919050565b61548681615438565b6154908184615443565b925061549b8261544e565b8060005b838110156154cc5781516154b38782615458565b96506154be83615470565b92505060018101905061549f565b505050505050565b600060049050919050565b600081905092915050565b6000819050919050565b6000602082019050919050565b61550a816154d4565b61551481846154df565b925061551f826154ea565b8060005b838110156155505781516155378782615458565b9650615542836154f4565b925050600181019050615523565b505050505050565b6101a08201600082015161556f6000850182615429565b5060208201516155826020850182615429565b506040820151615595604085018261547d565b5060608201516155a860a0850182615501565b5060808201516155bc610120850182615501565b50505050565b60006101c0820190506155d86000830185613c93565b6155e56020830184615558565b9392505050565b60006101e0820190506156026000830186613c93565b61560f6020830185613b2f565b61561c6040830184615558565b949350505050565b7f4e6f206475706c696361746520696e6772656469656e74732e00000000000000600082015250565b600061565a601983613dc9565b915061566582615624565b602082019050919050565b600060208201905081810360008301526156898161564d565b905091905056fea26469706673582212205e3c4983a4da8e3829a7ced8e161c468ae1b3732bf81090633e10727a38cbeef64736f6c63430008090033",
    "linkReferences": {},
    "deployedLinkReferences": {}
}