{
  "_format": "hh-sol-artifact-1",
  "contractName": "LazlosPizzaShop",
  "sourceName": "contracts/LazlosPizzaShop.sol",
  "abi": [
    {
      "anonymous": false,
      "inputs": [
        {
          "indexed": true,
          "internalType": "address",
          "name": "previousOwner",
          "type": "address"
        },
        {
          "indexed": true,
          "internalType": "address",
          "name": "newOwner",
          "type": "address"
        }
      ],
      "name": "OwnershipTransferred",
      "type": "event"
    },
    {
      "inputs": [
        {
          "internalType": "address",
          "name": "artist",
          "type": "address"
        }
      ],
      "name": "artistAllowedWithdrawalAmount",
      "outputs": [
        {
          "internalType": "uint256",
          "name": "",
          "type": "uint256"
        }
      ],
      "stateMutability": "view",
      "type": "function"
    },
    {
      "inputs": [
        {
          "internalType": "address",
          "name": "artist",
          "type": "address"
        }
      ],
      "name": "artistTotalCommission",
      "outputs": [
        {
          "internalType": "uint256",
          "name": "",
          "type": "uint256"
        }
      ],
      "stateMutability": "view",
      "type": "function"
    },
    {
      "inputs": [],
      "name": "artistWithdraw",
      "outputs": [],
      "stateMutability": "nonpayable",
      "type": "function"
    },
    {
      "inputs": [
        {
          "internalType": "uint256[]",
          "name": "tokenIds",
          "type": "uint256[]"
        }
      ],
      "name": "bakePizza",
      "outputs": [
        {
          "internalType": "uint256",
          "name": "",
          "type": "uint256"
        }
      ],
      "stateMutability": "payable",
      "type": "function"
    },
    {
      "inputs": [],
      "name": "bakePizzaPrice",
      "outputs": [
        {
          "internalType": "uint256",
          "name": "",
          "type": "uint256"
        }
      ],
      "stateMutability": "view",
      "type": "function"
    },
    {
      "inputs": [
        {
          "internalType": "uint256[]",
          "name": "tokenIds",
          "type": "uint256[]"
        },
        {
          "internalType": "uint256",
          "name": "timestamp",
          "type": "uint256"
        },
        {
          "internalType": "bytes32",
          "name": "r",
          "type": "bytes32"
        },
        {
          "internalType": "bytes32",
          "name": "s",
          "type": "bytes32"
        },
        {
          "internalType": "uint8",
          "name": "v",
          "type": "uint8"
        }
      ],
      "name": "bakeRandomPizza",
      "outputs": [
        {
          "internalType": "uint256",
          "name": "",
          "type": "uint256"
        }
      ],
      "stateMutability": "payable",
      "type": "function"
    },
    {
      "inputs": [],
      "name": "bakeRandomPizzaOn",
      "outputs": [
        {
          "internalType": "bool",
          "name": "",
          "type": "bool"
        }
      ],
      "stateMutability": "view",
      "type": "function"
    },
    {
      "inputs": [
        {
          "internalType": "uint256[]",
          "name": "tokenIds",
          "type": "uint256[]"
        }
      ],
      "name": "buyAndBakePizza",
      "outputs": [
        {
          "internalType": "uint256",
          "name": "",
          "type": "uint256"
        }
      ],
      "stateMutability": "payable",
      "type": "function"
    },
    {
      "inputs": [
        {
          "internalType": "uint256[]",
          "name": "tokenIds",
          "type": "uint256[]"
        },
        {
          "internalType": "uint256[]",
          "name": "amounts",
          "type": "uint256[]"
        }
      ],
      "name": "buyIngredients",
      "outputs": [],
      "stateMutability": "payable",
      "type": "function"
    },
    {
      "inputs": [],
      "name": "ingredientsContractAddress",
      "outputs": [
        {
          "internalType": "address",
          "name": "",
          "type": "address"
        }
      ],
      "stateMutability": "view",
      "type": "function"
    },
    {
      "inputs": [
        {
          "internalType": "address",
          "name": "addr",
          "type": "address"
        },
        {
          "internalType": "uint256",
          "name": "payoutBlock",
          "type": "uint256"
        }
      ],
      "name": "isPaidOutForBlock",
      "outputs": [
        {
          "internalType": "bool",
          "name": "",
          "type": "bool"
        }
      ],
      "stateMutability": "view",
      "type": "function"
    },
    {
      "inputs": [],
      "name": "mintingOn",
      "outputs": [
        {
          "internalType": "bool",
          "name": "",
          "type": "bool"
        }
      ],
      "stateMutability": "view",
      "type": "function"
    },
    {
      "inputs": [],
      "name": "owner",
      "outputs": [
        {
          "internalType": "address",
          "name": "",
          "type": "address"
        }
      ],
      "stateMutability": "view",
      "type": "function"
    },
    {
      "inputs": [],
      "name": "pizzaContractAddress",
      "outputs": [
        {
          "internalType": "address",
          "name": "",
          "type": "address"
        }
      ],
      "stateMutability": "view",
      "type": "function"
    },
    {
      "inputs": [],
      "name": "randomBakePrice",
      "outputs": [
        {
          "internalType": "uint256",
          "name": "",
          "type": "uint256"
        }
      ],
      "stateMutability": "view",
      "type": "function"
    },
    {
      "inputs": [
        {
          "internalType": "uint256",
          "name": "pizzaTokenId",
          "type": "uint256"
        },
        {
          "internalType": "uint256[]",
          "name": "ingredientTokenIdsToAdd",
          "type": "uint256[]"
        },
        {
          "internalType": "uint256[]",
          "name": "ingredientTokenIdsToRemove",
          "type": "uint256[]"
        }
      ],
      "name": "rebakePizza",
      "outputs": [],
      "stateMutability": "payable",
      "type": "function"
    },
    {
      "inputs": [],
      "name": "rebakePizzaPrice",
      "outputs": [
        {
          "internalType": "uint256",
          "name": "",
          "type": "uint256"
        }
      ],
      "stateMutability": "view",
      "type": "function"
    },
    {
      "inputs": [
        {
          "components": [
            {
              "internalType": "uint256",
              "name": "payoutBlock",
              "type": "uint256"
            },
            {
              "internalType": "uint256",
              "name": "amount",
              "type": "uint256"
            },
            {
              "internalType": "bytes32",
              "name": "r",
              "type": "bytes32"
            },
            {
              "internalType": "bytes32",
              "name": "s",
              "type": "bytes32"
            },
            {
              "internalType": "uint8",
              "name": "v",
              "type": "uint8"
            }
          ],
          "internalType": "struct LazlosPizzaShop.Payout[]",
          "name": "payouts",
          "type": "tuple[]"
        }
      ],
      "name": "redeemPayout",
      "outputs": [],
      "stateMutability": "nonpayable",
      "type": "function"
    },
    {
      "inputs": [],
      "name": "renounceOwnership",
      "outputs": [],
      "stateMutability": "nonpayable",
      "type": "function"
    },
    {
      "inputs": [
        {
          "internalType": "bool",
          "name": "on",
          "type": "bool"
        }
      ],
      "name": "setBakeRandomPizzaOn",
      "outputs": [],
      "stateMutability": "nonpayable",
      "type": "function"
    },
    {
      "inputs": [
        {
          "internalType": "address",
          "name": "addr",
          "type": "address"
        }
      ],
      "name": "setIngredientsContractAddress",
      "outputs": [],
      "stateMutability": "nonpayable",
      "type": "function"
    },
    {
      "inputs": [
        {
          "internalType": "bool",
          "name": "on",
          "type": "bool"
        }
      ],
      "name": "setMintingOn",
      "outputs": [],
      "stateMutability": "nonpayable",
      "type": "function"
    },
    {
      "inputs": [
        {
          "internalType": "address",
          "name": "addr",
          "type": "address"
        }
      ],
      "name": "setPizzaContractAddress",
      "outputs": [],
      "stateMutability": "nonpayable",
      "type": "function"
    },
    {
      "inputs": [
        {
          "internalType": "address",
          "name": "addr",
          "type": "address"
        }
      ],
      "name": "setSystemAddress",
      "outputs": [],
      "stateMutability": "nonpayable",
      "type": "function"
    },
    {
      "inputs": [
        {
          "internalType": "address",
          "name": "newOwner",
          "type": "address"
        }
      ],
      "name": "transferOwnership",
      "outputs": [],
      "stateMutability": "nonpayable",
      "type": "function"
    },
    {
      "inputs": [
        {
          "internalType": "uint256",
          "name": "pizzaTokenId",
          "type": "uint256"
        }
      ],
      "name": "unbakePizza",
      "outputs": [],
      "stateMutability": "payable",
      "type": "function"
    },
    {
      "inputs": [],
      "name": "unbakePizzaPrice",
      "outputs": [
        {
          "internalType": "uint256",
          "name": "",
          "type": "uint256"
        }
      ],
      "stateMutability": "view",
      "type": "function"
    },
    {
      "inputs": [
        {
          "internalType": "bytes32",
          "name": "messageHash",
          "type": "bytes32"
        },
        {
          "internalType": "bytes32",
          "name": "r",
          "type": "bytes32"
        },
        {
          "internalType": "bytes32",
          "name": "s",
          "type": "bytes32"
        },
        {
          "internalType": "uint8",
          "name": "v",
          "type": "uint8"
        }
      ],
      "name": "verifySignature",
      "outputs": [
        {
          "internalType": "address",
          "name": "",
          "type": "address"
        }
      ],
      "stateMutability": "pure",
      "type": "function"
    }
  ],
  "bytecode": "0x60806040526001600260006101000a81548160ff0219169083151502179055506001600260016101000a81548160ff021916908315150217905550662386f26fc1000060035566b1a2bc2ec50000600455662386f26fc1000060055566b1a2bc2ec500006006553480156200007357600080fd5b506200009462000088620000a160201b60201c565b620000a960201b60201c565b600180819055506200016d565b600033905090565b60008060009054906101000a900473ffffffffffffffffffffffffffffffffffffffff169050816000806101000a81548173ffffffffffffffffffffffffffffffffffffffff021916908373ffffffffffffffffffffffffffffffffffffffff1602179055508173ffffffffffffffffffffffffffffffffffffffff168173ffffffffffffffffffffffffffffffffffffffff167f8be0079c531659141344cd1fd0a4f28419497f9722a3daafe3b4186f6b6457e060405160405180910390a35050565b615ec0806200017d6000396000f3fe6080604052600436106101b75760003560e01c80638da5cb5b116100ec578063d8c766061161008a578063ecf4fdb111610064578063ecf4fdb1146105c9578063f0993b8f146105f4578063f2fde38b1461061f578063fb52c24e14610648576101b7565b8063d8c7660614610560578063da27a12c14610577578063dec18fd2146105a0576101b7565b8063bbb96999116100c6578063bbb96999146104b8578063c2136172146104e1578063c664822b1461050c578063d5e2e31c14610537576101b7565b80638da5cb5b146104415780639fd18cd71461046c578063af881a4d14610488576101b7565b806335e54cff1161015957806358df79c71161013357806358df79c714610397578063626f0008146103c2578063715018a6146103ff578063870bc0d914610416576101b7565b806335e54cff146102f2578063506cf1861461031d57806352d3b7b71461035a576101b7565b80631a933b9c116101955780631a933b9c1461023e5780631c4ed2dd146102675780631fdda526146102975780632dfa4c98146102c7576101b7565b806306210197146101bc57806306e375f4146101e55780630d413d6214610201575b600080fd5b3480156101c857600080fd5b506101e360048036038101906101de9190613d03565b610664565b005b6101ff60048036038101906101fa9190613ebf565b610724565b005b34801561020d57600080fd5b5061022860048036038101906102239190613fb9565b610de4565b604051610235919061402f565b60405180910390f35b34801561024a57600080fd5b50610265600480360381019061026091906141a3565b610ead565b005b610281600480360381019061027c91906141ec565b61120a565b60405161028e9190614292565b60405180910390f35b6102b160048036038101906102ac91906142ad565b61165d565b6040516102be9190614292565b60405180910390f35b3480156102d357600080fd5b506102dc611759565b6040516102e99190614311565b60405180910390f35b3480156102fe57600080fd5b5061030761176c565b6040516103149190614292565b60405180910390f35b34801561032957600080fd5b50610344600480360381019061033f9190613d03565b611772565b6040516103519190614292565b60405180910390f35b34801561036657600080fd5b50610381600480360381019061037c9190613d03565b611985565b60405161038e9190614292565b60405180910390f35b3480156103a357600080fd5b506103ac611a34565b6040516103b99190614292565b60405180910390f35b3480156103ce57600080fd5b506103e960048036038101906103e4919061432c565b611a3a565b6040516103f69190614311565b60405180910390f35b34801561040b57600080fd5b50610414611aa2565b005b34801561042257600080fd5b5061042b611b2a565b604051610438919061402f565b60405180910390f35b34801561044d57600080fd5b50610456611b50565b604051610463919061402f565b60405180910390f35b6104866004803603810190610481919061436c565b611b79565b005b6104a2600480360381019061049d91906142ad565b611f39565b6040516104af9190614292565b60405180910390f35b3480156104c457600080fd5b506104df60048036038101906104da9190613d03565b612211565b005b3480156104ed57600080fd5b506104f66122d1565b6040516105039190614292565b60405180910390f35b34801561051857600080fd5b506105216122d7565b60405161052e9190614292565b60405180910390f35b34801561054357600080fd5b5061055e60048036038101906105599190614410565b6122dd565b005b34801561056c57600080fd5b50610575612376565b005b34801561058357600080fd5b5061059e60048036038101906105999190613d03565b6124de565b005b3480156105ac57600080fd5b506105c760048036038101906105c29190614410565b61259e565b005b3480156105d557600080fd5b506105de612637565b6040516105eb919061402f565b60405180910390f35b34801561060057600080fd5b5061060961265d565b6040516106169190614311565b60405180910390f35b34801561062b57600080fd5b5061064660048036038101906106419190613d03565b612670565b005b610662600480360381019061065d919061443d565b612768565b005b61066c612e05565b73ffffffffffffffffffffffffffffffffffffffff1661068a611b50565b73ffffffffffffffffffffffffffffffffffffffff16146106e0576040517f08c379a00000000000000000000000000000000000000000000000000000000081526004016106d7906144c7565b60405180910390fd5b80600960006101000a81548173ffffffffffffffffffffffffffffffffffffffff021916908373ffffffffffffffffffffffffffffffffffffffff16021790555050565b6002600154141561076a576040517f08c379a000000000000000000000000000000000000000000000000000000000815260040161076190614533565b60405180910390fd5b6002600181905550600260009054906101000a900460ff166107c1576040517f08c379a00000000000000000000000000000000000000000000000000000000081526004016107b89061459f565b60405180910390fd5b6005543414610805576040517f08c379a00000000000000000000000000000000000000000000000000000000081526004016107fc9061460b565b60405180910390fd5b6000600760009054906101000a900473ffffffffffffffffffffffffffffffffffffffff1673ffffffffffffffffffffffffffffffffffffffff16630aa71aa0856040518263ffffffff1660e01b81526004016108629190614292565b6101a06040518083038186803b15801561087b57600080fd5b505afa15801561088f573d6000803e3d6000fd5b505050506040513d601f19601f820116820180604052508101906108b39190614855565b905060005b8251811015610dc85760008382815181106108d6576108d5614883565b5b602002602001015190506000600860009054906101000a900473ffffffffffffffffffffffffffffffffffffffff1673ffffffffffffffffffffffffffffffffffffffff1663c5fd9c6f836040518263ffffffff1660e01b815260040161093d9190614292565b60006040518083038186803b15801561095557600080fd5b505afa158015610969573d6000803e3d6000fd5b505050506040513d6000823e3d601f19601f820116820180604052508101906109929190614a96565b9050600060048111156109a8576109a7614adf565b5b816020015160048111156109bf576109be614adf565b5b14156109df576000846000019061ffff16908161ffff1681525050610db9565b600160048111156109f3576109f2614adf565b5b81602001516004811115610a0a57610a09614adf565b5b1415610a2a576000846020019061ffff16908161ffff1681525050610db8565b60026004811115610a3e57610a3d614adf565b5b81602001516004811115610a5557610a54614adf565b5b1415610b45576000610a65613bd7565b6000805b6003811015610af357600088604001518260038110610a8b57610a8a614883565b5b602002015161ffff1690506000811415610aa55750610af3565b868114610ae05780848460038110610ac057610abf614883565b5b602002019061ffff16908161ffff16815250508280600101935050610ae5565b600194505b818060010192505050610a69565b5082610b34576040517f08c379a0000000000000000000000000000000000000000000000000000000008152600401610b2b90614b80565b60405180910390fd5b818760400181905250505050610db7565b60036004811115610b5957610b58614adf565b5b81602001516004811115610b7057610b6f614adf565b5b1415610c60576000610b80613bf9565b6000805b6004811015610c0e57600088606001518260048110610ba657610ba5614883565b5b602002015161ffff1690506000811415610bc05750610c0e565b868114610bfb5780848460048110610bdb57610bda614883565b5b602002019061ffff16908161ffff16815250508280600101935050610c00565b600194505b818060010192505050610b84565b5082610c4f576040517f08c379a0000000000000000000000000000000000000000000000000000000008152600401610c4690614c12565b60405180910390fd5b818760600181905250505050610db6565b600480811115610c7357610c72614adf565b5b81602001516004811115610c8a57610c89614adf565b5b1415610d7a576000610c9a613bf9565b6000805b6004811015610d2857600088608001518260048110610cc057610cbf614883565b5b602002015161ffff1690506000811415610cda5750610d28565b868114610d155780848460048110610cf557610cf4614883565b5b602002019061ffff16908161ffff16815250508280600101935050610d1a565b600194505b818060010192505050610c9e565b5082610d69576040517f08c379a0000000000000000000000000000000000000000000000000000000008152600401610d6090614ca4565b60405180910390fd5b818760800181905250505050610db5565b6040517f08c379a0000000000000000000000000000000000000000000000000000000008152600401610dac90614d10565b60405180910390fd5b5b5b5b5b828060010193505050506108b8565b50610dd68482856001612e0d565b505060018081905550505050565b6000806040518060400160405280601c81526020017f19457468657265756d205369676e6564204d6573736167653a0a333200000000815250905060008187604051602001610e34929190614d98565b604051602081830303815290604052905060008180519060200120905060018186898960405160008152602001604052604051610e749493929190614dde565b6020604051602081039080840390855afa158015610e96573d6000803e3d6000fd5b505050602060405103519350505050949350505050565b60026001541415610ef3576040517f08c379a0000000000000000000000000000000000000000000000000000000008152600401610eea90614533565b60405180910390fd5b60026001819055506000805b8251811015611147576000838281518110610f1d57610f1c614883565b5b6020026020010151905060008160000151338360200151604051602001610f4693929190614e8c565b6040516020818303038152906040528051906020012090506000610f7882846040015185606001518660800151610de4565b90506000600960009054906101000a900473ffffffffffffffffffffffffffffffffffffffff1673ffffffffffffffffffffffffffffffffffffffff168273ffffffffffffffffffffffffffffffffffffffff161490508061100f576040517f08c379a000000000000000000000000000000000000000000000000000000000815260040161100690614f15565b60405180910390fd5b600b60008560000151815260200190815260200160002060003373ffffffffffffffffffffffffffffffffffffffff1673ffffffffffffffffffffffffffffffffffffffff16815260200190815260200160002060009054906101000a900460ff16156110b1576040517f08c379a00000000000000000000000000000000000000000000000000000000081526004016110a890614fa7565b60405180910390fd5b6001600b60008660000151815260200190815260200160002060003373ffffffffffffffffffffffffffffffffffffffff1673ffffffffffffffffffffffffffffffffffffffff16815260200190815260200160002060006101000a81548160ff02191690831515021790555083602001518661112e9190614ff6565b955050505050808061113f9061504c565b915050610eff565b5060008111156111ff5760003373ffffffffffffffffffffffffffffffffffffffff1682604051611177906150bb565b60006040518083038185875af1925050503d80600081146111b4576040519150601f19603f3d011682016040523d82523d6000602084013e6111b9565b606091505b50509050806111fd576040517f08c379a00000000000000000000000000000000000000000000000000000000081526004016111f49061511c565b60405180910390fd5b505b506001808190555050565b600060026001541415611252576040517f08c379a000000000000000000000000000000000000000000000000000000000815260040161124990614533565b60405180910390fd5b6002600181905550600260009054906101000a900460ff166112a9576040517f08c379a00000000000000000000000000000000000000000000000000000000081526004016112a09061459f565b60405180910390fd5b600260019054906101000a900460ff166112f8576040517f08c379a00000000000000000000000000000000000000000000000000000000081526004016112ef90615188565b60405180910390fd5b346006541461133c576040517f08c379a00000000000000000000000000000000000000000000000000000000081526004016113339061460b565b60405180910390fd5b61012c854261134b91906151a8565b1061138b576040517f08c379a000000000000000000000000000000000000000000000000000000000815260040161138290615228565b60405180910390fd5b60003386886040516020016113a293929190615300565b60405160208183030381529060405280519060200120905060006113c882878787610de4565b90506000600960009054906101000a900473ffffffffffffffffffffffffffffffffffffffff1673ffffffffffffffffffffffffffffffffffffffff168273ffffffffffffffffffffffffffffffffffffffff161490508061145f576040517f08c379a000000000000000000000000000000000000000000000000000000000815260040161145690614f15565b60405180910390fd5b6000600354905060005b8a5181101561163b5760008b828151811061148757611486614883565b5b602002602001015190506000600860009054906101000a900473ffffffffffffffffffffffffffffffffffffffff1673ffffffffffffffffffffffffffffffffffffffff1663c5fd9c6f836040518263ffffffff1660e01b81526004016114ee9190614292565b60006040518083038186803b15801561150657600080fd5b505afa15801561151a573d6000803e3d6000fd5b505050506040513d6000823e3d601f19601f820116820180604052508101906115439190614a96565b905060018160800151101561158d576040517f08c379a000000000000000000000000000000000000000000000000000000000815260040161158490615385565b60405180910390fd5b600860009054906101000a900473ffffffffffffffffffffffffffffffffffffffff1673ffffffffffffffffffffffffffffffffffffffff1663d872712b8360016040518363ffffffff1660e01b81526004016115eb9291906153ea565b600060405180830381600087803b15801561160557600080fd5b505af1158015611619573d6000803e3d6000fd5b50505050806060015184019350505080806116339061504c565b915050611469565b506116478a6000613899565b9450505050506001808190555095945050505050565b6000600260015414156116a5576040517f08c379a000000000000000000000000000000000000000000000000000000000815260040161169c90614533565b60405180910390fd5b6002600181905550600260009054906101000a900460ff166116fc576040517f08c379a00000000000000000000000000000000000000000000000000000000081526004016116f39061459f565b60405180910390fd5b6003543414611740576040517f08c379a00000000000000000000000000000000000000000000000000000000081526004016117379061460b565b60405180910390fd5b61174b826001613899565b905060018081905550919050565b600260019054906101000a900460ff1681565b60065481565b600080600860009054906101000a900473ffffffffffffffffffffffffffffffffffffffff1673ffffffffffffffffffffffffffffffffffffffff1663ed81bb706040518163ffffffff1660e01b815260040160206040518083038186803b1580156117dd57600080fd5b505afa1580156117f1573d6000803e3d6000fd5b505050506040513d601f19601f820116820180604052508101906118159190615413565b9050600080600190505b82811161197a576000600860009054906101000a900473ffffffffffffffffffffffffffffffffffffffff1673ffffffffffffffffffffffffffffffffffffffff1663c5fd9c6f836040518263ffffffff1660e01b81526004016118839190614292565b60006040518083038186803b15801561189b57600080fd5b505afa1580156118af573d6000803e3d6000fd5b505050506040513d6000823e3d601f19601f820116820180604052508101906118d89190614a96565b90508573ffffffffffffffffffffffffffffffffffffffff16816040015173ffffffffffffffffffffffffffffffffffffffff16146119175750611967565b600081608001518260a0015161192d91906151a8565b905060008260600151826119419190615440565b90506000600a8261195291906154c9565b905080866119609190614ff6565b9550505050505b80806119729061504c565b91505061181f565b508092505050919050565b60008061199183611772565b90506000600a60008573ffffffffffffffffffffffffffffffffffffffff1673ffffffffffffffffffffffffffffffffffffffff168152602001908152602001600020549050808211611a19576040517f08c379a0000000000000000000000000000000000000000000000000000000008152600401611a109061556c565b60405180910390fd5b60008183611a2791906151a8565b9050809350505050919050565b60055481565b6000600b600083815260200190815260200160002060008473ffffffffffffffffffffffffffffffffffffffff1673ffffffffffffffffffffffffffffffffffffffff16815260200190815260200160002060009054906101000a900460ff16905092915050565b611aaa612e05565b73ffffffffffffffffffffffffffffffffffffffff16611ac8611b50565b73ffffffffffffffffffffffffffffffffffffffff1614611b1e576040517f08c379a0000000000000000000000000000000000000000000000000000000008152600401611b15906144c7565b60405180910390fd5b611b2860006138b9565b565b600860009054906101000a900473ffffffffffffffffffffffffffffffffffffffff1681565b60008060009054906101000a900473ffffffffffffffffffffffffffffffffffffffff16905090565b60026001541415611bbf576040517f08c379a0000000000000000000000000000000000000000000000000000000008152600401611bb690614533565b60405180910390fd5b6002600181905550600260009054906101000a900460ff16611c16576040517f08c379a0000000000000000000000000000000000000000000000000000000008152600401611c0d9061459f565b60405180910390fd5b600080600090505b8351811015611e59576000848281518110611c3c57611c3b614883565b5b602002602001015190506000848381518110611c5b57611c5a614883565b5b602002602001015190506000600860009054906101000a900473ffffffffffffffffffffffffffffffffffffffff1673ffffffffffffffffffffffffffffffffffffffff1663c5fd9c6f846040518263ffffffff1660e01b8152600401611cc29190614292565b60006040518083038186803b158015611cda57600080fd5b505afa158015611cee573d6000803e3d6000fd5b505050506040513d6000823e3d601f19601f82011682018060405250810190611d179190614a96565b905060008160000151511415611d62576040517f08c379a0000000000000000000000000000000000000000000000000000000008152600401611d59906155d8565b60405180910390fd5b8181608001511015611da9576040517f08c379a0000000000000000000000000000000000000000000000000000000008152600401611da090615644565b60405180910390fd5b600860009054906101000a900473ffffffffffffffffffffffffffffffffffffffff1673ffffffffffffffffffffffffffffffffffffffff1663d872712b84846040518363ffffffff1660e01b8152600401611e06929190615664565b600060405180830381600087803b158015611e2057600080fd5b505af1158015611e34573d6000803e3d6000fd5b5050505081816060015102850194505050508080611e519061504c565b915050611c1e565b50348114611e9c576040517f08c379a0000000000000000000000000000000000000000000000000000000008152600401611e939061460b565b60405180910390fd5b600860009054906101000a900473ffffffffffffffffffffffffffffffffffffffff1673ffffffffffffffffffffffffffffffffffffffff1663b5571ed43385856040518463ffffffff1660e01b8152600401611efb93929190615723565b600060405180830381600087803b158015611f1557600080fd5b505af1158015611f29573d6000803e3d6000fd5b5050505050600180819055505050565b600060026001541415611f81576040517f08c379a0000000000000000000000000000000000000000000000000000000008152600401611f7890614533565b60405180910390fd5b6002600181905550600260009054906101000a900460ff16611fd8576040517f08c379a0000000000000000000000000000000000000000000000000000000008152600401611fcf9061459f565b60405180910390fd5b6000600354905060005b83518110156121b457600084828151811061200057611fff614883565b5b602002602001015190506000600860009054906101000a900473ffffffffffffffffffffffffffffffffffffffff1673ffffffffffffffffffffffffffffffffffffffff1663c5fd9c6f836040518263ffffffff1660e01b81526004016120679190614292565b60006040518083038186803b15801561207f57600080fd5b505afa158015612093573d6000803e3d6000fd5b505050506040513d6000823e3d601f19601f820116820180604052508101906120bc9190614a96565b9050600181608001511015612106576040517f08c379a00000000000000000000000000000000000000000000000000000000081526004016120fd90615385565b60405180910390fd5b600860009054906101000a900473ffffffffffffffffffffffffffffffffffffffff1673ffffffffffffffffffffffffffffffffffffffff1663d872712b8360016040518363ffffffff1660e01b81526004016121649291906153ea565b600060405180830381600087803b15801561217e57600080fd5b505af1158015612192573d6000803e3d6000fd5b50505050806060015184019350505080806121ac9061504c565b915050611fe2565b503481146121f7576040517f08c379a00000000000000000000000000000000000000000000000000000000081526004016121ee9061460b565b60405180910390fd5b612202836000613899565b91505060018081905550919050565b612219612e05565b73ffffffffffffffffffffffffffffffffffffffff16612237611b50565b73ffffffffffffffffffffffffffffffffffffffff161461228d576040517f08c379a0000000000000000000000000000000000000000000000000000000008152600401612284906144c7565b60405180910390fd5b80600860006101000a81548173ffffffffffffffffffffffffffffffffffffffff021916908373ffffffffffffffffffffffffffffffffffffffff16021790555050565b60045481565b60035481565b6122e5612e05565b73ffffffffffffffffffffffffffffffffffffffff16612303611b50565b73ffffffffffffffffffffffffffffffffffffffff1614612359576040517f08c379a0000000000000000000000000000000000000000000000000000000008152600401612350906144c7565b60405180910390fd5b80600260016101000a81548160ff02191690831515021790555050565b600260015414156123bc576040517f08c379a00000000000000000000000000000000000000000000000000000000081526004016123b390614533565b60405180910390fd5b600260018190555060006123cf33611985565b905080600a60003373ffffffffffffffffffffffffffffffffffffffff1673ffffffffffffffffffffffffffffffffffffffff16815260200190815260200160002060008282546124209190614ff6565b9250508190555060003373ffffffffffffffffffffffffffffffffffffffff168260405161244d906150bb565b60006040518083038185875af1925050503d806000811461248a576040519150601f19603f3d011682016040523d82523d6000602084013e61248f565b606091505b50509050806124d3576040517f08c379a00000000000000000000000000000000000000000000000000000000081526004016124ca9061511c565b60405180910390fd5b505060018081905550565b6124e6612e05565b73ffffffffffffffffffffffffffffffffffffffff16612504611b50565b73ffffffffffffffffffffffffffffffffffffffff161461255a576040517f08c379a0000000000000000000000000000000000000000000000000000000008152600401612551906144c7565b60405180910390fd5b80600760006101000a81548173ffffffffffffffffffffffffffffffffffffffff021916908373ffffffffffffffffffffffffffffffffffffffff16021790555050565b6125a6612e05565b73ffffffffffffffffffffffffffffffffffffffff166125c4611b50565b73ffffffffffffffffffffffffffffffffffffffff161461261a576040517f08c379a0000000000000000000000000000000000000000000000000000000008152600401612611906144c7565b60405180910390fd5b80600260006101000a81548160ff02191690831515021790555050565b600760009054906101000a900473ffffffffffffffffffffffffffffffffffffffff1681565b600260009054906101000a900460ff1681565b612678612e05565b73ffffffffffffffffffffffffffffffffffffffff16612696611b50565b73ffffffffffffffffffffffffffffffffffffffff16146126ec576040517f08c379a00000000000000000000000000000000000000000000000000000000081526004016126e3906144c7565b60405180910390fd5b600073ffffffffffffffffffffffffffffffffffffffff168173ffffffffffffffffffffffffffffffffffffffff16141561275c576040517f08c379a0000000000000000000000000000000000000000000000000000000008152600401612753906157da565b60405180910390fd5b612765816138b9565b50565b600260015414156127ae576040517f08c379a00000000000000000000000000000000000000000000000000000000081526004016127a590614533565b60405180910390fd5b6002600181905550600260009054906101000a900460ff16612805576040517f08c379a00000000000000000000000000000000000000000000000000000000081526004016127fc9061459f565b60405180910390fd5b6004543414612849576040517f08c379a00000000000000000000000000000000000000000000000000000000081526004016128409061460b565b60405180910390fd5b6000600760009054906101000a900473ffffffffffffffffffffffffffffffffffffffff1673ffffffffffffffffffffffffffffffffffffffff16630aa71aa0836040518263ffffffff1660e01b81526004016128a69190614292565b6101a06040518083038186803b1580156128bf57600080fd5b505afa1580156128d3573d6000803e3d6000fd5b505050506040513d601f19601f820116820180604052508101906128f79190614855565b90506000600390506000600190505b60038110156129575760008360400151826003811061292857612927614883565b5b602002015161ffff16141561293c57612957565b81806129479061504c565b9250508080600101915050612906565b5060005b60048110156129ac5760008360600151826004811061297d5761297c614883565b5b602002015161ffff161415612991576129ac565b818061299c9061504c565b925050808060010191505061295b565b5060005b6004811015612a01576000836080015182600481106129d2576129d1614883565b5b602002015161ffff1614156129e657612a01565b81806129f19061504c565b92505080806001019150506129b0565b5060008167ffffffffffffffff811115612a1e57612a1d613d7c565b5b604051908082528060200260200182016040528015612a4c5781602001602082028036833780820191505090505b509050826000015161ffff1681600081518110612a6c57612a6b614883565b5b602002602001018181525050826020015161ffff1681600181518110612a9557612a94614883565b5b60200260200101818152505060006002905060005b6003811015612b3457600085604001518260038110612acc57612acb614883565b5b602002015161ffff161415612ae057612b34565b84604001518160038110612af757612af6614883565b5b602002015161ffff16838381518110612b1357612b12614883565b5b60200260200101818152505081806001019250508080600101915050612aaa565b5060005b6004811015612bc257600085606001518260048110612b5a57612b59614883565b5b602002015161ffff161415612b6e57612bc2565b84606001518160048110612b8557612b84614883565b5b602002015161ffff16838381518110612ba157612ba0614883565b5b60200260200101818152505081806001019250508080600101915050612b38565b5060005b6004811015612c5057600085608001518260048110612be857612be7614883565b5b602002015161ffff161415612bfc57612c50565b84608001518160048110612c1357612c12614883565b5b602002015161ffff16838381518110612c2f57612c2e614883565b5b60200260200101818152505081806001019250508080600101915050612bc6565b5060008367ffffffffffffffff811115612c6d57612c6c613d7c565b5b604051908082528060200260200182016040528015612c9b5781602001602082028036833780820191505090505b50905060005b84811015612cd7576001828281518110612cbe57612cbd614883565b5b6020026020010181815250508080600101915050612ca1565b50600860009054906101000a900473ffffffffffffffffffffffffffffffffffffffff1673ffffffffffffffffffffffffffffffffffffffff1663b5571ed43385846040518463ffffffff1660e01b8152600401612d3793929190615723565b600060405180830381600087803b158015612d5157600080fd5b505af1158015612d65573d6000803e3d6000fd5b50505050600760009054906101000a900473ffffffffffffffffffffffffffffffffffffffff1673ffffffffffffffffffffffffffffffffffffffff166342966c68876040518263ffffffff1660e01b8152600401612dc49190614292565b600060405180830381600087803b158015612dde57600080fd5b505af1158015612df2573d6000803e3d6000fd5b5050505050505050506001808190555050565b600033905090565b6000612e17613c1b565b60008614612f4f5760005b8560400151506003811015612e8357600086604001518260038110612e4a57612e49614883565b5b602002015161ffff161415612e5e57612e83565b81600001805180919060010161ffff1661ffff16815250508080600101915050612e22565b5060005b8560600151506004811015612ee857600086606001518260048110612eaf57612eae614883565b5b602002015161ffff161415612ec357612ee8565b81602001805180919060010161ffff1661ffff16815250508080600101915050612e87565b5060005b8560800151506004811015612f4d57600086608001518260048110612f1457612f13614883565b5b602002015161ffff161415612f2857612f4d565b81604001805180919060010161ffff1661ffff16815250508080600101915050612eec565b505b6000845167ffffffffffffffff811115612f6c57612f6b613d7c565b5b604051908082528060200260200182016040528015612f9a5781602001602082028036833780820191505090505b50905060005b855181101561359b576000868281518110612fbe57612fbd614883565b5b6020026020010151905085156130c4576000600860009054906101000a900473ffffffffffffffffffffffffffffffffffffffff1673ffffffffffffffffffffffffffffffffffffffff166345adc21033846040518363ffffffff1660e01b815260040161302d9291906157fa565b60206040518083038186803b15801561304557600080fd5b505afa158015613059573d6000803e3d6000fd5b505050506040513d601f19601f8201168201806040525081019061307d9190615413565b9050600081116130c2576040517f08c379a00000000000000000000000000000000000000000000000000000000081526004016130b99061586f565b60405180910390fd5b505b6000600860009054906101000a900473ffffffffffffffffffffffffffffffffffffffff1673ffffffffffffffffffffffffffffffffffffffff1663c5fd9c6f836040518263ffffffff1660e01b81526004016131219190614292565b60006040518083038186803b15801561313957600080fd5b505afa15801561314d573d6000803e3d6000fd5b505050506040513d6000823e3d601f19601f820116820180604052508101906131769190614a96565b90506000600481111561318c5761318b614adf565b5b816020015160048111156131a3576131a2614adf565b5b141561320d576000896000015161ffff16146131f4576040517f08c379a00000000000000000000000000000000000000000000000000000000081526004016131eb906158db565b60405180910390fd5b81896000019061ffff16908161ffff168152505061356b565b6001600481111561322157613220614adf565b5b8160200151600481111561323857613237614adf565b5b14156132a2576000896020015161ffff1614613289576040517f08c379a000000000000000000000000000000000000000000000000000000000815260040161328090615947565b60405180910390fd5b81896020019061ffff16908161ffff168152505061356a565b600260048111156132b6576132b5614adf565b5b816020015160048111156132cd576132cc614adf565b5b141561337b5784600001805180919060010161ffff1661ffff16815250506003856000015161ffff161115613337576040517f08c379a000000000000000000000000000000000000000000000000000000000815260040161332e906159b3565b60405180910390fd5b8189604001516001876000015161334e91906159d3565b61ffff166003811061336357613362614883565b5b602002019061ffff16908161ffff1681525050613569565b6003600481111561338f5761338e614adf565b5b816020015160048111156133a6576133a5614adf565b5b14156134545784602001805180919060010161ffff1661ffff16815250506004856020015161ffff161115613410576040517f08c379a000000000000000000000000000000000000000000000000000000000815260040161340790615a53565b60405180910390fd5b8189606001516001876020015161342791906159d3565b61ffff166004811061343c5761343b614883565b5b602002019061ffff16908161ffff1681525050613568565b60048081111561346757613466614adf565b5b8160200151600481111561347e5761347d614adf565b5b141561352c5784604001805180919060010161ffff1661ffff16815250506004856040015161ffff1611156134e8576040517f08c379a00000000000000000000000000000000000000000000000000000000081526004016134df90615abf565b60405180910390fd5b818960800151600187604001516134ff91906159d3565b61ffff166004811061351457613513614883565b5b602002019061ffff16908161ffff1681525050613567565b6040517f08c379a000000000000000000000000000000000000000000000000000000000815260040161355e90614d10565b60405180910390fd5b5b5b5b5b60018484815181106135805761357f614883565b5b60200260200101818152505082806001019350505050612fa0565b506000866000015161ffff1614156135e8576040517f08c379a00000000000000000000000000000000000000000000000000000000081526004016135df90615b2b565b60405180910390fd5b6000866020015161ffff161415613634576040517f08c379a000000000000000000000000000000000000000000000000000000000815260040161362b90615b97565b60405180910390fd5b6000866040015160006003811061364e5761364d614883565b5b602002015161ffff161415613698576040517f08c379a000000000000000000000000000000000000000000000000000000000815260040161368f90615c03565b60405180910390fd5b6136a18661397d565b831561373957600860009054906101000a900473ffffffffffffffffffffffffffffffffffffffff1673ffffffffffffffffffffffffffffffffffffffff166313a5e9c53387846040518463ffffffff1660e01b815260040161370693929190615723565b600060405180830381600087803b15801561372057600080fd5b505af1158015613734573d6000803e3d6000fd5b505050505b60008714156137fa57600760009054906101000a900473ffffffffffffffffffffffffffffffffffffffff1673ffffffffffffffffffffffffffffffffffffffff1663ea131c2833886040518363ffffffff1660e01b815260040161379f929190615dbc565b602060405180830381600087803b1580156137b957600080fd5b505af11580156137cd573d6000803e3d6000fd5b505050506040513d601f19601f820116820180604052508101906137f19190615413565b92505050613891565b600760009054906101000a900473ffffffffffffffffffffffffffffffffffffffff1673ffffffffffffffffffffffffffffffffffffffff1663fd9f80053389896040518463ffffffff1660e01b815260040161385993929190615de6565b600060405180830381600087803b15801561387357600080fd5b505af1158015613887573d6000803e3d6000fd5b5050505086925050505b949350505050565b60006138a3613c48565b6138b06000828686612e0d565b91505092915050565b60008060009054906101000a900473ffffffffffffffffffffffffffffffffffffffff169050816000806101000a81548173ffffffffffffffffffffffffffffffffffffffff021916908373ffffffffffffffffffffffffffffffffffffffff1602179055508173ffffffffffffffffffffffffffffffffffffffff168173ffffffffffffffffffffffffffffffffffffffff167f8be0079c531659141344cd1fd0a4f28419497f9722a3daafe3b4186f6b6457e060405160405180910390a35050565b61398a81604001516139a7565b6139978160600151613abf565b6139a48160800151613abf565b50565b60005b6003811015613abb5760008282600381106139c8576139c7614883565b5b602002015161ffff1614156139dc57613abb565b60005b6003811015613aad5760008382600381106139fd576139fc614883565b5b602002015161ffff161415613a1157613aad565b80821415613a26578080600101915050613aa8565b828160038110613a3957613a38614883565b5b602002015161ffff16838360038110613a5557613a54614883565b5b602002015161ffff161415613a9f576040517f08c379a0000000000000000000000000000000000000000000000000000000008152600401613a9690615e6a565b60405180910390fd5b80806001019150505b6139df565b5080806001019150506139aa565b5050565b60005b6004811015613bd3576000828260048110613ae057613adf614883565b5b602002015161ffff161415613af457613bd3565b60005b6004811015613bc5576000838260048110613b1557613b14614883565b5b602002015161ffff161415613b2957613bc5565b80821415613b3e578080600101915050613bc0565b828160048110613b5157613b50614883565b5b602002015161ffff16838360048110613b6d57613b6c614883565b5b602002015161ffff161415613bb7576040517f08c379a0000000000000000000000000000000000000000000000000000000008152600401613bae90615e6a565b60405180910390fd5b80806001019150505b613af7565b508080600101915050613ac2565b5050565b6040518060600160405280600390602082028036833780820191505090505090565b6040518060800160405280600490602082028036833780820191505090505090565b6040518060600160405280600061ffff168152602001600061ffff168152602001600061ffff1681525090565b6040518060a00160405280600061ffff168152602001600061ffff168152602001613c71613bd7565b8152602001613c7e613bf9565b8152602001613c8b613bf9565b81525090565b6000604051905090565b600080fd5b600080fd5b600073ffffffffffffffffffffffffffffffffffffffff82169050919050565b6000613cd082613ca5565b9050919050565b613ce081613cc5565b8114613ceb57600080fd5b50565b600081359050613cfd81613cd7565b92915050565b600060208284031215613d1957613d18613c9b565b5b6000613d2784828501613cee565b91505092915050565b6000819050919050565b613d4381613d30565b8114613d4e57600080fd5b50565b600081359050613d6081613d3a565b92915050565b600080fd5b6000601f19601f8301169050919050565b7f4e487b7100000000000000000000000000000000000000000000000000000000600052604160045260246000fd5b613db482613d6b565b810181811067ffffffffffffffff82111715613dd357613dd2613d7c565b5b80604052505050565b6000613de6613c91565b9050613df28282613dab565b919050565b600067ffffffffffffffff821115613e1257613e11613d7c565b5b602082029050602081019050919050565b600080fd5b6000613e3b613e3684613df7565b613ddc565b90508083825260208201905060208402830185811115613e5e57613e5d613e23565b5b835b81811015613e875780613e738882613d51565b845260208401935050602081019050613e60565b5050509392505050565b600082601f830112613ea657613ea5613d66565b5b8135613eb6848260208601613e28565b91505092915050565b600080600060608486031215613ed857613ed7613c9b565b5b6000613ee686828701613d51565b935050602084013567ffffffffffffffff811115613f0757613f06613ca0565b5b613f1386828701613e91565b925050604084013567ffffffffffffffff811115613f3457613f33613ca0565b5b613f4086828701613e91565b9150509250925092565b6000819050919050565b613f5d81613f4a565b8114613f6857600080fd5b50565b600081359050613f7a81613f54565b92915050565b600060ff82169050919050565b613f9681613f80565b8114613fa157600080fd5b50565b600081359050613fb381613f8d565b92915050565b60008060008060808587031215613fd357613fd2613c9b565b5b6000613fe187828801613f6b565b9450506020613ff287828801613f6b565b935050604061400387828801613f6b565b925050606061401487828801613fa4565b91505092959194509250565b61402981613cc5565b82525050565b60006020820190506140446000830184614020565b92915050565b600067ffffffffffffffff82111561406557614064613d7c565b5b602082029050602081019050919050565b600080fd5b600080fd5b600060a0828403121561409657614095614076565b5b6140a060a0613ddc565b905060006140b084828501613d51565b60008301525060206140c484828501613d51565b60208301525060406140d884828501613f6b565b60408301525060606140ec84828501613f6b565b606083015250608061410084828501613fa4565b60808301525092915050565b600061411f61411a8461404a565b613ddc565b90508083825260208201905060a0840283018581111561414257614141613e23565b5b835b8181101561416b57806141578882614080565b84526020840193505060a081019050614144565b5050509392505050565b600082601f83011261418a57614189613d66565b5b813561419a84826020860161410c565b91505092915050565b6000602082840312156141b9576141b8613c9b565b5b600082013567ffffffffffffffff8111156141d7576141d6613ca0565b5b6141e384828501614175565b91505092915050565b600080600080600060a0868803121561420857614207613c9b565b5b600086013567ffffffffffffffff81111561422657614225613ca0565b5b61423288828901613e91565b955050602061424388828901613d51565b945050604061425488828901613f6b565b935050606061426588828901613f6b565b925050608061427688828901613fa4565b9150509295509295909350565b61428c81613d30565b82525050565b60006020820190506142a76000830184614283565b92915050565b6000602082840312156142c3576142c2613c9b565b5b600082013567ffffffffffffffff8111156142e1576142e0613ca0565b5b6142ed84828501613e91565b91505092915050565b60008115159050919050565b61430b816142f6565b82525050565b60006020820190506143266000830184614302565b92915050565b6000806040838503121561434357614342613c9b565b5b600061435185828601613cee565b925050602061436285828601613d51565b9150509250929050565b6000806040838503121561438357614382613c9b565b5b600083013567ffffffffffffffff8111156143a1576143a0613ca0565b5b6143ad85828601613e91565b925050602083013567ffffffffffffffff8111156143ce576143cd613ca0565b5b6143da85828601613e91565b9150509250929050565b6143ed816142f6565b81146143f857600080fd5b50565b60008135905061440a816143e4565b92915050565b60006020828403121561442657614425613c9b565b5b6000614434848285016143fb565b91505092915050565b60006020828403121561445357614452613c9b565b5b600061446184828501613d51565b91505092915050565b600082825260208201905092915050565b7f4f776e61626c653a2063616c6c6572206973206e6f7420746865206f776e6572600082015250565b60006144b160208361446a565b91506144bc8261447b565b602082019050919050565b600060208201905081810360008301526144e0816144a4565b9050919050565b7f5265656e7472616e637947756172643a207265656e7472616e742063616c6c00600082015250565b600061451d601f8361446a565b9150614528826144e7565b602082019050919050565b6000602082019050818103600083015261454c81614510565b9050919050565b7f6d696e74696e67206d757374206265206f6e0000000000000000000000000000600082015250565b600061458960128361446a565b915061459482614553565b602082019050919050565b600060208201905081810360008301526145b88161457c565b9050919050565b7f496e76616c69642070726963652e000000000000000000000000000000000000600082015250565b60006145f5600e8361446a565b9150614600826145bf565b602082019050919050565b60006020820190508181036000830152614624816145e8565b9050919050565b600061ffff82169050919050565b6146428161462b565b811461464d57600080fd5b50565b60008151905061465f81614639565b92915050565b600067ffffffffffffffff8211156146805761467f613d7c565b5b602082029050919050565b600061469e61469984614665565b613ddc565b905080602084028301858111156146b8576146b7613e23565b5b835b818110156146e157806146cd8882614650565b8452602084019350506020810190506146ba565b5050509392505050565b600082601f830112614700576146ff613d66565b5b600361470d84828561468b565b91505092915050565b600067ffffffffffffffff82111561473157614730613d7c565b5b602082029050919050565b600061474f61474a84614716565b613ddc565b9050806020840283018581111561476957614768613e23565b5b835b81811015614792578061477e8882614650565b84526020840193505060208101905061476b565b5050509392505050565b600082601f8301126147b1576147b0613d66565b5b60046147be84828561473c565b91505092915050565b60006101a082840312156147de576147dd614076565b5b6147e860a0613ddc565b905060006147f884828501614650565b600083015250602061480c84828501614650565b6020830152506040614820848285016146eb565b60408301525060a06148348482850161479c565b6060830152506101206148498482850161479c565b60808301525092915050565b60006101a0828403121561486c5761486b613c9b565b5b600061487a848285016147c7565b91505092915050565b7f4e487b7100000000000000000000000000000000000000000000000000000000600052603260045260246000fd5b600080fd5b600067ffffffffffffffff8211156148d2576148d1613d7c565b5b6148db82613d6b565b9050602081019050919050565b60005b838110156149065780820151818401526020810190506148eb565b83811115614915576000848401525b50505050565b600061492e614929846148b7565b613ddc565b90508281526020810184848401111561494a576149496148b2565b5b6149558482856148e8565b509392505050565b600082601f83011261497257614971613d66565b5b815161498284826020860161491b565b91505092915050565b6005811061499857600080fd5b50565b6000815190506149aa8161498b565b92915050565b6000815190506149bf81613cd7565b92915050565b6000815190506149d481613d3a565b92915050565b600060c082840312156149f0576149ef614076565b5b6149fa60c0613ddc565b9050600082015167ffffffffffffffff811115614a1a57614a1961407b565b5b614a268482850161495d565b6000830152506020614a3a8482850161499b565b6020830152506040614a4e848285016149b0565b6040830152506060614a62848285016149c5565b6060830152506080614a76848285016149c5565b60808301525060a0614a8a848285016149c5565b60a08301525092915050565b600060208284031215614aac57614aab613c9b565b5b600082015167ffffffffffffffff811115614aca57614ac9613ca0565b5b614ad6848285016149da565b91505092915050565b7f4e487b7100000000000000000000000000000000000000000000000000000000600052602160045260246000fd5b7f436f756c64206e6f742066696e642063686565736520746f2062652072656d6f60008201527f7665642e00000000000000000000000000000000000000000000000000000000602082015250565b6000614b6a60248361446a565b9150614b7582614b0e565b604082019050919050565b60006020820190508181036000830152614b9981614b5d565b9050919050565b7f436f756c64206e6f742066696e64206d65617420746f2062652072656d6f766560008201527f642e000000000000000000000000000000000000000000000000000000000000602082015250565b6000614bfc60228361446a565b9150614c0782614ba0565b604082019050919050565b60006020820190508181036000830152614c2b81614bef565b9050919050565b7f436f756c64206e6f742066696e6420746f7070696e6720746f2062652072656d60008201527f6f7665642e000000000000000000000000000000000000000000000000000000602082015250565b6000614c8e60258361446a565b9150614c9982614c32565b604082019050919050565b60006020820190508181036000830152614cbd81614c81565b9050919050565b7f496e76616c696420696e6772656469656e7420747970652e0000000000000000600082015250565b6000614cfa60188361446a565b9150614d0582614cc4565b602082019050919050565b60006020820190508181036000830152614d2981614ced565b9050919050565b600081519050919050565b600081905092915050565b6000614d5182614d30565b614d5b8185614d3b565b9350614d6b8185602086016148e8565b80840191505092915050565b6000819050919050565b614d92614d8d82613f4a565b614d77565b82525050565b6000614da48285614d46565b9150614db08284614d81565b6020820191508190509392505050565b614dc981613f4a565b82525050565b614dd881613f80565b82525050565b6000608082019050614df36000830187614dc0565b614e006020830186614dcf565b614e0d6040830185614dc0565b614e1a6060830184614dc0565b95945050505050565b6000819050919050565b614e3e614e3982613d30565b614e23565b82525050565b60008160601b9050919050565b6000614e5c82614e44565b9050919050565b6000614e6e82614e51565b9050919050565b614e86614e8182613cc5565b614e63565b82525050565b6000614e988286614e2d565b602082019150614ea88285614e75565b601482019150614eb88284614e2d565b602082019150819050949350505050565b7f496e76616c6964207369676e61747572652e0000000000000000000000000000600082015250565b6000614eff60128361446a565b9150614f0a82614ec9565b602082019050919050565b60006020820190508181036000830152614f2e81614ef2565b9050919050565b7f4164647265737320616c7265616479206265656e207061696420666f7220746860008201527f697320626c6f636b2e0000000000000000000000000000000000000000000000602082015250565b6000614f9160298361446a565b9150614f9c82614f35565b604082019050919050565b60006020820190508181036000830152614fc081614f84565b9050919050565b7f4e487b7100000000000000000000000000000000000000000000000000000000600052601160045260246000fd5b600061500182613d30565b915061500c83613d30565b9250827fffffffffffffffffffffffffffffffffffffffffffffffffffffffffffffffff0382111561504157615040614fc7565b5b828201905092915050565b600061505782613d30565b91507fffffffffffffffffffffffffffffffffffffffffffffffffffffffffffffffff82141561508a57615089614fc7565b5b600182019050919050565b50565b60006150a5600083614d3b565b91506150b082615095565b600082019050919050565b60006150c682615098565b9150819050919050565b7f5769746864726177616c206661696c65642e0000000000000000000000000000600082015250565b600061510660128361446a565b9150615111826150d0565b602082019050919050565b60006020820190508181036000830152615135816150f9565b9050919050565b7f62616b6552616e646f6d50697a7a61206d757374206265206f6e000000000000600082015250565b6000615172601a8361446a565b915061517d8261513c565b602082019050919050565b600060208201905081810360008301526151a181615165565b9050919050565b60006151b382613d30565b91506151be83613d30565b9250828210156151d1576151d0614fc7565b5b828203905092915050565b7f74696d657374616d702065787069726564000000000000000000000000000000600082015250565b600061521260118361446a565b915061521d826151dc565b602082019050919050565b6000602082019050818103600083015261524181615205565b9050919050565b600081519050919050565b600081905092915050565b6000819050602082019050919050565b61527781613d30565b82525050565b6000615289838361526e565b60208301905092915050565b6000602082019050919050565b60006152ad82615248565b6152b78185615253565b93506152c28361525e565b8060005b838110156152f35781516152da888261527d565b97506152e583615295565b9250506001810190506152c6565b5085935050505092915050565b600061530c8286614e75565b60148201915061531c8285614e2d565b60208201915061532c82846152a2565b9150819050949350505050565b7f496e6772656469656e7420736f6c64206f75742e000000000000000000000000600082015250565b600061536f60148361446a565b915061537a82615339565b602082019050919050565b6000602082019050818103600083015261539e81615362565b9050919050565b6000819050919050565b6000819050919050565b60006153d46153cf6153ca846153a5565b6153af565b613d30565b9050919050565b6153e4816153b9565b82525050565b60006040820190506153ff6000830185614283565b61540c60208301846153db565b9392505050565b60006020828403121561542957615428613c9b565b5b6000615437848285016149c5565b91505092915050565b600061544b82613d30565b915061545683613d30565b9250817fffffffffffffffffffffffffffffffffffffffffffffffffffffffffffffffff048311821515161561548f5761548e614fc7565b5b828202905092915050565b7f4e487b7100000000000000000000000000000000000000000000000000000000600052601260045260246000fd5b60006154d482613d30565b91506154df83613d30565b9250826154ef576154ee61549a565b5b828204905092915050565b7f4861736e2774206561726e656420616e79206d6f726520636f6d6d697373696f60008201527f6e2e000000000000000000000000000000000000000000000000000000000000602082015250565b600061555660228361446a565b9150615561826154fa565b604082019050919050565b6000602082019050818103600083015261558581615549565b9050919050565b7f496e6772656469656e7420646f6573206e6f7420657869737400000000000000600082015250565b60006155c260198361446a565b91506155cd8261558c565b602082019050919050565b600060208201905081810360008301526155f1816155b5565b9050919050565b7f4e6f7420656e6f75676820696e6772656469656e74206c6566746f7665722e00600082015250565b600061562e601f8361446a565b9150615639826155f8565b602082019050919050565b6000602082019050818103600083015261565d81615621565b9050919050565b60006040820190506156796000830185614283565b6156866020830184614283565b9392505050565b600082825260208201905092915050565b6156a781613d30565b82525050565b60006156b9838361569e565b60208301905092915050565b60006156d082615248565b6156da818561568d565b93506156e58361525e565b8060005b838110156157165781516156fd88826156ad565b975061570883615295565b9250506001810190506156e9565b5085935050505092915050565b60006060820190506157386000830186614020565b818103602083015261574a81856156c5565b9050818103604083015261575e81846156c5565b9050949350505050565b7f4f776e61626c653a206e6577206f776e657220697320746865207a65726f206160008201527f6464726573730000000000000000000000000000000000000000000000000000602082015250565b60006157c460268361446a565b91506157cf82615768565b604082019050919050565b600060208201905081810360008301526157f3816157b7565b9050919050565b600060408201905061580f6000830185614020565b61581c6020830184614283565b9392505050565b7f4d697373696e6720696e6772656469656e742e00000000000000000000000000600082015250565b600061585960138361446a565b915061586482615823565b602082019050919050565b600060208201905081810360008301526158888161584c565b9050919050565b7f43616e6e6f7420757365206d6f7265207468616e203120626173652e00000000600082015250565b60006158c5601c8361446a565b91506158d08261588f565b602082019050919050565b600060208201905081810360008301526158f4816158b8565b9050919050565b7f43616e6e6f7420757365206d6f7265207468616e20312073617563652e000000600082015250565b6000615931601d8361446a565b915061593c826158fb565b602082019050919050565b6000602082019050818103600083015261596081615924565b9050919050565b7f43616e6e6f7420757365206d6f7265207468616e203320636865657365732e00600082015250565b600061599d601f8361446a565b91506159a882615967565b602082019050919050565b600060208201905081810360008301526159cc81615990565b9050919050565b60006159de8261462b565b91506159e98361462b565b9250828210156159fc576159fb614fc7565b5b828203905092915050565b7f43616e6e6f7420757365206d6f7265207468616e2034206d656174732e000000600082015250565b6000615a3d601d8361446a565b9150615a4882615a07565b602082019050919050565b60006020820190508181036000830152615a6c81615a30565b9050919050565b7f43616e6e6f7420757365206d6f7265207468616e203420746f7070696e67732e600082015250565b6000615aa960208361446a565b9150615ab482615a73565b602082019050919050565b60006020820190508181036000830152615ad881615a9c565b9050919050565b7f4120626173652069732072657175697265642e00000000000000000000000000600082015250565b6000615b1560138361446a565b9150615b2082615adf565b602082019050919050565b60006020820190508181036000830152615b4481615b08565b9050919050565b7f412073617563652069732072657175697265642e000000000000000000000000600082015250565b6000615b8160148361446a565b9150615b8c82615b4b565b602082019050919050565b60006020820190508181036000830152615bb081615b74565b9050919050565b7f4174206c65617374206f6e65206368656573652069732072657175697265642e600082015250565b6000615bed60208361446a565b9150615bf882615bb7565b602082019050919050565b60006020820190508181036000830152615c1c81615be0565b9050919050565b615c2c8161462b565b82525050565b600060039050919050565b600081905092915050565b6000819050919050565b6000615c5e8383615c23565b60208301905092915050565b6000602082019050919050565b615c8081615c32565b615c8a8184615c3d565b9250615c9582615c48565b8060005b83811015615cc6578151615cad8782615c52565b9650615cb883615c6a565b925050600181019050615c99565b505050505050565b600060049050919050565b600081905092915050565b6000819050919050565b6000602082019050919050565b615d0481615cce565b615d0e8184615cd9565b9250615d1982615ce4565b8060005b83811015615d4a578151615d318782615c52565b9650615d3c83615cee565b925050600181019050615d1d565b505050505050565b6101a082016000820151615d696000850182615c23565b506020820151615d7c6020850182615c23565b506040820151615d8f6040850182615c77565b506060820151615da260a0850182615cfb565b506080820151615db6610120850182615cfb565b50505050565b60006101c082019050615dd26000830185614020565b615ddf6020830184615d52565b9392505050565b60006101e082019050615dfc6000830186614020565b615e096020830185614283565b615e166040830184615d52565b949350505050565b7f4e6f206475706c696361746520696e6772656469656e74732e00000000000000600082015250565b6000615e5460198361446a565b9150615e5f82615e1e565b602082019050919050565b60006020820190508181036000830152615e8381615e47565b905091905056fea2646970667358221220ec9f9f48ae0832983fa562142a15bfe8fcdd0d5e6d223c374ca931191f5bd7b264736f6c63430008090033",
  "linkReferences": {},
  "deployedLinkReferences": {}
}